{
	"@chainlink/contracts/src/v0.8/mocks/VRFCoordinatorV2Mock.sol": {
		"VRFCoordinatorV2Mock": {
			"abi": [
				{
					"inputs": [
						{
							"internalType": "uint96",
							"name": "_baseFee",
							"type": "uint96"
						},
						{
							"internalType": "uint96",
							"name": "_gasPriceLink",
							"type": "uint96"
						}
					],
					"stateMutability": "nonpayable",
					"type": "constructor"
				},
				{
					"inputs": [],
					"name": "InsufficientBalance",
					"type": "error"
				},
				{
					"inputs": [],
					"name": "InvalidSubscription",
					"type": "error"
				},
				{
					"inputs": [
						{
							"internalType": "address",
							"name": "owner",
							"type": "address"
						}
					],
					"name": "MustBeSubOwner",
					"type": "error"
				},
				{
					"anonymous": false,
					"inputs": [
						{
							"indexed": true,
							"internalType": "uint256",
							"name": "requestId",
							"type": "uint256"
						},
						{
							"indexed": false,
							"internalType": "uint256",
							"name": "outputSeed",
							"type": "uint256"
						},
						{
							"indexed": false,
							"internalType": "uint96",
							"name": "payment",
							"type": "uint96"
						},
						{
							"indexed": false,
							"internalType": "bool",
							"name": "success",
							"type": "bool"
						}
					],
					"name": "RandomWordsFulfilled",
					"type": "event"
				},
				{
					"anonymous": false,
					"inputs": [
						{
							"indexed": true,
							"internalType": "bytes32",
							"name": "keyHash",
							"type": "bytes32"
						},
						{
							"indexed": false,
							"internalType": "uint256",
							"name": "requestId",
							"type": "uint256"
						},
						{
							"indexed": false,
							"internalType": "uint256",
							"name": "preSeed",
							"type": "uint256"
						},
						{
							"indexed": true,
							"internalType": "uint64",
							"name": "subId",
							"type": "uint64"
						},
						{
							"indexed": false,
							"internalType": "uint16",
							"name": "minimumRequestConfirmations",
							"type": "uint16"
						},
						{
							"indexed": false,
							"internalType": "uint32",
							"name": "callbackGasLimit",
							"type": "uint32"
						},
						{
							"indexed": false,
							"internalType": "uint32",
							"name": "numWords",
							"type": "uint32"
						},
						{
							"indexed": true,
							"internalType": "address",
							"name": "sender",
							"type": "address"
						}
					],
					"name": "RandomWordsRequested",
					"type": "event"
				},
				{
					"anonymous": false,
					"inputs": [
						{
							"indexed": true,
							"internalType": "uint64",
							"name": "subId",
							"type": "uint64"
						},
						{
							"indexed": false,
							"internalType": "address",
							"name": "to",
							"type": "address"
						},
						{
							"indexed": false,
							"internalType": "uint256",
							"name": "amount",
							"type": "uint256"
						}
					],
					"name": "SubscriptionCanceled",
					"type": "event"
				},
				{
					"anonymous": false,
					"inputs": [
						{
							"indexed": true,
							"internalType": "uint64",
							"name": "subId",
							"type": "uint64"
						},
						{
							"indexed": false,
							"internalType": "address",
							"name": "owner",
							"type": "address"
						}
					],
					"name": "SubscriptionCreated",
					"type": "event"
				},
				{
					"anonymous": false,
					"inputs": [
						{
							"indexed": true,
							"internalType": "uint64",
							"name": "subId",
							"type": "uint64"
						},
						{
							"indexed": false,
							"internalType": "uint256",
							"name": "oldBalance",
							"type": "uint256"
						},
						{
							"indexed": false,
							"internalType": "uint256",
							"name": "newBalance",
							"type": "uint256"
						}
					],
					"name": "SubscriptionFunded",
					"type": "event"
				},
				{
					"inputs": [],
					"name": "BASE_FEE",
					"outputs": [
						{
							"internalType": "uint96",
							"name": "",
							"type": "uint96"
						}
					],
					"stateMutability": "view",
					"type": "function"
				},
				{
					"inputs": [],
					"name": "GAS_PRICE_LINK",
					"outputs": [
						{
							"internalType": "uint96",
							"name": "",
							"type": "uint96"
						}
					],
					"stateMutability": "view",
					"type": "function"
				},
				{
					"inputs": [
						{
							"internalType": "uint64",
							"name": "_subId",
							"type": "uint64"
						}
					],
					"name": "acceptSubscriptionOwnerTransfer",
					"outputs": [],
					"stateMutability": "pure",
					"type": "function"
				},
				{
					"inputs": [
						{
							"internalType": "uint64",
							"name": "_subId",
							"type": "uint64"
						},
						{
							"internalType": "address",
							"name": "_consumer",
							"type": "address"
						}
					],
					"name": "addConsumer",
					"outputs": [],
					"stateMutability": "pure",
					"type": "function"
				},
				{
					"inputs": [
						{
							"internalType": "uint64",
							"name": "_subId",
							"type": "uint64"
						},
						{
							"internalType": "address",
							"name": "_to",
							"type": "address"
						}
					],
					"name": "cancelSubscription",
					"outputs": [],
					"stateMutability": "nonpayable",
					"type": "function"
				},
				{
					"inputs": [],
					"name": "createSubscription",
					"outputs": [
						{
							"internalType": "uint64",
							"name": "_subId",
							"type": "uint64"
						}
					],
					"stateMutability": "nonpayable",
					"type": "function"
				},
				{
					"inputs": [
						{
							"internalType": "uint256",
							"name": "_requestId",
							"type": "uint256"
						},
						{
							"internalType": "address",
							"name": "_consumer",
							"type": "address"
						}
					],
					"name": "fulfillRandomWords",
					"outputs": [],
					"stateMutability": "nonpayable",
					"type": "function"
				},
				{
					"inputs": [
						{
							"internalType": "uint64",
							"name": "_subId",
							"type": "uint64"
						},
						{
							"internalType": "uint96",
							"name": "_amount",
							"type": "uint96"
						}
					],
					"name": "fundSubscription",
					"outputs": [],
					"stateMutability": "nonpayable",
					"type": "function"
				},
				{
					"inputs": [],
					"name": "getRequestConfig",
					"outputs": [
						{
							"internalType": "uint16",
							"name": "",
							"type": "uint16"
						},
						{
							"internalType": "uint32",
							"name": "",
							"type": "uint32"
						},
						{
							"internalType": "bytes32[]",
							"name": "",
							"type": "bytes32[]"
						}
					],
					"stateMutability": "pure",
					"type": "function"
				},
				{
					"inputs": [
						{
							"internalType": "uint64",
							"name": "_subId",
							"type": "uint64"
						}
					],
					"name": "getSubscription",
					"outputs": [
						{
							"internalType": "uint96",
							"name": "balance",
							"type": "uint96"
						},
						{
							"internalType": "uint64",
							"name": "reqCount",
							"type": "uint64"
						},
						{
							"internalType": "address",
							"name": "owner",
							"type": "address"
						},
						{
							"internalType": "address[]",
							"name": "consumers",
							"type": "address[]"
						}
					],
					"stateMutability": "view",
					"type": "function"
				},
				{
					"inputs": [
						{
							"internalType": "uint64",
							"name": "_subId",
							"type": "uint64"
						},
						{
							"internalType": "address",
							"name": "_consumer",
							"type": "address"
						}
					],
					"name": "removeConsumer",
					"outputs": [],
					"stateMutability": "pure",
					"type": "function"
				},
				{
					"inputs": [
						{
							"internalType": "bytes32",
							"name": "_keyHash",
							"type": "bytes32"
						},
						{
							"internalType": "uint64",
							"name": "_subId",
							"type": "uint64"
						},
						{
							"internalType": "uint16",
							"name": "_minimumRequestConfirmations",
							"type": "uint16"
						},
						{
							"internalType": "uint32",
							"name": "_callbackGasLimit",
							"type": "uint32"
						},
						{
							"internalType": "uint32",
							"name": "_numWords",
							"type": "uint32"
						}
					],
					"name": "requestRandomWords",
					"outputs": [
						{
							"internalType": "uint256",
							"name": "",
							"type": "uint256"
						}
					],
					"stateMutability": "nonpayable",
					"type": "function"
				},
				{
					"inputs": [
						{
							"internalType": "uint64",
							"name": "_subId",
							"type": "uint64"
						},
						{
							"internalType": "address",
							"name": "_newOwner",
							"type": "address"
						}
					],
					"name": "requestSubscriptionOwnerTransfer",
					"outputs": [],
					"stateMutability": "pure",
					"type": "function"
				}
			],
			"devdoc": {
				"kind": "dev",
				"methods": {
					"createSubscription()": {
						"details": "You can manage the consumer set dynamically with addConsumer/removeConsumer.Note to fund the subscription, use transferAndCall. For exampleLINKTOKEN.transferAndCall(address(COORDINATOR),amount,abi.encode(subId));",
						"returns": {
							"_subId": "- A unique subscription id."
						}
					},
					"fulfillRandomWords(uint256,address)": {
						"details": "This mock uses a simplified formula for calculating payment amount and gas usage, and doesnot account for all edge cases handled in the real VRF coordinator. When making requestsagainst the real coordinator a small amount of additional LINK is required.",
						"params": {
							"_consumer": "the VRF randomness consumer to send the result to",
							"_requestId": "the request to fulfill"
						}
					},
					"fundSubscription(uint64,uint96)": {
						"params": {
							"_amount": "the amount to fund",
							"_subId": "the subscription to fund"
						}
					},
					"getRequestConfig()": {
						"returns": {
							"_0": "minimumRequestConfirmations global min for request confirmations",
							"_1": "maxGasLimit global max for request gas limit",
							"_2": "s_provingKeyHashes list of registered key hashes"
						}
					}
				},
				"version": 1
			},
			"evm": {
				"assembly": "    /* \"@chainlink/contracts/src/v0.8/mocks/VRFCoordinatorV2Mock.sol\":254:6238  contract VRFCoordinatorV2Mock is VRFCoordinatorV2Interface {... */\n  mstore(0x40, 0xc0)\n    /* \"@chainlink/contracts/src/v0.8/mocks/VRFCoordinatorV2Mock.sol\":1144:1145  1 */\n  0x01\n    /* \"@chainlink/contracts/src/v0.8/mocks/VRFCoordinatorV2Mock.sol\":1118:1145  uint256 s_nextRequestId = 1 */\n  dup1\n  sstore\n    /* \"@chainlink/contracts/src/v0.8/mocks/VRFCoordinatorV2Mock.sol\":1173:1176  100 */\n  0x64\n    /* \"@chainlink/contracts/src/v0.8/mocks/VRFCoordinatorV2Mock.sol\":1149:1176  uint256 s_nextPreSeed = 100 */\n  0x02\n  sstore\n    /* \"@chainlink/contracts/src/v0.8/mocks/VRFCoordinatorV2Mock.sol\":1494:1611  constructor(uint96 _baseFee, uint96 _gasPriceLink) {... */\n  callvalue\n  dup1\n  iszero\n  tag_1\n  jumpi\n  0x00\n  dup1\n  revert\ntag_1:\n  pop\n  mload(0x40)\n  sub(codesize, bytecodeSize)\n  dup1\n  bytecodeSize\n  dup4\n  codecopy\n  dup2\n  dup2\n  add\n  0x40\n  mstore\n  dup2\n  add\n  swap1\n  tag_2\n  swap2\n  swap1\n  tag_3\n  jump\t// in\ntag_2:\n    /* \"@chainlink/contracts/src/v0.8/mocks/VRFCoordinatorV2Mock.sol\":1562:1570  _baseFee */\n  dup2\n    /* \"@chainlink/contracts/src/v0.8/mocks/VRFCoordinatorV2Mock.sol\":1551:1570  BASE_FEE = _baseFee */\n  0xffffffffffffffffffffffff\n  and\n  0x80\n  dup2\n  0xffffffffffffffffffffffff\n  and\n  0xa0\n  shl\n  dup2\n  mstore\n  pop\n  pop\n    /* \"@chainlink/contracts/src/v0.8/mocks/VRFCoordinatorV2Mock.sol\":1593:1606  _gasPriceLink */\n  dup1\n    /* \"@chainlink/contracts/src/v0.8/mocks/VRFCoordinatorV2Mock.sol\":1576:1606  GAS_PRICE_LINK = _gasPriceLink */\n  0xffffffffffffffffffffffff\n  and\n  0xa0\n  dup2\n  0xffffffffffffffffffffffff\n  and\n  0xa0\n  shl\n  dup2\n  mstore\n  pop\n  pop\n    /* \"@chainlink/contracts/src/v0.8/mocks/VRFCoordinatorV2Mock.sol\":1494:1611  constructor(uint96 _baseFee, uint96 _gasPriceLink) {... */\n  pop\n  pop\n    /* \"@chainlink/contracts/src/v0.8/mocks/VRFCoordinatorV2Mock.sol\":254:6238  contract VRFCoordinatorV2Mock is VRFCoordinatorV2Interface {... */\n  jump(tag_6)\n    /* \"#utility.yul\":7:148   */\ntag_8:\n    /* \"#utility.yul\":63:68   */\n  0x00\n    /* \"#utility.yul\":94:100   */\n  dup2\n    /* \"#utility.yul\":88:101   */\n  mload\n    /* \"#utility.yul\":79:101   */\n  swap1\n  pop\n    /* \"#utility.yul\":110:142   */\n  tag_10\n    /* \"#utility.yul\":136:141   */\n  dup2\n    /* \"#utility.yul\":110:142   */\n  tag_11\n  jump\t// in\ntag_10:\n    /* \"#utility.yul\":69:148   */\n  swap3\n  swap2\n  pop\n  pop\n  jump\t// out\n    /* \"#utility.yul\":154:590   */\ntag_3:\n    /* \"#utility.yul\":231:237   */\n  0x00\n    /* \"#utility.yul\":239:245   */\n  dup1\n    /* \"#utility.yul\":288:290   */\n  0x40\n    /* \"#utility.yul\":276:285   */\n  dup4\n    /* \"#utility.yul\":267:274   */\n  dup6\n    /* \"#utility.yul\":263:286   */\n  sub\n    /* \"#utility.yul\":259:291   */\n  slt\n    /* \"#utility.yul\":256:258   */\n  iszero\n  tag_13\n  jumpi\n    /* \"#utility.yul\":304:305   */\n  0x00\n    /* \"#utility.yul\":301:302   */\n  dup1\n    /* \"#utility.yul\":294:306   */\n  revert\n    /* \"#utility.yul\":256:258   */\ntag_13:\n    /* \"#utility.yul\":347:348   */\n  0x00\n    /* \"#utility.yul\":372:435   */\n  tag_14\n    /* \"#utility.yul\":427:434   */\n  dup6\n    /* \"#utility.yul\":418:424   */\n  dup3\n    /* \"#utility.yul\":407:416   */\n  dup7\n    /* \"#utility.yul\":403:425   */\n  add\n    /* \"#utility.yul\":372:435   */\n  tag_8\n  jump\t// in\ntag_14:\n    /* \"#utility.yul\":362:435   */\n  swap3\n  pop\n    /* \"#utility.yul\":318:445   */\n  pop\n    /* \"#utility.yul\":484:486   */\n  0x20\n    /* \"#utility.yul\":510:573   */\n  tag_15\n    /* \"#utility.yul\":565:572   */\n  dup6\n    /* \"#utility.yul\":556:562   */\n  dup3\n    /* \"#utility.yul\":545:554   */\n  dup7\n    /* \"#utility.yul\":541:563   */\n  add\n    /* \"#utility.yul\":510:573   */\n  tag_8\n  jump\t// in\ntag_15:\n    /* \"#utility.yul\":500:573   */\n  swap2\n  pop\n    /* \"#utility.yul\":455:583   */\n  pop\n    /* \"#utility.yul\":246:590   */\n  swap3\n  pop\n  swap3\n  swap1\n  pop\n  jump\t// out\n    /* \"#utility.yul\":596:705   */\ntag_16:\n    /* \"#utility.yul\":632:639   */\n  0x00\n    /* \"#utility.yul\":672:698   */\n  0xffffffffffffffffffffffff\n    /* \"#utility.yul\":665:670   */\n  dup3\n    /* \"#utility.yul\":661:699   */\n  and\n    /* \"#utility.yul\":650:699   */\n  swap1\n  pop\n    /* \"#utility.yul\":640:705   */\n  swap2\n  swap1\n  pop\n  jump\t// out\n    /* \"#utility.yul\":711:831   */\ntag_11:\n    /* \"#utility.yul\":783:806   */\n  tag_19\n    /* \"#utility.yul\":800:805   */\n  dup2\n    /* \"#utility.yul\":783:806   */\n  tag_16\n  jump\t// in\ntag_19:\n    /* \"#utility.yul\":776:781   */\n  dup2\n    /* \"#utility.yul\":773:807   */\n  eq\n    /* \"#utility.yul\":763:765   */\n  tag_20\n  jumpi\n    /* \"#utility.yul\":821:822   */\n  0x00\n    /* \"#utility.yul\":818:819   */\n  dup1\n    /* \"#utility.yul\":811:823   */\n  revert\n    /* \"#utility.yul\":763:765   */\ntag_20:\n    /* \"#utility.yul\":753:831   */\n  pop\n  jump\t// out\n    /* \"@chainlink/contracts/src/v0.8/mocks/VRFCoordinatorV2Mock.sol\":254:6238  contract VRFCoordinatorV2Mock is VRFCoordinatorV2Interface {... */\ntag_6:\n  shr(0xa0, mload(0x80))\n  shr(0xa0, mload(0xa0))\n  codecopy(0x00, dataOffset(sub_0), dataSize(sub_0))\n  0x00\n  assignImmutable(\"0x3eb2168c54efe55c4cbdb296a43e105b049f642f4564f8ff1105d907daa5cafb\")\n  0x00\n  assignImmutable(\"0x813e891db9ebb5feedb432576f28db2295153153caaffe3a14678b71ee46fad1\")\n  return(0x00, dataSize(sub_0))\nstop\n\nsub_0: assembly {\n        /* \"@chainlink/contracts/src/v0.8/mocks/VRFCoordinatorV2Mock.sol\":254:6238  contract VRFCoordinatorV2Mock is VRFCoordinatorV2Interface {... */\n      mstore(0x40, 0x80)\n      callvalue\n      dup1\n      iszero\n      tag_1\n      jumpi\n      0x00\n      dup1\n      revert\n    tag_1:\n      pop\n      jumpi(tag_2, lt(calldatasize, 0x04))\n      shr(0xe0, calldataload(0x00))\n      dup1\n      0x82359740\n      gt\n      tag_16\n      jumpi\n      dup1\n      0xa410347f\n      gt\n      tag_17\n      jumpi\n      dup1\n      0xa410347f\n      eq\n      tag_12\n      jumpi\n      dup1\n      0xa47c7696\n      eq\n      tag_13\n      jumpi\n      dup1\n      0xafc69b53\n      eq\n      tag_14\n      jumpi\n      dup1\n      0xd7ae1d30\n      eq\n      tag_15\n      jumpi\n      jump(tag_2)\n    tag_17:\n      dup1\n      0x82359740\n      eq\n      tag_9\n      jumpi\n      dup1\n      0x9f87fad7\n      eq\n      tag_10\n      jumpi\n      dup1\n      0xa21a23e4\n      eq\n      tag_11\n      jumpi\n      jump(tag_2)\n    tag_16:\n      dup1\n      0x012291\n      eq\n      tag_3\n      jumpi\n      dup1\n      0x04c357cb\n      eq\n      tag_4\n      jumpi\n      dup1\n      0x3d18651e\n      eq\n      tag_5\n      jumpi\n      dup1\n      0x5d3b1d30\n      eq\n      tag_6\n      jumpi\n      dup1\n      0x7341c10c\n      eq\n      tag_7\n      jumpi\n      dup1\n      0x808974ff\n      eq\n      tag_8\n      jumpi\n    tag_2:\n      0x00\n      dup1\n      revert\n        /* \"@chainlink/contracts/src/v0.8/mocks/VRFCoordinatorV2Mock.sol\":5555:5739  function getRequestConfig()... */\n    tag_3:\n      tag_18\n      tag_19\n      jump\t// in\n    tag_18:\n      mload(0x40)\n      tag_20\n      swap4\n      swap3\n      swap2\n      swap1\n      tag_21\n      jump\t// in\n    tag_20:\n      mload(0x40)\n      dup1\n      swap2\n      sub\n      swap1\n      return\n        /* \"@chainlink/contracts/src/v0.8/mocks/VRFCoordinatorV2Mock.sol\":5982:6117  function requestSubscriptionOwnerTransfer(uint64 _subId, address _newOwner) external pure override {... */\n    tag_4:\n      tag_22\n      0x04\n      dup1\n      calldatasize\n      sub\n      dup2\n      add\n      swap1\n      tag_23\n      swap2\n      swap1\n      tag_24\n      jump\t// in\n    tag_23:\n      tag_25\n      jump\t// in\n    tag_22:\n      stop\n        /* \"@chainlink/contracts/src/v0.8/mocks/VRFCoordinatorV2Mock.sol\":317:349  uint96 public immutable BASE_FEE */\n    tag_5:\n      tag_26\n      tag_27\n      jump\t// in\n    tag_26:\n      mload(0x40)\n      tag_28\n      swap2\n      swap1\n      tag_29\n      jump\t// in\n    tag_28:\n      mload(0x40)\n      dup1\n      swap2\n      sub\n      swap1\n      return\n        /* \"@chainlink/contracts/src/v0.8/mocks/VRFCoordinatorV2Mock.sol\":3691:4409  function requestRandomWords(... */\n    tag_6:\n      tag_30\n      0x04\n      dup1\n      calldatasize\n      sub\n      dup2\n      add\n      swap1\n      tag_31\n      swap2\n      swap1\n      tag_32\n      jump\t// in\n    tag_31:\n      tag_33\n      jump\t// in\n    tag_30:\n      mload(0x40)\n      tag_34\n      swap2\n      swap1\n      tag_35\n      jump\t// in\n    tag_34:\n      mload(0x40)\n      dup1\n      swap2\n      sub\n      swap1\n      return\n        /* \"@chainlink/contracts/src/v0.8/mocks/VRFCoordinatorV2Mock.sol\":5743:5857  function addConsumer(uint64 _subId, address _consumer) external pure override {... */\n    tag_7:\n      tag_36\n      0x04\n      dup1\n      calldatasize\n      sub\n      dup2\n      add\n      swap1\n      tag_37\n      swap2\n      swap1\n      tag_24\n      jump\t// in\n    tag_37:\n      tag_38\n      jump\t// in\n    tag_36:\n      stop\n        /* \"@chainlink/contracts/src/v0.8/mocks/VRFCoordinatorV2Mock.sol\":2165:3143  function fulfillRandomWords(uint256 _requestId, address _consumer) external {... */\n    tag_8:\n      tag_39\n      0x04\n      dup1\n      calldatasize\n      sub\n      dup2\n      add\n      swap1\n      tag_40\n      swap2\n      swap1\n      tag_41\n      jump\t// in\n    tag_40:\n      tag_42\n      jump\t// in\n    tag_39:\n      stop\n        /* \"@chainlink/contracts/src/v0.8/mocks/VRFCoordinatorV2Mock.sol\":6121:6236  function acceptSubscriptionOwnerTransfer(uint64 _subId) external pure override {... */\n    tag_9:\n      tag_43\n      0x04\n      dup1\n      calldatasize\n      sub\n      dup2\n      add\n      swap1\n      tag_44\n      swap2\n      swap1\n      tag_45\n      jump\t// in\n    tag_44:\n      tag_46\n      jump\t// in\n    tag_43:\n      stop\n        /* \"@chainlink/contracts/src/v0.8/mocks/VRFCoordinatorV2Mock.sol\":5861:5978  function removeConsumer(uint64 _subId, address _consumer) external pure override {... */\n    tag_10:\n      tag_47\n      0x04\n      dup1\n      calldatasize\n      sub\n      dup2\n      add\n      swap1\n      tag_48\n      swap2\n      swap1\n      tag_24\n      jump\t// in\n    tag_48:\n      tag_49\n      jump\t// in\n    tag_47:\n      stop\n        /* \"@chainlink/contracts/src/v0.8/mocks/VRFCoordinatorV2Mock.sol\":4413:4682  function createSubscription() external override returns (uint64 _subId) {... */\n    tag_11:\n      tag_50\n      tag_51\n      jump\t// in\n    tag_50:\n      mload(0x40)\n      tag_52\n      swap2\n      swap1\n      tag_53\n      jump\t// in\n    tag_52:\n      mload(0x40)\n      dup1\n      swap2\n      sub\n      swap1\n      return\n        /* \"@chainlink/contracts/src/v0.8/mocks/VRFCoordinatorV2Mock.sol\":353:391  uint96 public immutable GAS_PRICE_LINK */\n    tag_12:\n      tag_54\n      tag_55\n      jump\t// in\n    tag_54:\n      mload(0x40)\n      tag_56\n      swap2\n      swap1\n      tag_29\n      jump\t// in\n    tag_56:\n      mload(0x40)\n      dup1\n      swap2\n      sub\n      swap1\n      return\n        /* \"@chainlink/contracts/src/v0.8/mocks/VRFCoordinatorV2Mock.sol\":4686:5082  function getSubscription(uint64 _subId)... */\n    tag_13:\n      tag_57\n      0x04\n      dup1\n      calldatasize\n      sub\n      dup2\n      add\n      swap1\n      tag_58\n      swap2\n      swap1\n      tag_45\n      jump\t// in\n    tag_58:\n      tag_59\n      jump\t// in\n    tag_57:\n      mload(0x40)\n      tag_60\n      swap5\n      swap4\n      swap3\n      swap2\n      swap1\n      tag_61\n      jump\t// in\n    tag_60:\n      mload(0x40)\n      dup1\n      swap2\n      sub\n      swap1\n      return\n        /* \"@chainlink/contracts/src/v0.8/mocks/VRFCoordinatorV2Mock.sol\":3345:3687  function fundSubscription(uint64 _subId, uint96 _amount) public {... */\n    tag_14:\n      tag_62\n      0x04\n      dup1\n      calldatasize\n      sub\n      dup2\n      add\n      swap1\n      tag_63\n      swap2\n      swap1\n      tag_64\n      jump\t// in\n    tag_63:\n      tag_65\n      jump\t// in\n    tag_62:\n      stop\n        /* \"@chainlink/contracts/src/v0.8/mocks/VRFCoordinatorV2Mock.sol\":5086:5301  function cancelSubscription(uint64 _subId, address _to) external override onlySubOwner(_subId) {... */\n    tag_15:\n      tag_66\n      0x04\n      dup1\n      calldatasize\n      sub\n      dup2\n      add\n      swap1\n      tag_67\n      swap2\n      swap1\n      tag_24\n      jump\t// in\n    tag_67:\n      tag_68\n      jump\t// in\n    tag_66:\n      stop\n        /* \"@chainlink/contracts/src/v0.8/mocks/VRFCoordinatorV2Mock.sol\":5555:5739  function getRequestConfig()... */\n    tag_19:\n        /* \"@chainlink/contracts/src/v0.8/mocks/VRFCoordinatorV2Mock.sol\":5638:5644  uint16 */\n      0x00\n        /* \"@chainlink/contracts/src/v0.8/mocks/VRFCoordinatorV2Mock.sol\":5652:5658  uint32 */\n      dup1\n        /* \"@chainlink/contracts/src/v0.8/mocks/VRFCoordinatorV2Mock.sol\":5666:5682  bytes32[] memory */\n      0x60\n        /* \"@chainlink/contracts/src/v0.8/mocks/VRFCoordinatorV2Mock.sol\":5705:5706  3 */\n      0x03\n        /* \"@chainlink/contracts/src/v0.8/mocks/VRFCoordinatorV2Mock.sol\":5708:5715  2000000 */\n      0x1e8480\n        /* \"@chainlink/contracts/src/v0.8/mocks/VRFCoordinatorV2Mock.sol\":5731:5732  0 */\n      0x00\n        /* \"@chainlink/contracts/src/v0.8/mocks/VRFCoordinatorV2Mock.sol\":5717:5733  new bytes32[](0) */\n      0xffffffffffffffff\n      dup2\n      gt\n      iszero\n      tag_70\n      jumpi\n      mstore(0x00, 0x4e487b7100000000000000000000000000000000000000000000000000000000)\n      mstore(0x04, 0x41)\n      revert(0x00, 0x24)\n    tag_70:\n      mload(0x40)\n      swap1\n      dup1\n      dup3\n      mstore\n      dup1\n      0x20\n      mul\n      0x20\n      add\n      dup3\n      add\n      0x40\n      mstore\n      dup1\n      iszero\n      tag_71\n      jumpi\n      dup2\n      0x20\n      add\n      0x20\n      dup3\n      mul\n      dup1\n      calldatasize\n      dup4\n      calldatacopy\n      dup1\n      dup3\n      add\n      swap2\n      pop\n      pop\n      swap1\n      pop\n    tag_71:\n      pop\n        /* \"@chainlink/contracts/src/v0.8/mocks/VRFCoordinatorV2Mock.sol\":5697:5734  return (3, 2000000, new bytes32[](0)) */\n      swap3\n      pop\n      swap3\n      pop\n      swap3\n      pop\n        /* \"@chainlink/contracts/src/v0.8/mocks/VRFCoordinatorV2Mock.sol\":5555:5739  function getRequestConfig()... */\n      swap1\n      swap2\n      swap3\n      jump\t// out\n        /* \"@chainlink/contracts/src/v0.8/mocks/VRFCoordinatorV2Mock.sol\":5982:6117  function requestSubscriptionOwnerTransfer(uint64 _subId, address _newOwner) external pure override {... */\n    tag_25:\n        /* \"@chainlink/contracts/src/v0.8/mocks/VRFCoordinatorV2Mock.sol\":6087:6112  revert(\"not implemented\") */\n      mload(0x40)\n      0x08c379a000000000000000000000000000000000000000000000000000000000\n      dup2\n      mstore\n      0x04\n      add\n      tag_73\n      swap1\n      tag_74\n      jump\t// in\n    tag_73:\n      mload(0x40)\n      dup1\n      swap2\n      sub\n      swap1\n      revert\n        /* \"@chainlink/contracts/src/v0.8/mocks/VRFCoordinatorV2Mock.sol\":317:349  uint96 public immutable BASE_FEE */\n    tag_27:\n      immutable(\"0x813e891db9ebb5feedb432576f28db2295153153caaffe3a14678b71ee46fad1\")\n      dup2\n      jump\t// out\n        /* \"@chainlink/contracts/src/v0.8/mocks/VRFCoordinatorV2Mock.sol\":3691:4409  function requestRandomWords(... */\n    tag_33:\n        /* \"@chainlink/contracts/src/v0.8/mocks/VRFCoordinatorV2Mock.sol\":3884:3891  uint256 */\n      0x00\n        /* \"@chainlink/contracts/src/v0.8/mocks/VRFCoordinatorV2Mock.sol\":3944:3945  0 */\n      dup1\n        /* \"@chainlink/contracts/src/v0.8/mocks/VRFCoordinatorV2Mock.sol\":3903:3946  s_subscriptions[_subId].owner == address(0) */\n      0xffffffffffffffffffffffffffffffffffffffff\n      and\n        /* \"@chainlink/contracts/src/v0.8/mocks/VRFCoordinatorV2Mock.sol\":3903:3918  s_subscriptions */\n      0x03\n        /* \"@chainlink/contracts/src/v0.8/mocks/VRFCoordinatorV2Mock.sol\":3903:3926  s_subscriptions[_subId] */\n      0x00\n        /* \"@chainlink/contracts/src/v0.8/mocks/VRFCoordinatorV2Mock.sol\":3919:3925  _subId */\n      dup8\n        /* \"@chainlink/contracts/src/v0.8/mocks/VRFCoordinatorV2Mock.sol\":3903:3926  s_subscriptions[_subId] */\n      0xffffffffffffffff\n      and\n      0xffffffffffffffff\n      and\n      dup2\n      mstore\n      0x20\n      add\n      swap1\n      dup2\n      mstore\n      0x20\n      add\n      0x00\n      keccak256\n        /* \"@chainlink/contracts/src/v0.8/mocks/VRFCoordinatorV2Mock.sol\":3903:3932  s_subscriptions[_subId].owner */\n      0x00\n      add\n      0x00\n      swap1\n      sload\n      swap1\n      0x0100\n      exp\n      swap1\n      div\n      0xffffffffffffffffffffffffffffffffffffffff\n      and\n        /* \"@chainlink/contracts/src/v0.8/mocks/VRFCoordinatorV2Mock.sol\":3903:3946  s_subscriptions[_subId].owner == address(0) */\n      0xffffffffffffffffffffffffffffffffffffffff\n      and\n      eq\n        /* \"@chainlink/contracts/src/v0.8/mocks/VRFCoordinatorV2Mock.sol\":3899:3991  if (s_subscriptions[_subId].owner == address(0)) {... */\n      iszero\n      tag_76\n      jumpi\n        /* \"@chainlink/contracts/src/v0.8/mocks/VRFCoordinatorV2Mock.sol\":3963:3984  InvalidSubscription() */\n      mload(0x40)\n      0x1f6a65b600000000000000000000000000000000000000000000000000000000\n      dup2\n      mstore\n      0x04\n      add\n      mload(0x40)\n      dup1\n      swap2\n      sub\n      swap1\n      revert\n        /* \"@chainlink/contracts/src/v0.8/mocks/VRFCoordinatorV2Mock.sol\":3899:3991  if (s_subscriptions[_subId].owner == address(0)) {... */\n    tag_76:\n        /* \"@chainlink/contracts/src/v0.8/mocks/VRFCoordinatorV2Mock.sol\":3997:4014  uint256 requestId */\n      0x00\n        /* \"@chainlink/contracts/src/v0.8/mocks/VRFCoordinatorV2Mock.sol\":4017:4032  s_nextRequestId */\n      0x01\n      0x00\n        /* \"@chainlink/contracts/src/v0.8/mocks/VRFCoordinatorV2Mock.sol\":4017:4034  s_nextRequestId++ */\n      dup2\n      sload\n      dup1\n      swap3\n      swap2\n      swap1\n      tag_77\n      swap1\n      tag_78\n      jump\t// in\n    tag_77:\n      swap2\n      swap1\n      pop\n      sstore\n        /* \"@chainlink/contracts/src/v0.8/mocks/VRFCoordinatorV2Mock.sol\":3997:4034  uint256 requestId = s_nextRequestId++ */\n      swap1\n      pop\n        /* \"@chainlink/contracts/src/v0.8/mocks/VRFCoordinatorV2Mock.sol\":4040:4055  uint256 preSeed */\n      0x00\n        /* \"@chainlink/contracts/src/v0.8/mocks/VRFCoordinatorV2Mock.sol\":4058:4071  s_nextPreSeed */\n      0x02\n      0x00\n        /* \"@chainlink/contracts/src/v0.8/mocks/VRFCoordinatorV2Mock.sol\":4058:4073  s_nextPreSeed++ */\n      dup2\n      sload\n      dup1\n      swap3\n      swap2\n      swap1\n      tag_79\n      swap1\n      tag_78\n      jump\t// in\n    tag_79:\n      swap2\n      swap1\n      pop\n      sstore\n        /* \"@chainlink/contracts/src/v0.8/mocks/VRFCoordinatorV2Mock.sol\":4040:4073  uint256 preSeed = s_nextPreSeed++ */\n      swap1\n      pop\n        /* \"@chainlink/contracts/src/v0.8/mocks/VRFCoordinatorV2Mock.sol\":4104:4186  Request({subId: _subId, callbackGasLimit: _callbackGasLimit, numWords: _numWords}) */\n      mload(0x40)\n      dup1\n      0x60\n      add\n      0x40\n      mstore\n      dup1\n        /* \"@chainlink/contracts/src/v0.8/mocks/VRFCoordinatorV2Mock.sol\":4120:4126  _subId */\n      dup9\n        /* \"@chainlink/contracts/src/v0.8/mocks/VRFCoordinatorV2Mock.sol\":4104:4186  Request({subId: _subId, callbackGasLimit: _callbackGasLimit, numWords: _numWords}) */\n      0xffffffffffffffff\n      and\n      dup2\n      mstore\n      0x20\n      add\n        /* \"@chainlink/contracts/src/v0.8/mocks/VRFCoordinatorV2Mock.sol\":4146:4163  _callbackGasLimit */\n      dup7\n        /* \"@chainlink/contracts/src/v0.8/mocks/VRFCoordinatorV2Mock.sol\":4104:4186  Request({subId: _subId, callbackGasLimit: _callbackGasLimit, numWords: _numWords}) */\n      0xffffffff\n      and\n      dup2\n      mstore\n      0x20\n      add\n        /* \"@chainlink/contracts/src/v0.8/mocks/VRFCoordinatorV2Mock.sol\":4175:4184  _numWords */\n      dup6\n        /* \"@chainlink/contracts/src/v0.8/mocks/VRFCoordinatorV2Mock.sol\":4104:4186  Request({subId: _subId, callbackGasLimit: _callbackGasLimit, numWords: _numWords}) */\n      0xffffffff\n      and\n      dup2\n      mstore\n      pop\n        /* \"@chainlink/contracts/src/v0.8/mocks/VRFCoordinatorV2Mock.sol\":4080:4090  s_requests */\n      0x04\n        /* \"@chainlink/contracts/src/v0.8/mocks/VRFCoordinatorV2Mock.sol\":4080:4101  s_requests[requestId] */\n      0x00\n        /* \"@chainlink/contracts/src/v0.8/mocks/VRFCoordinatorV2Mock.sol\":4091:4100  requestId */\n      dup5\n        /* \"@chainlink/contracts/src/v0.8/mocks/VRFCoordinatorV2Mock.sol\":4080:4101  s_requests[requestId] */\n      dup2\n      mstore\n      0x20\n      add\n      swap1\n      dup2\n      mstore\n      0x20\n      add\n      0x00\n      keccak256\n        /* \"@chainlink/contracts/src/v0.8/mocks/VRFCoordinatorV2Mock.sol\":4080:4186  s_requests[requestId] = Request({subId: _subId, callbackGasLimit: _callbackGasLimit, numWords: _numWords}) */\n      0x00\n      dup3\n      add\n      mload\n      dup2\n      0x00\n      add\n      exp(0x0100, 0x00)\n      dup2\n      sload\n      dup2\n      0xffffffffffffffff\n      mul\n      not\n      and\n      swap1\n      dup4\n      0xffffffffffffffff\n      and\n      mul\n      or\n      swap1\n      sstore\n      pop\n      0x20\n      dup3\n      add\n      mload\n      dup2\n      0x00\n      add\n      exp(0x0100, 0x08)\n      dup2\n      sload\n      dup2\n      0xffffffff\n      mul\n      not\n      and\n      swap1\n      dup4\n      0xffffffff\n      and\n      mul\n      or\n      swap1\n      sstore\n      pop\n      0x40\n      dup3\n      add\n      mload\n      dup2\n      0x00\n      add\n      exp(0x0100, 0x0c)\n      dup2\n      sload\n      dup2\n      0xffffffff\n      mul\n      not\n      and\n      swap1\n      dup4\n      0xffffffff\n      and\n      mul\n      or\n      swap1\n      sstore\n      pop\n      swap1\n      pop\n      pop\n        /* \"@chainlink/contracts/src/v0.8/mocks/VRFCoordinatorV2Mock.sol\":4366:4376  msg.sender */\n      caller\n        /* \"@chainlink/contracts/src/v0.8/mocks/VRFCoordinatorV2Mock.sol\":4198:4382  RandomWordsRequested(... */\n      0xffffffffffffffffffffffffffffffffffffffff\n      and\n        /* \"@chainlink/contracts/src/v0.8/mocks/VRFCoordinatorV2Mock.sol\":4274:4280  _subId */\n      dup8\n        /* \"@chainlink/contracts/src/v0.8/mocks/VRFCoordinatorV2Mock.sol\":4198:4382  RandomWordsRequested(... */\n      0xffffffffffffffff\n      and\n        /* \"@chainlink/contracts/src/v0.8/mocks/VRFCoordinatorV2Mock.sol\":4226:4234  _keyHash */\n      dup10\n        /* \"@chainlink/contracts/src/v0.8/mocks/VRFCoordinatorV2Mock.sol\":4198:4382  RandomWordsRequested(... */\n      0x63373d1c4696214b898952999c9aaec57dac1ee2723cec59bea6888f489a9772\n        /* \"@chainlink/contracts/src/v0.8/mocks/VRFCoordinatorV2Mock.sol\":4242:4251  requestId */\n      dup6\n        /* \"@chainlink/contracts/src/v0.8/mocks/VRFCoordinatorV2Mock.sol\":4259:4266  preSeed */\n      dup6\n        /* \"@chainlink/contracts/src/v0.8/mocks/VRFCoordinatorV2Mock.sol\":4288:4316  _minimumRequestConfirmations */\n      dup12\n        /* \"@chainlink/contracts/src/v0.8/mocks/VRFCoordinatorV2Mock.sol\":4324:4341  _callbackGasLimit */\n      dup12\n        /* \"@chainlink/contracts/src/v0.8/mocks/VRFCoordinatorV2Mock.sol\":4349:4358  _numWords */\n      dup12\n        /* \"@chainlink/contracts/src/v0.8/mocks/VRFCoordinatorV2Mock.sol\":4198:4382  RandomWordsRequested(... */\n      mload(0x40)\n      tag_80\n      swap6\n      swap5\n      swap4\n      swap3\n      swap2\n      swap1\n      tag_81\n      jump\t// in\n    tag_80:\n      mload(0x40)\n      dup1\n      swap2\n      sub\n      swap1\n      log4\n        /* \"@chainlink/contracts/src/v0.8/mocks/VRFCoordinatorV2Mock.sol\":4395:4404  requestId */\n      dup2\n        /* \"@chainlink/contracts/src/v0.8/mocks/VRFCoordinatorV2Mock.sol\":4388:4404  return requestId */\n      swap3\n      pop\n      pop\n      pop\n        /* \"@chainlink/contracts/src/v0.8/mocks/VRFCoordinatorV2Mock.sol\":3691:4409  function requestRandomWords(... */\n      swap6\n      swap5\n      pop\n      pop\n      pop\n      pop\n      pop\n      jump\t// out\n        /* \"@chainlink/contracts/src/v0.8/mocks/VRFCoordinatorV2Mock.sol\":5743:5857  function addConsumer(uint64 _subId, address _consumer) external pure override {... */\n    tag_38:\n        /* \"@chainlink/contracts/src/v0.8/mocks/VRFCoordinatorV2Mock.sol\":5827:5852  revert(\"not implemented\") */\n      mload(0x40)\n      0x08c379a000000000000000000000000000000000000000000000000000000000\n      dup2\n      mstore\n      0x04\n      add\n      tag_83\n      swap1\n      tag_74\n      jump\t// in\n    tag_83:\n      mload(0x40)\n      dup1\n      swap2\n      sub\n      swap1\n      revert\n        /* \"@chainlink/contracts/src/v0.8/mocks/VRFCoordinatorV2Mock.sol\":2165:3143  function fulfillRandomWords(uint256 _requestId, address _consumer) external {... */\n    tag_42:\n        /* \"@chainlink/contracts/src/v0.8/mocks/VRFCoordinatorV2Mock.sol\":2247:2263  uint256 startGas */\n      0x00\n        /* \"@chainlink/contracts/src/v0.8/mocks/VRFCoordinatorV2Mock.sol\":2266:2275  gasleft() */\n      gas\n        /* \"@chainlink/contracts/src/v0.8/mocks/VRFCoordinatorV2Mock.sol\":2247:2275  uint256 startGas = gasleft() */\n      swap1\n      pop\n        /* \"@chainlink/contracts/src/v0.8/mocks/VRFCoordinatorV2Mock.sol\":2317:2318  0 */\n      0x00\n        /* \"@chainlink/contracts/src/v0.8/mocks/VRFCoordinatorV2Mock.sol\":2285:2295  s_requests */\n      0x04\n        /* \"@chainlink/contracts/src/v0.8/mocks/VRFCoordinatorV2Mock.sol\":2285:2307  s_requests[_requestId] */\n      0x00\n        /* \"@chainlink/contracts/src/v0.8/mocks/VRFCoordinatorV2Mock.sol\":2296:2306  _requestId */\n      dup6\n        /* \"@chainlink/contracts/src/v0.8/mocks/VRFCoordinatorV2Mock.sol\":2285:2307  s_requests[_requestId] */\n      dup2\n      mstore\n      0x20\n      add\n      swap1\n      dup2\n      mstore\n      0x20\n      add\n      0x00\n      keccak256\n        /* \"@chainlink/contracts/src/v0.8/mocks/VRFCoordinatorV2Mock.sol\":2285:2313  s_requests[_requestId].subId */\n      0x00\n      add\n      0x00\n      swap1\n      sload\n      swap1\n      0x0100\n      exp\n      swap1\n      div\n      0xffffffffffffffff\n      and\n        /* \"@chainlink/contracts/src/v0.8/mocks/VRFCoordinatorV2Mock.sol\":2285:2318  s_requests[_requestId].subId == 0 */\n      0xffffffffffffffff\n      and\n      eq\n        /* \"@chainlink/contracts/src/v0.8/mocks/VRFCoordinatorV2Mock.sol\":2281:2364  if (s_requests[_requestId].subId == 0) {... */\n      iszero\n      tag_85\n      jumpi\n        /* \"@chainlink/contracts/src/v0.8/mocks/VRFCoordinatorV2Mock.sol\":2328:2357  revert(\"nonexistent request\") */\n      mload(0x40)\n      0x08c379a000000000000000000000000000000000000000000000000000000000\n      dup2\n      mstore\n      0x04\n      add\n      tag_86\n      swap1\n      tag_87\n      jump\t// in\n    tag_86:\n      mload(0x40)\n      dup1\n      swap2\n      sub\n      swap1\n      revert\n        /* \"@chainlink/contracts/src/v0.8/mocks/VRFCoordinatorV2Mock.sol\":2281:2364  if (s_requests[_requestId].subId == 0) {... */\n    tag_85:\n        /* \"@chainlink/contracts/src/v0.8/mocks/VRFCoordinatorV2Mock.sol\":2369:2387  Request memory req */\n      0x00\n        /* \"@chainlink/contracts/src/v0.8/mocks/VRFCoordinatorV2Mock.sol\":2390:2400  s_requests */\n      0x04\n        /* \"@chainlink/contracts/src/v0.8/mocks/VRFCoordinatorV2Mock.sol\":2390:2412  s_requests[_requestId] */\n      0x00\n        /* \"@chainlink/contracts/src/v0.8/mocks/VRFCoordinatorV2Mock.sol\":2401:2411  _requestId */\n      dup6\n        /* \"@chainlink/contracts/src/v0.8/mocks/VRFCoordinatorV2Mock.sol\":2390:2412  s_requests[_requestId] */\n      dup2\n      mstore\n      0x20\n      add\n      swap1\n      dup2\n      mstore\n      0x20\n      add\n      0x00\n      keccak256\n        /* \"@chainlink/contracts/src/v0.8/mocks/VRFCoordinatorV2Mock.sol\":2369:2412  Request memory req = s_requests[_requestId] */\n      mload(0x40)\n      dup1\n      0x60\n      add\n      0x40\n      mstore\n      swap1\n      dup2\n      0x00\n      dup3\n      add\n      0x00\n      swap1\n      sload\n      swap1\n      0x0100\n      exp\n      swap1\n      div\n      0xffffffffffffffff\n      and\n      0xffffffffffffffff\n      and\n      0xffffffffffffffff\n      and\n      dup2\n      mstore\n      0x20\n      add\n      0x00\n      dup3\n      add\n      0x08\n      swap1\n      sload\n      swap1\n      0x0100\n      exp\n      swap1\n      div\n      0xffffffff\n      and\n      0xffffffff\n      and\n      0xffffffff\n      and\n      dup2\n      mstore\n      0x20\n      add\n      0x00\n      dup3\n      add\n      0x0c\n      swap1\n      sload\n      swap1\n      0x0100\n      exp\n      swap1\n      div\n      0xffffffff\n      and\n      0xffffffff\n      and\n      0xffffffff\n      and\n      dup2\n      mstore\n      pop\n      pop\n      swap1\n      pop\n        /* \"@chainlink/contracts/src/v0.8/mocks/VRFCoordinatorV2Mock.sol\":2419:2441  uint256[] memory words */\n      0x00\n        /* \"@chainlink/contracts/src/v0.8/mocks/VRFCoordinatorV2Mock.sol\":2458:2461  req */\n      dup2\n        /* \"@chainlink/contracts/src/v0.8/mocks/VRFCoordinatorV2Mock.sol\":2458:2470  req.numWords */\n      0x40\n      add\n      mload\n        /* \"@chainlink/contracts/src/v0.8/mocks/VRFCoordinatorV2Mock.sol\":2444:2471  new uint256[](req.numWords) */\n      0xffffffff\n      and\n      0xffffffffffffffff\n      dup2\n      gt\n      iszero\n      tag_88\n      jumpi\n      mstore(0x00, 0x4e487b7100000000000000000000000000000000000000000000000000000000)\n      mstore(0x04, 0x41)\n      revert(0x00, 0x24)\n    tag_88:\n      mload(0x40)\n      swap1\n      dup1\n      dup3\n      mstore\n      dup1\n      0x20\n      mul\n      0x20\n      add\n      dup3\n      add\n      0x40\n      mstore\n      dup1\n      iszero\n      tag_89\n      jumpi\n      dup2\n      0x20\n      add\n      0x20\n      dup3\n      mul\n      dup1\n      calldatasize\n      dup4\n      calldatacopy\n      dup1\n      dup3\n      add\n      swap2\n      pop\n      pop\n      swap1\n      pop\n    tag_89:\n      pop\n        /* \"@chainlink/contracts/src/v0.8/mocks/VRFCoordinatorV2Mock.sol\":2419:2471  uint256[] memory words = new uint256[](req.numWords) */\n      swap1\n      pop\n        /* \"@chainlink/contracts/src/v0.8/mocks/VRFCoordinatorV2Mock.sol\":2482:2491  uint256 i */\n      0x00\n        /* \"@chainlink/contracts/src/v0.8/mocks/VRFCoordinatorV2Mock.sol\":2477:2591  for (uint256 i = 0; i < req.numWords; i++) {... */\n    tag_90:\n        /* \"@chainlink/contracts/src/v0.8/mocks/VRFCoordinatorV2Mock.sol\":2501:2504  req */\n      dup3\n        /* \"@chainlink/contracts/src/v0.8/mocks/VRFCoordinatorV2Mock.sol\":2501:2513  req.numWords */\n      0x40\n      add\n      mload\n        /* \"@chainlink/contracts/src/v0.8/mocks/VRFCoordinatorV2Mock.sol\":2497:2513  i < req.numWords */\n      0xffffffff\n      and\n        /* \"@chainlink/contracts/src/v0.8/mocks/VRFCoordinatorV2Mock.sol\":2497:2498  i */\n      dup2\n        /* \"@chainlink/contracts/src/v0.8/mocks/VRFCoordinatorV2Mock.sol\":2497:2513  i < req.numWords */\n      lt\n        /* \"@chainlink/contracts/src/v0.8/mocks/VRFCoordinatorV2Mock.sol\":2477:2591  for (uint256 i = 0; i < req.numWords; i++) {... */\n      iszero\n      tag_91\n      jumpi\n        /* \"@chainlink/contracts/src/v0.8/mocks/VRFCoordinatorV2Mock.sol\":2568:2578  _requestId */\n      dup6\n        /* \"@chainlink/contracts/src/v0.8/mocks/VRFCoordinatorV2Mock.sol\":2580:2581  i */\n      dup2\n        /* \"@chainlink/contracts/src/v0.8/mocks/VRFCoordinatorV2Mock.sol\":2557:2582  abi.encode(_requestId, i) */\n      add(0x20, mload(0x40))\n      tag_93\n      swap3\n      swap2\n      swap1\n      tag_94\n      jump\t// in\n    tag_93:\n      mload(0x40)\n      0x20\n      dup2\n      dup4\n      sub\n      sub\n      dup2\n      mstore\n      swap1\n      0x40\n      mstore\n        /* \"@chainlink/contracts/src/v0.8/mocks/VRFCoordinatorV2Mock.sol\":2547:2583  keccak256(abi.encode(_requestId, i)) */\n      dup1\n      mload\n      swap1\n      0x20\n      add\n      keccak256\n        /* \"@chainlink/contracts/src/v0.8/mocks/VRFCoordinatorV2Mock.sol\":2539:2584  uint256(keccak256(abi.encode(_requestId, i))) */\n      0x00\n      shr\n        /* \"@chainlink/contracts/src/v0.8/mocks/VRFCoordinatorV2Mock.sol\":2528:2533  words */\n      dup3\n        /* \"@chainlink/contracts/src/v0.8/mocks/VRFCoordinatorV2Mock.sol\":2534:2535  i */\n      dup3\n        /* \"@chainlink/contracts/src/v0.8/mocks/VRFCoordinatorV2Mock.sol\":2528:2536  words[i] */\n      dup2\n      mload\n      dup2\n      lt\n      tag_95\n      jumpi\n      mstore(0x00, 0x4e487b7100000000000000000000000000000000000000000000000000000000)\n      mstore(0x04, 0x32)\n      revert(0x00, 0x24)\n    tag_95:\n      0x20\n      mul\n      0x20\n      add\n      add\n        /* \"@chainlink/contracts/src/v0.8/mocks/VRFCoordinatorV2Mock.sol\":2528:2584  words[i] = uint256(keccak256(abi.encode(_requestId, i))) */\n      dup2\n      dup2\n      mstore\n      pop\n      pop\n        /* \"@chainlink/contracts/src/v0.8/mocks/VRFCoordinatorV2Mock.sol\":2515:2518  i++ */\n      dup1\n      dup1\n      tag_96\n      swap1\n      tag_78\n      jump\t// in\n    tag_96:\n      swap2\n      pop\n      pop\n        /* \"@chainlink/contracts/src/v0.8/mocks/VRFCoordinatorV2Mock.sol\":2477:2591  for (uint256 i = 0; i < req.numWords; i++) {... */\n      jump(tag_90)\n    tag_91:\n      pop\n        /* \"@chainlink/contracts/src/v0.8/mocks/VRFCoordinatorV2Mock.sol\":2597:2616  VRFConsumerBaseV2 v */\n      0x00\n        /* \"@chainlink/contracts/src/v0.8/mocks/VRFCoordinatorV2Mock.sol\":2622:2642  bytes memory callReq */\n      dup1\n        /* \"@chainlink/contracts/src/v0.8/mocks/VRFCoordinatorV2Mock.sol\":2668:2700  v.rawFulfillRandomWords.selector */\n      shl(0xe0, 0x1fe543e3)\n        /* \"@chainlink/contracts/src/v0.8/mocks/VRFCoordinatorV2Mock.sol\":2702:2712  _requestId */\n      dup8\n        /* \"@chainlink/contracts/src/v0.8/mocks/VRFCoordinatorV2Mock.sol\":2714:2719  words */\n      dup5\n        /* \"@chainlink/contracts/src/v0.8/mocks/VRFCoordinatorV2Mock.sol\":2645:2720  abi.encodeWithSelector(v.rawFulfillRandomWords.selector, _requestId, words) */\n      add(0x24, mload(0x40))\n      tag_97\n      swap3\n      swap2\n      swap1\n      tag_98\n      jump\t// in\n    tag_97:\n      mload(0x40)\n      0x20\n      dup2\n      dup4\n      sub\n      sub\n      dup2\n      mstore\n      swap1\n      0x40\n      mstore\n      swap1\n      not(0xffffffffffffffffffffffffffffffffffffffffffffffffffffffff)\n      and\n      0x20\n      dup3\n      add\n      dup1\n      mload\n      0xffffffffffffffffffffffffffffffffffffffffffffffffffffffff\n      dup4\n      dup2\n      dup4\n      and\n      or\n      dup4\n      mstore\n      pop\n      pop\n      pop\n      pop\n        /* \"@chainlink/contracts/src/v0.8/mocks/VRFCoordinatorV2Mock.sol\":2622:2720  bytes memory callReq = abi.encodeWithSelector(v.rawFulfillRandomWords.selector, _requestId, words) */\n      swap1\n      pop\n        /* \"@chainlink/contracts/src/v0.8/mocks/VRFCoordinatorV2Mock.sol\":2727:2739  bool success */\n      0x00\n        /* \"@chainlink/contracts/src/v0.8/mocks/VRFCoordinatorV2Mock.sol\":2745:2754  _consumer */\n      dup7\n        /* \"@chainlink/contracts/src/v0.8/mocks/VRFCoordinatorV2Mock.sol\":2745:2759  _consumer.call */\n      0xffffffffffffffffffffffffffffffffffffffff\n      and\n        /* \"@chainlink/contracts/src/v0.8/mocks/VRFCoordinatorV2Mock.sol\":2765:2768  req */\n      dup6\n        /* \"@chainlink/contracts/src/v0.8/mocks/VRFCoordinatorV2Mock.sol\":2765:2785  req.callbackGasLimit */\n      0x20\n      add\n      mload\n        /* \"@chainlink/contracts/src/v0.8/mocks/VRFCoordinatorV2Mock.sol\":2745:2795  _consumer.call{gas: req.callbackGasLimit}(callReq) */\n      0xffffffff\n      and\n        /* \"@chainlink/contracts/src/v0.8/mocks/VRFCoordinatorV2Mock.sol\":2787:2794  callReq */\n      dup4\n        /* \"@chainlink/contracts/src/v0.8/mocks/VRFCoordinatorV2Mock.sol\":2745:2795  _consumer.call{gas: req.callbackGasLimit}(callReq) */\n      mload(0x40)\n      tag_99\n      swap2\n      swap1\n      tag_100\n      jump\t// in\n    tag_99:\n      0x00\n      mload(0x40)\n      dup1\n      dup4\n      sub\n      dup2\n      0x00\n      dup8\n      dup8\n      call\n      swap3\n      pop\n      pop\n      pop\n      returndatasize\n      dup1\n      0x00\n      dup2\n      eq\n      tag_103\n      jumpi\n      mload(0x40)\n      swap2\n      pop\n      and(add(returndatasize, 0x3f), not(0x1f))\n      dup3\n      add\n      0x40\n      mstore\n      returndatasize\n      dup3\n      mstore\n      returndatasize\n      0x00\n      0x20\n      dup5\n      add\n      returndatacopy\n      jump(tag_102)\n    tag_103:\n      0x60\n      swap2\n      pop\n    tag_102:\n      pop\n        /* \"@chainlink/contracts/src/v0.8/mocks/VRFCoordinatorV2Mock.sol\":2726:2795  (bool success, ) = _consumer.call{gas: req.callbackGasLimit}(callReq) */\n      pop\n      swap1\n      pop\n        /* \"@chainlink/contracts/src/v0.8/mocks/VRFCoordinatorV2Mock.sol\":2802:2816  uint96 payment */\n      0x00\n        /* \"@chainlink/contracts/src/v0.8/mocks/VRFCoordinatorV2Mock.sol\":2863:2877  GAS_PRICE_LINK */\n      immutable(\"0x3eb2168c54efe55c4cbdb296a43e105b049f642f4564f8ff1105d907daa5cafb\")\n        /* \"@chainlink/contracts/src/v0.8/mocks/VRFCoordinatorV2Mock.sol\":2838:2877  (startGas - gasleft()) * GAS_PRICE_LINK */\n      0xffffffffffffffffffffffff\n      and\n        /* \"@chainlink/contracts/src/v0.8/mocks/VRFCoordinatorV2Mock.sol\":2850:2859  gasleft() */\n      gas\n        /* \"@chainlink/contracts/src/v0.8/mocks/VRFCoordinatorV2Mock.sol\":2839:2847  startGas */\n      dup9\n        /* \"@chainlink/contracts/src/v0.8/mocks/VRFCoordinatorV2Mock.sol\":2839:2859  startGas - gasleft() */\n      tag_104\n      swap2\n      swap1\n      tag_105\n      jump\t// in\n    tag_104:\n        /* \"@chainlink/contracts/src/v0.8/mocks/VRFCoordinatorV2Mock.sol\":2838:2877  (startGas - gasleft()) * GAS_PRICE_LINK */\n      tag_106\n      swap2\n      swap1\n      tag_107\n      jump\t// in\n    tag_106:\n        /* \"@chainlink/contracts/src/v0.8/mocks/VRFCoordinatorV2Mock.sol\":2826:2834  BASE_FEE */\n      immutable(\"0x813e891db9ebb5feedb432576f28db2295153153caaffe3a14678b71ee46fad1\")\n        /* \"@chainlink/contracts/src/v0.8/mocks/VRFCoordinatorV2Mock.sol\":2826:2878  BASE_FEE + ((startGas - gasleft()) * GAS_PRICE_LINK) */\n      0xffffffffffffffffffffffff\n      and\n      tag_108\n      swap2\n      swap1\n      tag_109\n      jump\t// in\n    tag_108:\n        /* \"@chainlink/contracts/src/v0.8/mocks/VRFCoordinatorV2Mock.sol\":2802:2879  uint96 payment = uint96(BASE_FEE + ((startGas - gasleft()) * GAS_PRICE_LINK)) */\n      swap1\n      pop\n        /* \"@chainlink/contracts/src/v0.8/mocks/VRFCoordinatorV2Mock.sol\":2926:2933  payment */\n      dup1\n        /* \"@chainlink/contracts/src/v0.8/mocks/VRFCoordinatorV2Mock.sol\":2889:2933  s_subscriptions[req.subId].balance < payment */\n      0xffffffffffffffffffffffff\n      and\n        /* \"@chainlink/contracts/src/v0.8/mocks/VRFCoordinatorV2Mock.sol\":2889:2904  s_subscriptions */\n      0x03\n        /* \"@chainlink/contracts/src/v0.8/mocks/VRFCoordinatorV2Mock.sol\":2889:2915  s_subscriptions[req.subId] */\n      0x00\n        /* \"@chainlink/contracts/src/v0.8/mocks/VRFCoordinatorV2Mock.sol\":2905:2908  req */\n      dup9\n        /* \"@chainlink/contracts/src/v0.8/mocks/VRFCoordinatorV2Mock.sol\":2905:2914  req.subId */\n      0x00\n      add\n      mload\n        /* \"@chainlink/contracts/src/v0.8/mocks/VRFCoordinatorV2Mock.sol\":2889:2915  s_subscriptions[req.subId] */\n      0xffffffffffffffff\n      and\n      0xffffffffffffffff\n      and\n      dup2\n      mstore\n      0x20\n      add\n      swap1\n      dup2\n      mstore\n      0x20\n      add\n      0x00\n      keccak256\n        /* \"@chainlink/contracts/src/v0.8/mocks/VRFCoordinatorV2Mock.sol\":2889:2923  s_subscriptions[req.subId].balance */\n      0x00\n      add\n      0x14\n      swap1\n      sload\n      swap1\n      0x0100\n      exp\n      swap1\n      div\n      0xffffffffffffffffffffffff\n      and\n        /* \"@chainlink/contracts/src/v0.8/mocks/VRFCoordinatorV2Mock.sol\":2889:2933  s_subscriptions[req.subId].balance < payment */\n      0xffffffffffffffffffffffff\n      and\n      lt\n        /* \"@chainlink/contracts/src/v0.8/mocks/VRFCoordinatorV2Mock.sol\":2885:2978  if (s_subscriptions[req.subId].balance < payment) {... */\n      iszero\n      tag_110\n      jumpi\n        /* \"@chainlink/contracts/src/v0.8/mocks/VRFCoordinatorV2Mock.sol\":2950:2971  InsufficientBalance() */\n      mload(0x40)\n      0xf4d678b800000000000000000000000000000000000000000000000000000000\n      dup2\n      mstore\n      0x04\n      add\n      mload(0x40)\n      dup1\n      swap2\n      sub\n      swap1\n      revert\n        /* \"@chainlink/contracts/src/v0.8/mocks/VRFCoordinatorV2Mock.sol\":2885:2978  if (s_subscriptions[req.subId].balance < payment) {... */\n    tag_110:\n        /* \"@chainlink/contracts/src/v0.8/mocks/VRFCoordinatorV2Mock.sol\":3021:3028  payment */\n      dup1\n        /* \"@chainlink/contracts/src/v0.8/mocks/VRFCoordinatorV2Mock.sol\":2983:2998  s_subscriptions */\n      0x03\n        /* \"@chainlink/contracts/src/v0.8/mocks/VRFCoordinatorV2Mock.sol\":2983:3009  s_subscriptions[req.subId] */\n      0x00\n        /* \"@chainlink/contracts/src/v0.8/mocks/VRFCoordinatorV2Mock.sol\":2999:3002  req */\n      dup9\n        /* \"@chainlink/contracts/src/v0.8/mocks/VRFCoordinatorV2Mock.sol\":2999:3008  req.subId */\n      0x00\n      add\n      mload\n        /* \"@chainlink/contracts/src/v0.8/mocks/VRFCoordinatorV2Mock.sol\":2983:3009  s_subscriptions[req.subId] */\n      0xffffffffffffffff\n      and\n      0xffffffffffffffff\n      and\n      dup2\n      mstore\n      0x20\n      add\n      swap1\n      dup2\n      mstore\n      0x20\n      add\n      0x00\n      keccak256\n        /* \"@chainlink/contracts/src/v0.8/mocks/VRFCoordinatorV2Mock.sol\":2983:3017  s_subscriptions[req.subId].balance */\n      0x00\n      add\n      0x14\n        /* \"@chainlink/contracts/src/v0.8/mocks/VRFCoordinatorV2Mock.sol\":2983:3028  s_subscriptions[req.subId].balance -= payment */\n      dup3\n      dup3\n      dup3\n      swap1\n      sload\n      swap1\n      0x0100\n      exp\n      swap1\n      div\n      0xffffffffffffffffffffffff\n      and\n      tag_111\n      swap2\n      swap1\n      tag_112\n      jump\t// in\n    tag_111:\n      swap3\n      pop\n      0x0100\n      exp\n      dup2\n      sload\n      dup2\n      0xffffffffffffffffffffffff\n      mul\n      not\n      and\n      swap1\n      dup4\n      0xffffffffffffffffffffffff\n      and\n      mul\n      or\n      swap1\n      sstore\n      pop\n        /* \"@chainlink/contracts/src/v0.8/mocks/VRFCoordinatorV2Mock.sol\":3042:3052  s_requests */\n      0x04\n        /* \"@chainlink/contracts/src/v0.8/mocks/VRFCoordinatorV2Mock.sol\":3042:3064  s_requests[_requestId] */\n      0x00\n        /* \"@chainlink/contracts/src/v0.8/mocks/VRFCoordinatorV2Mock.sol\":3053:3063  _requestId */\n      dup11\n        /* \"@chainlink/contracts/src/v0.8/mocks/VRFCoordinatorV2Mock.sol\":3042:3064  s_requests[_requestId] */\n      dup2\n      mstore\n      0x20\n      add\n      swap1\n      dup2\n      mstore\n      0x20\n      add\n      0x00\n      keccak256\n      0x00\n        /* \"@chainlink/contracts/src/v0.8/mocks/VRFCoordinatorV2Mock.sol\":3034:3065  delete (s_requests[_requestId]) */\n      dup1\n      dup3\n      add\n      exp(0x0100, 0x00)\n      dup2\n      sload\n      swap1\n      0xffffffffffffffff\n      mul\n      not\n      and\n      swap1\n      sstore\n      0x00\n      dup3\n      add\n      exp(0x0100, 0x08)\n      dup2\n      sload\n      swap1\n      0xffffffff\n      mul\n      not\n      and\n      swap1\n      sstore\n      0x00\n      dup3\n      add\n      exp(0x0100, 0x0c)\n      dup2\n      sload\n      swap1\n      0xffffffff\n      mul\n      not\n      and\n      swap1\n      sstore\n      pop\n      pop\n        /* \"@chainlink/contracts/src/v0.8/mocks/VRFCoordinatorV2Mock.sol\":3097:3107  _requestId */\n      dup9\n        /* \"@chainlink/contracts/src/v0.8/mocks/VRFCoordinatorV2Mock.sol\":3076:3138  RandomWordsFulfilled(_requestId, _requestId, payment, success) */\n      0x7dffc5ae5ee4e2e4df1651cf6ad329a73cebdb728f37ea0187b9b17e036756e4\n        /* \"@chainlink/contracts/src/v0.8/mocks/VRFCoordinatorV2Mock.sol\":3109:3119  _requestId */\n      dup11\n        /* \"@chainlink/contracts/src/v0.8/mocks/VRFCoordinatorV2Mock.sol\":3121:3128  payment */\n      dup4\n        /* \"@chainlink/contracts/src/v0.8/mocks/VRFCoordinatorV2Mock.sol\":3130:3137  success */\n      dup6\n        /* \"@chainlink/contracts/src/v0.8/mocks/VRFCoordinatorV2Mock.sol\":3076:3138  RandomWordsFulfilled(_requestId, _requestId, payment, success) */\n      mload(0x40)\n      tag_113\n      swap4\n      swap3\n      swap2\n      swap1\n      tag_114\n      jump\t// in\n    tag_113:\n      mload(0x40)\n      dup1\n      swap2\n      sub\n      swap1\n      log2\n        /* \"@chainlink/contracts/src/v0.8/mocks/VRFCoordinatorV2Mock.sol\":2165:3143  function fulfillRandomWords(uint256 _requestId, address _consumer) external {... */\n      pop\n      pop\n      pop\n      pop\n      pop\n      pop\n      pop\n      pop\n      pop\n      jump\t// out\n        /* \"@chainlink/contracts/src/v0.8/mocks/VRFCoordinatorV2Mock.sol\":6121:6236  function acceptSubscriptionOwnerTransfer(uint64 _subId) external pure override {... */\n    tag_46:\n        /* \"@chainlink/contracts/src/v0.8/mocks/VRFCoordinatorV2Mock.sol\":6206:6231  revert(\"not implemented\") */\n      mload(0x40)\n      0x08c379a000000000000000000000000000000000000000000000000000000000\n      dup2\n      mstore\n      0x04\n      add\n      tag_116\n      swap1\n      tag_74\n      jump\t// in\n    tag_116:\n      mload(0x40)\n      dup1\n      swap2\n      sub\n      swap1\n      revert\n        /* \"@chainlink/contracts/src/v0.8/mocks/VRFCoordinatorV2Mock.sol\":5861:5978  function removeConsumer(uint64 _subId, address _consumer) external pure override {... */\n    tag_49:\n        /* \"@chainlink/contracts/src/v0.8/mocks/VRFCoordinatorV2Mock.sol\":5948:5973  revert(\"not implemented\") */\n      mload(0x40)\n      0x08c379a000000000000000000000000000000000000000000000000000000000\n      dup2\n      mstore\n      0x04\n      add\n      tag_118\n      swap1\n      tag_74\n      jump\t// in\n    tag_118:\n      mload(0x40)\n      dup1\n      swap2\n      sub\n      swap1\n      revert\n        /* \"@chainlink/contracts/src/v0.8/mocks/VRFCoordinatorV2Mock.sol\":4413:4682  function createSubscription() external override returns (uint64 _subId) {... */\n    tag_51:\n        /* \"@chainlink/contracts/src/v0.8/mocks/VRFCoordinatorV2Mock.sol\":4470:4483  uint64 _subId */\n      0x00\n        /* \"@chainlink/contracts/src/v0.8/mocks/VRFCoordinatorV2Mock.sol\":4491:4505  s_currentSubId */\n      dup1\n      0x00\n        /* \"@chainlink/contracts/src/v0.8/mocks/VRFCoordinatorV2Mock.sol\":4491:4507  s_currentSubId++ */\n      dup2\n      dup2\n      swap1\n      sload\n      swap1\n      0x0100\n      exp\n      swap1\n      div\n      0xffffffffffffffff\n      and\n      dup1\n      swap3\n      swap2\n      swap1\n      tag_120\n      swap1\n      tag_121\n      jump\t// in\n    tag_120:\n      swap2\n      swap1\n      0x0100\n      exp\n      dup2\n      sload\n      dup2\n      0xffffffffffffffff\n      mul\n      not\n      and\n      swap1\n      dup4\n      0xffffffffffffffff\n      and\n      mul\n      or\n      swap1\n      sstore\n      pop\n      pop\n        /* \"@chainlink/contracts/src/v0.8/mocks/VRFCoordinatorV2Mock.sol\":4547:4592  Subscription({owner: msg.sender, balance: 0}) */\n      mload(0x40)\n      dup1\n      0x40\n      add\n      0x40\n      mstore\n      dup1\n        /* \"@chainlink/contracts/src/v0.8/mocks/VRFCoordinatorV2Mock.sol\":4568:4578  msg.sender */\n      caller\n        /* \"@chainlink/contracts/src/v0.8/mocks/VRFCoordinatorV2Mock.sol\":4547:4592  Subscription({owner: msg.sender, balance: 0}) */\n      0xffffffffffffffffffffffffffffffffffffffff\n      and\n      dup2\n      mstore\n      0x20\n      add\n        /* \"@chainlink/contracts/src/v0.8/mocks/VRFCoordinatorV2Mock.sol\":4589:4590  0 */\n      0x00\n        /* \"@chainlink/contracts/src/v0.8/mocks/VRFCoordinatorV2Mock.sol\":4547:4592  Subscription({owner: msg.sender, balance: 0}) */\n      0xffffffffffffffffffffffff\n      and\n      dup2\n      mstore\n      pop\n        /* \"@chainlink/contracts/src/v0.8/mocks/VRFCoordinatorV2Mock.sol\":4513:4528  s_subscriptions */\n      0x03\n        /* \"@chainlink/contracts/src/v0.8/mocks/VRFCoordinatorV2Mock.sol\":4513:4544  s_subscriptions[s_currentSubId] */\n      0x00\n        /* \"@chainlink/contracts/src/v0.8/mocks/VRFCoordinatorV2Mock.sol\":4529:4543  s_currentSubId */\n      dup1\n      0x00\n      swap1\n      sload\n      swap1\n      0x0100\n      exp\n      swap1\n      div\n      0xffffffffffffffff\n      and\n        /* \"@chainlink/contracts/src/v0.8/mocks/VRFCoordinatorV2Mock.sol\":4513:4544  s_subscriptions[s_currentSubId] */\n      0xffffffffffffffff\n      and\n      0xffffffffffffffff\n      and\n      dup2\n      mstore\n      0x20\n      add\n      swap1\n      dup2\n      mstore\n      0x20\n      add\n      0x00\n      keccak256\n        /* \"@chainlink/contracts/src/v0.8/mocks/VRFCoordinatorV2Mock.sol\":4513:4592  s_subscriptions[s_currentSubId] = Subscription({owner: msg.sender, balance: 0}) */\n      0x00\n      dup3\n      add\n      mload\n      dup2\n      0x00\n      add\n      exp(0x0100, 0x00)\n      dup2\n      sload\n      dup2\n      0xffffffffffffffffffffffffffffffffffffffff\n      mul\n      not\n      and\n      swap1\n      dup4\n      0xffffffffffffffffffffffffffffffffffffffff\n      and\n      mul\n      or\n      swap1\n      sstore\n      pop\n      0x20\n      dup3\n      add\n      mload\n      dup2\n      0x00\n      add\n      exp(0x0100, 0x14)\n      dup2\n      sload\n      dup2\n      0xffffffffffffffffffffffff\n      mul\n      not\n      and\n      swap1\n      dup4\n      0xffffffffffffffffffffffff\n      and\n      mul\n      or\n      swap1\n      sstore\n      pop\n      swap1\n      pop\n      pop\n        /* \"@chainlink/contracts/src/v0.8/mocks/VRFCoordinatorV2Mock.sol\":4623:4637  s_currentSubId */\n      0x00\n      dup1\n      sload\n      swap1\n      0x0100\n      exp\n      swap1\n      div\n      0xffffffffffffffff\n      and\n        /* \"@chainlink/contracts/src/v0.8/mocks/VRFCoordinatorV2Mock.sol\":4603:4650  SubscriptionCreated(s_currentSubId, msg.sender) */\n      0xffffffffffffffff\n      and\n      0x464722b4166576d3dcbba877b999bc35cf911f4eaf434b7eba68fa113951d0bf\n        /* \"@chainlink/contracts/src/v0.8/mocks/VRFCoordinatorV2Mock.sol\":4639:4649  msg.sender */\n      caller\n        /* \"@chainlink/contracts/src/v0.8/mocks/VRFCoordinatorV2Mock.sol\":4603:4650  SubscriptionCreated(s_currentSubId, msg.sender) */\n      mload(0x40)\n      tag_122\n      swap2\n      swap1\n      tag_123\n      jump\t// in\n    tag_122:\n      mload(0x40)\n      dup1\n      swap2\n      sub\n      swap1\n      log2\n        /* \"@chainlink/contracts/src/v0.8/mocks/VRFCoordinatorV2Mock.sol\":4663:4677  s_currentSubId */\n      0x00\n      dup1\n      sload\n      swap1\n      0x0100\n      exp\n      swap1\n      div\n      0xffffffffffffffff\n      and\n        /* \"@chainlink/contracts/src/v0.8/mocks/VRFCoordinatorV2Mock.sol\":4656:4677  return s_currentSubId */\n      swap1\n      pop\n        /* \"@chainlink/contracts/src/v0.8/mocks/VRFCoordinatorV2Mock.sol\":4413:4682  function createSubscription() external override returns (uint64 _subId) {... */\n      swap1\n      jump\t// out\n        /* \"@chainlink/contracts/src/v0.8/mocks/VRFCoordinatorV2Mock.sol\":353:391  uint96 public immutable GAS_PRICE_LINK */\n    tag_55:\n      immutable(\"0x3eb2168c54efe55c4cbdb296a43e105b049f642f4564f8ff1105d907daa5cafb\")\n      dup2\n      jump\t// out\n        /* \"@chainlink/contracts/src/v0.8/mocks/VRFCoordinatorV2Mock.sol\":4686:5082  function getSubscription(uint64 _subId)... */\n    tag_59:\n        /* \"@chainlink/contracts/src/v0.8/mocks/VRFCoordinatorV2Mock.sol\":4781:4795  uint96 balance */\n      0x00\n        /* \"@chainlink/contracts/src/v0.8/mocks/VRFCoordinatorV2Mock.sol\":4803:4818  uint64 reqCount */\n      dup1\n        /* \"@chainlink/contracts/src/v0.8/mocks/VRFCoordinatorV2Mock.sol\":4826:4839  address owner */\n      0x00\n        /* \"@chainlink/contracts/src/v0.8/mocks/VRFCoordinatorV2Mock.sol\":4847:4873  address[] memory consumers */\n      0x60\n        /* \"@chainlink/contracts/src/v0.8/mocks/VRFCoordinatorV2Mock.sol\":4933:4934  0 */\n      0x00\n        /* \"@chainlink/contracts/src/v0.8/mocks/VRFCoordinatorV2Mock.sol\":4892:4935  s_subscriptions[_subId].owner == address(0) */\n      0xffffffffffffffffffffffffffffffffffffffff\n      and\n        /* \"@chainlink/contracts/src/v0.8/mocks/VRFCoordinatorV2Mock.sol\":4892:4907  s_subscriptions */\n      0x03\n        /* \"@chainlink/contracts/src/v0.8/mocks/VRFCoordinatorV2Mock.sol\":4892:4915  s_subscriptions[_subId] */\n      0x00\n        /* \"@chainlink/contracts/src/v0.8/mocks/VRFCoordinatorV2Mock.sol\":4908:4914  _subId */\n      dup8\n        /* \"@chainlink/contracts/src/v0.8/mocks/VRFCoordinatorV2Mock.sol\":4892:4915  s_subscriptions[_subId] */\n      0xffffffffffffffff\n      and\n      0xffffffffffffffff\n      and\n      dup2\n      mstore\n      0x20\n      add\n      swap1\n      dup2\n      mstore\n      0x20\n      add\n      0x00\n      keccak256\n        /* \"@chainlink/contracts/src/v0.8/mocks/VRFCoordinatorV2Mock.sol\":4892:4921  s_subscriptions[_subId].owner */\n      0x00\n      add\n      0x00\n      swap1\n      sload\n      swap1\n      0x0100\n      exp\n      swap1\n      div\n      0xffffffffffffffffffffffffffffffffffffffff\n      and\n        /* \"@chainlink/contracts/src/v0.8/mocks/VRFCoordinatorV2Mock.sol\":4892:4935  s_subscriptions[_subId].owner == address(0) */\n      0xffffffffffffffffffffffffffffffffffffffff\n      and\n      eq\n        /* \"@chainlink/contracts/src/v0.8/mocks/VRFCoordinatorV2Mock.sol\":4888:4980  if (s_subscriptions[_subId].owner == address(0)) {... */\n      iszero\n      tag_125\n      jumpi\n        /* \"@chainlink/contracts/src/v0.8/mocks/VRFCoordinatorV2Mock.sol\":4952:4973  InvalidSubscription() */\n      mload(0x40)\n      0x1f6a65b600000000000000000000000000000000000000000000000000000000\n      dup2\n      mstore\n      0x04\n      add\n      mload(0x40)\n      dup1\n      swap2\n      sub\n      swap1\n      revert\n        /* \"@chainlink/contracts/src/v0.8/mocks/VRFCoordinatorV2Mock.sol\":4888:4980  if (s_subscriptions[_subId].owner == address(0)) {... */\n    tag_125:\n        /* \"@chainlink/contracts/src/v0.8/mocks/VRFCoordinatorV2Mock.sol\":4993:5008  s_subscriptions */\n      0x03\n        /* \"@chainlink/contracts/src/v0.8/mocks/VRFCoordinatorV2Mock.sol\":4993:5016  s_subscriptions[_subId] */\n      0x00\n        /* \"@chainlink/contracts/src/v0.8/mocks/VRFCoordinatorV2Mock.sol\":5009:5015  _subId */\n      dup7\n        /* \"@chainlink/contracts/src/v0.8/mocks/VRFCoordinatorV2Mock.sol\":4993:5016  s_subscriptions[_subId] */\n      0xffffffffffffffff\n      and\n      0xffffffffffffffff\n      and\n      dup2\n      mstore\n      0x20\n      add\n      swap1\n      dup2\n      mstore\n      0x20\n      add\n      0x00\n      keccak256\n        /* \"@chainlink/contracts/src/v0.8/mocks/VRFCoordinatorV2Mock.sol\":4993:5024  s_subscriptions[_subId].balance */\n      0x00\n      add\n      0x14\n      swap1\n      sload\n      swap1\n      0x0100\n      exp\n      swap1\n      div\n      0xffffffffffffffffffffffff\n      and\n        /* \"@chainlink/contracts/src/v0.8/mocks/VRFCoordinatorV2Mock.sol\":5026:5027  0 */\n      0x00\n        /* \"@chainlink/contracts/src/v0.8/mocks/VRFCoordinatorV2Mock.sol\":5029:5044  s_subscriptions */\n      0x03\n        /* \"@chainlink/contracts/src/v0.8/mocks/VRFCoordinatorV2Mock.sol\":5029:5052  s_subscriptions[_subId] */\n      0x00\n        /* \"@chainlink/contracts/src/v0.8/mocks/VRFCoordinatorV2Mock.sol\":5045:5051  _subId */\n      dup9\n        /* \"@chainlink/contracts/src/v0.8/mocks/VRFCoordinatorV2Mock.sol\":5029:5052  s_subscriptions[_subId] */\n      0xffffffffffffffff\n      and\n      0xffffffffffffffff\n      and\n      dup2\n      mstore\n      0x20\n      add\n      swap1\n      dup2\n      mstore\n      0x20\n      add\n      0x00\n      keccak256\n        /* \"@chainlink/contracts/src/v0.8/mocks/VRFCoordinatorV2Mock.sol\":5029:5058  s_subscriptions[_subId].owner */\n      0x00\n      add\n      0x00\n      swap1\n      sload\n      swap1\n      0x0100\n      exp\n      swap1\n      div\n      0xffffffffffffffffffffffffffffffffffffffff\n      and\n        /* \"@chainlink/contracts/src/v0.8/mocks/VRFCoordinatorV2Mock.sol\":5074:5075  0 */\n      0x00\n        /* \"@chainlink/contracts/src/v0.8/mocks/VRFCoordinatorV2Mock.sol\":5060:5076  new address[](0) */\n      0xffffffffffffffff\n      dup2\n      gt\n      iszero\n      tag_126\n      jumpi\n      mstore(0x00, 0x4e487b7100000000000000000000000000000000000000000000000000000000)\n      mstore(0x04, 0x41)\n      revert(0x00, 0x24)\n    tag_126:\n      mload(0x40)\n      swap1\n      dup1\n      dup3\n      mstore\n      dup1\n      0x20\n      mul\n      0x20\n      add\n      dup3\n      add\n      0x40\n      mstore\n      dup1\n      iszero\n      tag_127\n      jumpi\n      dup2\n      0x20\n      add\n      0x20\n      dup3\n      mul\n      dup1\n      calldatasize\n      dup4\n      calldatacopy\n      dup1\n      dup3\n      add\n      swap2\n      pop\n      pop\n      swap1\n      pop\n    tag_127:\n      pop\n        /* \"@chainlink/contracts/src/v0.8/mocks/VRFCoordinatorV2Mock.sol\":4985:5077  return (s_subscriptions[_subId].balance, 0, s_subscriptions[_subId].owner, new address[](0)) */\n      swap4\n      pop\n      swap4\n      pop\n      swap4\n      pop\n      swap4\n      pop\n        /* \"@chainlink/contracts/src/v0.8/mocks/VRFCoordinatorV2Mock.sol\":4686:5082  function getSubscription(uint64 _subId)... */\n      swap2\n      swap4\n      pop\n      swap2\n      swap4\n      jump\t// out\n        /* \"@chainlink/contracts/src/v0.8/mocks/VRFCoordinatorV2Mock.sol\":3345:3687  function fundSubscription(uint64 _subId, uint96 _amount) public {... */\n    tag_65:\n        /* \"@chainlink/contracts/src/v0.8/mocks/VRFCoordinatorV2Mock.sol\":3460:3461  0 */\n      0x00\n        /* \"@chainlink/contracts/src/v0.8/mocks/VRFCoordinatorV2Mock.sol\":3419:3462  s_subscriptions[_subId].owner == address(0) */\n      0xffffffffffffffffffffffffffffffffffffffff\n      and\n        /* \"@chainlink/contracts/src/v0.8/mocks/VRFCoordinatorV2Mock.sol\":3419:3434  s_subscriptions */\n      0x03\n        /* \"@chainlink/contracts/src/v0.8/mocks/VRFCoordinatorV2Mock.sol\":3419:3442  s_subscriptions[_subId] */\n      0x00\n        /* \"@chainlink/contracts/src/v0.8/mocks/VRFCoordinatorV2Mock.sol\":3435:3441  _subId */\n      dup5\n        /* \"@chainlink/contracts/src/v0.8/mocks/VRFCoordinatorV2Mock.sol\":3419:3442  s_subscriptions[_subId] */\n      0xffffffffffffffff\n      and\n      0xffffffffffffffff\n      and\n      dup2\n      mstore\n      0x20\n      add\n      swap1\n      dup2\n      mstore\n      0x20\n      add\n      0x00\n      keccak256\n        /* \"@chainlink/contracts/src/v0.8/mocks/VRFCoordinatorV2Mock.sol\":3419:3448  s_subscriptions[_subId].owner */\n      0x00\n      add\n      0x00\n      swap1\n      sload\n      swap1\n      0x0100\n      exp\n      swap1\n      div\n      0xffffffffffffffffffffffffffffffffffffffff\n      and\n        /* \"@chainlink/contracts/src/v0.8/mocks/VRFCoordinatorV2Mock.sol\":3419:3462  s_subscriptions[_subId].owner == address(0) */\n      0xffffffffffffffffffffffffffffffffffffffff\n      and\n      eq\n        /* \"@chainlink/contracts/src/v0.8/mocks/VRFCoordinatorV2Mock.sol\":3415:3507  if (s_subscriptions[_subId].owner == address(0)) {... */\n      iszero\n      tag_129\n      jumpi\n        /* \"@chainlink/contracts/src/v0.8/mocks/VRFCoordinatorV2Mock.sol\":3479:3500  InvalidSubscription() */\n      mload(0x40)\n      0x1f6a65b600000000000000000000000000000000000000000000000000000000\n      dup2\n      mstore\n      0x04\n      add\n      mload(0x40)\n      dup1\n      swap2\n      sub\n      swap1\n      revert\n        /* \"@chainlink/contracts/src/v0.8/mocks/VRFCoordinatorV2Mock.sol\":3415:3507  if (s_subscriptions[_subId].owner == address(0)) {... */\n    tag_129:\n        /* \"@chainlink/contracts/src/v0.8/mocks/VRFCoordinatorV2Mock.sol\":3512:3529  uint96 oldBalance */\n      0x00\n        /* \"@chainlink/contracts/src/v0.8/mocks/VRFCoordinatorV2Mock.sol\":3532:3547  s_subscriptions */\n      0x03\n        /* \"@chainlink/contracts/src/v0.8/mocks/VRFCoordinatorV2Mock.sol\":3532:3555  s_subscriptions[_subId] */\n      0x00\n        /* \"@chainlink/contracts/src/v0.8/mocks/VRFCoordinatorV2Mock.sol\":3548:3554  _subId */\n      dup5\n        /* \"@chainlink/contracts/src/v0.8/mocks/VRFCoordinatorV2Mock.sol\":3532:3555  s_subscriptions[_subId] */\n      0xffffffffffffffff\n      and\n      0xffffffffffffffff\n      and\n      dup2\n      mstore\n      0x20\n      add\n      swap1\n      dup2\n      mstore\n      0x20\n      add\n      0x00\n      keccak256\n        /* \"@chainlink/contracts/src/v0.8/mocks/VRFCoordinatorV2Mock.sol\":3532:3563  s_subscriptions[_subId].balance */\n      0x00\n      add\n      0x14\n      swap1\n      sload\n      swap1\n      0x0100\n      exp\n      swap1\n      div\n      0xffffffffffffffffffffffff\n      and\n        /* \"@chainlink/contracts/src/v0.8/mocks/VRFCoordinatorV2Mock.sol\":3512:3563  uint96 oldBalance = s_subscriptions[_subId].balance */\n      swap1\n      pop\n        /* \"@chainlink/contracts/src/v0.8/mocks/VRFCoordinatorV2Mock.sol\":3604:3611  _amount */\n      dup2\n        /* \"@chainlink/contracts/src/v0.8/mocks/VRFCoordinatorV2Mock.sol\":3569:3584  s_subscriptions */\n      0x03\n        /* \"@chainlink/contracts/src/v0.8/mocks/VRFCoordinatorV2Mock.sol\":3569:3592  s_subscriptions[_subId] */\n      0x00\n        /* \"@chainlink/contracts/src/v0.8/mocks/VRFCoordinatorV2Mock.sol\":3585:3591  _subId */\n      dup6\n        /* \"@chainlink/contracts/src/v0.8/mocks/VRFCoordinatorV2Mock.sol\":3569:3592  s_subscriptions[_subId] */\n      0xffffffffffffffff\n      and\n      0xffffffffffffffff\n      and\n      dup2\n      mstore\n      0x20\n      add\n      swap1\n      dup2\n      mstore\n      0x20\n      add\n      0x00\n      keccak256\n        /* \"@chainlink/contracts/src/v0.8/mocks/VRFCoordinatorV2Mock.sol\":3569:3600  s_subscriptions[_subId].balance */\n      0x00\n      add\n      0x14\n        /* \"@chainlink/contracts/src/v0.8/mocks/VRFCoordinatorV2Mock.sol\":3569:3611  s_subscriptions[_subId].balance += _amount */\n      dup3\n      dup3\n      dup3\n      swap1\n      sload\n      swap1\n      0x0100\n      exp\n      swap1\n      div\n      0xffffffffffffffffffffffff\n      and\n      tag_130\n      swap2\n      swap1\n      tag_131\n      jump\t// in\n    tag_130:\n      swap3\n      pop\n      0x0100\n      exp\n      dup2\n      sload\n      dup2\n      0xffffffffffffffffffffffff\n      mul\n      not\n      and\n      swap1\n      dup4\n      0xffffffffffffffffffffffff\n      and\n      mul\n      or\n      swap1\n      sstore\n      pop\n        /* \"@chainlink/contracts/src/v0.8/mocks/VRFCoordinatorV2Mock.sol\":3641:3647  _subId */\n      dup3\n        /* \"@chainlink/contracts/src/v0.8/mocks/VRFCoordinatorV2Mock.sol\":3622:3682  SubscriptionFunded(_subId, oldBalance, oldBalance + _amount) */\n      0xffffffffffffffff\n      and\n      0xd39ec07f4e209f627a4c427971473820dc129761ba28de8906bd56f57101d4f8\n        /* \"@chainlink/contracts/src/v0.8/mocks/VRFCoordinatorV2Mock.sol\":3649:3659  oldBalance */\n      dup3\n        /* \"@chainlink/contracts/src/v0.8/mocks/VRFCoordinatorV2Mock.sol\":3674:3681  _amount */\n      dup5\n        /* \"@chainlink/contracts/src/v0.8/mocks/VRFCoordinatorV2Mock.sol\":3661:3671  oldBalance */\n      dup5\n        /* \"@chainlink/contracts/src/v0.8/mocks/VRFCoordinatorV2Mock.sol\":3661:3681  oldBalance + _amount */\n      tag_132\n      swap2\n      swap1\n      tag_131\n      jump\t// in\n    tag_132:\n        /* \"@chainlink/contracts/src/v0.8/mocks/VRFCoordinatorV2Mock.sol\":3622:3682  SubscriptionFunded(_subId, oldBalance, oldBalance + _amount) */\n      mload(0x40)\n      tag_133\n      swap3\n      swap2\n      swap1\n      tag_134\n      jump\t// in\n    tag_133:\n      mload(0x40)\n      dup1\n      swap2\n      sub\n      swap1\n      log2\n        /* \"@chainlink/contracts/src/v0.8/mocks/VRFCoordinatorV2Mock.sol\":3345:3687  function fundSubscription(uint64 _subId, uint96 _amount) public {... */\n      pop\n      pop\n      pop\n      jump\t// out\n        /* \"@chainlink/contracts/src/v0.8/mocks/VRFCoordinatorV2Mock.sol\":5086:5301  function cancelSubscription(uint64 _subId, address _to) external override onlySubOwner(_subId) {... */\n    tag_68:\n        /* \"@chainlink/contracts/src/v0.8/mocks/VRFCoordinatorV2Mock.sol\":5173:5179  _subId */\n      dup2\n        /* \"@chainlink/contracts/src/v0.8/mocks/VRFCoordinatorV2Mock.sol\":5348:5361  address owner */\n      0x00\n        /* \"@chainlink/contracts/src/v0.8/mocks/VRFCoordinatorV2Mock.sol\":5364:5379  s_subscriptions */\n      0x03\n        /* \"@chainlink/contracts/src/v0.8/mocks/VRFCoordinatorV2Mock.sol\":5364:5387  s_subscriptions[_subId] */\n      0x00\n        /* \"@chainlink/contracts/src/v0.8/mocks/VRFCoordinatorV2Mock.sol\":5380:5386  _subId */\n      dup4\n        /* \"@chainlink/contracts/src/v0.8/mocks/VRFCoordinatorV2Mock.sol\":5364:5387  s_subscriptions[_subId] */\n      0xffffffffffffffff\n      and\n      0xffffffffffffffff\n      and\n      dup2\n      mstore\n      0x20\n      add\n      swap1\n      dup2\n      mstore\n      0x20\n      add\n      0x00\n      keccak256\n        /* \"@chainlink/contracts/src/v0.8/mocks/VRFCoordinatorV2Mock.sol\":5364:5393  s_subscriptions[_subId].owner */\n      0x00\n      add\n      0x00\n      swap1\n      sload\n      swap1\n      0x0100\n      exp\n      swap1\n      div\n      0xffffffffffffffffffffffffffffffffffffffff\n      and\n        /* \"@chainlink/contracts/src/v0.8/mocks/VRFCoordinatorV2Mock.sol\":5348:5393  address owner = s_subscriptions[_subId].owner */\n      swap1\n      pop\n        /* \"@chainlink/contracts/src/v0.8/mocks/VRFCoordinatorV2Mock.sol\":5420:5421  0 */\n      0x00\n        /* \"@chainlink/contracts/src/v0.8/mocks/VRFCoordinatorV2Mock.sol\":5403:5422  owner == address(0) */\n      0xffffffffffffffffffffffffffffffffffffffff\n      and\n        /* \"@chainlink/contracts/src/v0.8/mocks/VRFCoordinatorV2Mock.sol\":5403:5408  owner */\n      dup2\n        /* \"@chainlink/contracts/src/v0.8/mocks/VRFCoordinatorV2Mock.sol\":5403:5422  owner == address(0) */\n      0xffffffffffffffffffffffffffffffffffffffff\n      and\n      eq\n        /* \"@chainlink/contracts/src/v0.8/mocks/VRFCoordinatorV2Mock.sol\":5399:5467  if (owner == address(0)) {... */\n      iszero\n      tag_136\n      jumpi\n        /* \"@chainlink/contracts/src/v0.8/mocks/VRFCoordinatorV2Mock.sol\":5439:5460  InvalidSubscription() */\n      mload(0x40)\n      0x1f6a65b600000000000000000000000000000000000000000000000000000000\n      dup2\n      mstore\n      0x04\n      add\n      mload(0x40)\n      dup1\n      swap2\n      sub\n      swap1\n      revert\n        /* \"@chainlink/contracts/src/v0.8/mocks/VRFCoordinatorV2Mock.sol\":5399:5467  if (owner == address(0)) {... */\n    tag_136:\n        /* \"@chainlink/contracts/src/v0.8/mocks/VRFCoordinatorV2Mock.sol\":5490:5495  owner */\n      dup1\n        /* \"@chainlink/contracts/src/v0.8/mocks/VRFCoordinatorV2Mock.sol\":5476:5495  msg.sender != owner */\n      0xffffffffffffffffffffffffffffffffffffffff\n      and\n        /* \"@chainlink/contracts/src/v0.8/mocks/VRFCoordinatorV2Mock.sol\":5476:5486  msg.sender */\n      caller\n        /* \"@chainlink/contracts/src/v0.8/mocks/VRFCoordinatorV2Mock.sol\":5476:5495  msg.sender != owner */\n      0xffffffffffffffffffffffffffffffffffffffff\n      and\n      eq\n        /* \"@chainlink/contracts/src/v0.8/mocks/VRFCoordinatorV2Mock.sol\":5472:5540  if (msg.sender != owner) {... */\n      tag_137\n      jumpi\n        /* \"@chainlink/contracts/src/v0.8/mocks/VRFCoordinatorV2Mock.sol\":5527:5532  owner */\n      dup1\n        /* \"@chainlink/contracts/src/v0.8/mocks/VRFCoordinatorV2Mock.sol\":5512:5533  MustBeSubOwner(owner) */\n      mload(0x40)\n      0xd8a3fb5200000000000000000000000000000000000000000000000000000000\n      dup2\n      mstore\n      0x04\n      add\n      tag_138\n      swap2\n      swap1\n      tag_123\n      jump\t// in\n    tag_138:\n      mload(0x40)\n      dup1\n      swap2\n      sub\n      swap1\n      revert\n        /* \"@chainlink/contracts/src/v0.8/mocks/VRFCoordinatorV2Mock.sol\":5472:5540  if (msg.sender != owner) {... */\n    tag_137:\n        /* \"@chainlink/contracts/src/v0.8/mocks/VRFCoordinatorV2Mock.sol\":5213:5219  _subId */\n      dup4\n        /* \"@chainlink/contracts/src/v0.8/mocks/VRFCoordinatorV2Mock.sol\":5192:5258  SubscriptionCanceled(_subId, _to, s_subscriptions[_subId].balance) */\n      0xffffffffffffffff\n      and\n      0xe8ed5b475a5b5987aa9165e8731bb78043f39eee32ec5a1169a89e27fcd49815\n        /* \"@chainlink/contracts/src/v0.8/mocks/VRFCoordinatorV2Mock.sol\":5221:5224  _to */\n      dup5\n        /* \"@chainlink/contracts/src/v0.8/mocks/VRFCoordinatorV2Mock.sol\":5226:5241  s_subscriptions */\n      0x03\n        /* \"@chainlink/contracts/src/v0.8/mocks/VRFCoordinatorV2Mock.sol\":5226:5249  s_subscriptions[_subId] */\n      0x00\n        /* \"@chainlink/contracts/src/v0.8/mocks/VRFCoordinatorV2Mock.sol\":5242:5248  _subId */\n      dup9\n        /* \"@chainlink/contracts/src/v0.8/mocks/VRFCoordinatorV2Mock.sol\":5226:5249  s_subscriptions[_subId] */\n      0xffffffffffffffff\n      and\n      0xffffffffffffffff\n      and\n      dup2\n      mstore\n      0x20\n      add\n      swap1\n      dup2\n      mstore\n      0x20\n      add\n      0x00\n      keccak256\n        /* \"@chainlink/contracts/src/v0.8/mocks/VRFCoordinatorV2Mock.sol\":5226:5257  s_subscriptions[_subId].balance */\n      0x00\n      add\n      0x14\n      swap1\n      sload\n      swap1\n      0x0100\n      exp\n      swap1\n      div\n      0xffffffffffffffffffffffff\n      and\n        /* \"@chainlink/contracts/src/v0.8/mocks/VRFCoordinatorV2Mock.sol\":5192:5258  SubscriptionCanceled(_subId, _to, s_subscriptions[_subId].balance) */\n      mload(0x40)\n      tag_140\n      swap3\n      swap2\n      swap1\n      tag_141\n      jump\t// in\n    tag_140:\n      mload(0x40)\n      dup1\n      swap2\n      sub\n      swap1\n      log2\n        /* \"@chainlink/contracts/src/v0.8/mocks/VRFCoordinatorV2Mock.sol\":5272:5287  s_subscriptions */\n      0x03\n        /* \"@chainlink/contracts/src/v0.8/mocks/VRFCoordinatorV2Mock.sol\":5272:5295  s_subscriptions[_subId] */\n      0x00\n        /* \"@chainlink/contracts/src/v0.8/mocks/VRFCoordinatorV2Mock.sol\":5288:5294  _subId */\n      dup6\n        /* \"@chainlink/contracts/src/v0.8/mocks/VRFCoordinatorV2Mock.sol\":5272:5295  s_subscriptions[_subId] */\n      0xffffffffffffffff\n      and\n      0xffffffffffffffff\n      and\n      dup2\n      mstore\n      0x20\n      add\n      swap1\n      dup2\n      mstore\n      0x20\n      add\n      0x00\n      keccak256\n      0x00\n        /* \"@chainlink/contracts/src/v0.8/mocks/VRFCoordinatorV2Mock.sol\":5264:5296  delete (s_subscriptions[_subId]) */\n      dup1\n      dup3\n      add\n      exp(0x0100, 0x00)\n      dup2\n      sload\n      swap1\n      0xffffffffffffffffffffffffffffffffffffffff\n      mul\n      not\n      and\n      swap1\n      sstore\n      0x00\n      dup3\n      add\n      exp(0x0100, 0x14)\n      dup2\n      sload\n      swap1\n      0xffffffffffffffffffffffff\n      mul\n      not\n      and\n      swap1\n      sstore\n      pop\n      pop\n        /* \"@chainlink/contracts/src/v0.8/mocks/VRFCoordinatorV2Mock.sol\":5086:5301  function cancelSubscription(uint64 _subId, address _to) external override onlySubOwner(_subId) {... */\n      pop\n      pop\n      pop\n      pop\n      jump\t// out\n        /* \"#utility.yul\":7:146   */\n    tag_143:\n        /* \"#utility.yul\":53:58   */\n      0x00\n        /* \"#utility.yul\":91:97   */\n      dup2\n        /* \"#utility.yul\":78:98   */\n      calldataload\n        /* \"#utility.yul\":69:98   */\n      swap1\n      pop\n        /* \"#utility.yul\":107:140   */\n      tag_145\n        /* \"#utility.yul\":134:139   */\n      dup2\n        /* \"#utility.yul\":107:140   */\n      tag_146\n      jump\t// in\n    tag_145:\n        /* \"#utility.yul\":59:146   */\n      swap3\n      swap2\n      pop\n      pop\n      jump\t// out\n        /* \"#utility.yul\":152:291   */\n    tag_147:\n        /* \"#utility.yul\":198:203   */\n      0x00\n        /* \"#utility.yul\":236:242   */\n      dup2\n        /* \"#utility.yul\":223:243   */\n      calldataload\n        /* \"#utility.yul\":214:243   */\n      swap1\n      pop\n        /* \"#utility.yul\":252:285   */\n      tag_149\n        /* \"#utility.yul\":279:284   */\n      dup2\n        /* \"#utility.yul\":252:285   */\n      tag_150\n      jump\t// in\n    tag_149:\n        /* \"#utility.yul\":204:291   */\n      swap3\n      swap2\n      pop\n      pop\n      jump\t// out\n        /* \"#utility.yul\":297:434   */\n    tag_151:\n        /* \"#utility.yul\":342:347   */\n      0x00\n        /* \"#utility.yul\":380:386   */\n      dup2\n        /* \"#utility.yul\":367:387   */\n      calldataload\n        /* \"#utility.yul\":358:387   */\n      swap1\n      pop\n        /* \"#utility.yul\":396:428   */\n      tag_153\n        /* \"#utility.yul\":422:427   */\n      dup2\n        /* \"#utility.yul\":396:428   */\n      tag_154\n      jump\t// in\n    tag_153:\n        /* \"#utility.yul\":348:434   */\n      swap3\n      swap2\n      pop\n      pop\n      jump\t// out\n        /* \"#utility.yul\":440:579   */\n    tag_155:\n        /* \"#utility.yul\":486:491   */\n      0x00\n        /* \"#utility.yul\":524:530   */\n      dup2\n        /* \"#utility.yul\":511:531   */\n      calldataload\n        /* \"#utility.yul\":502:531   */\n      swap1\n      pop\n        /* \"#utility.yul\":540:573   */\n      tag_157\n        /* \"#utility.yul\":567:572   */\n      dup2\n        /* \"#utility.yul\":540:573   */\n      tag_158\n      jump\t// in\n    tag_157:\n        /* \"#utility.yul\":492:579   */\n      swap3\n      swap2\n      pop\n      pop\n      jump\t// out\n        /* \"#utility.yul\":585:722   */\n    tag_159:\n        /* \"#utility.yul\":630:635   */\n      0x00\n        /* \"#utility.yul\":668:674   */\n      dup2\n        /* \"#utility.yul\":655:675   */\n      calldataload\n        /* \"#utility.yul\":646:675   */\n      swap1\n      pop\n        /* \"#utility.yul\":684:716   */\n      tag_161\n        /* \"#utility.yul\":710:715   */\n      dup2\n        /* \"#utility.yul\":684:716   */\n      tag_162\n      jump\t// in\n    tag_161:\n        /* \"#utility.yul\":636:722   */\n      swap3\n      swap2\n      pop\n      pop\n      jump\t// out\n        /* \"#utility.yul\":728:865   */\n    tag_163:\n        /* \"#utility.yul\":773:778   */\n      0x00\n        /* \"#utility.yul\":811:817   */\n      dup2\n        /* \"#utility.yul\":798:818   */\n      calldataload\n        /* \"#utility.yul\":789:818   */\n      swap1\n      pop\n        /* \"#utility.yul\":827:859   */\n      tag_165\n        /* \"#utility.yul\":853:858   */\n      dup2\n        /* \"#utility.yul\":827:859   */\n      tag_166\n      jump\t// in\n    tag_165:\n        /* \"#utility.yul\":779:865   */\n      swap3\n      swap2\n      pop\n      pop\n      jump\t// out\n        /* \"#utility.yul\":871:1008   */\n    tag_167:\n        /* \"#utility.yul\":916:921   */\n      0x00\n        /* \"#utility.yul\":954:960   */\n      dup2\n        /* \"#utility.yul\":941:961   */\n      calldataload\n        /* \"#utility.yul\":932:961   */\n      swap1\n      pop\n        /* \"#utility.yul\":970:1002   */\n      tag_169\n        /* \"#utility.yul\":996:1001   */\n      dup2\n        /* \"#utility.yul\":970:1002   */\n      tag_170\n      jump\t// in\n    tag_169:\n        /* \"#utility.yul\":922:1008   */\n      swap3\n      swap2\n      pop\n      pop\n      jump\t// out\n        /* \"#utility.yul\":1014:1850   */\n    tag_32:\n        /* \"#utility.yul\":1105:1111   */\n      0x00\n        /* \"#utility.yul\":1113:1119   */\n      dup1\n        /* \"#utility.yul\":1121:1127   */\n      0x00\n        /* \"#utility.yul\":1129:1135   */\n      dup1\n        /* \"#utility.yul\":1137:1143   */\n      0x00\n        /* \"#utility.yul\":1186:1189   */\n      0xa0\n        /* \"#utility.yul\":1174:1183   */\n      dup7\n        /* \"#utility.yul\":1165:1172   */\n      dup9\n        /* \"#utility.yul\":1161:1184   */\n      sub\n        /* \"#utility.yul\":1157:1190   */\n      slt\n        /* \"#utility.yul\":1154:1156   */\n      iszero\n      tag_172\n      jumpi\n        /* \"#utility.yul\":1203:1204   */\n      0x00\n        /* \"#utility.yul\":1200:1201   */\n      dup1\n        /* \"#utility.yul\":1193:1205   */\n      revert\n        /* \"#utility.yul\":1154:1156   */\n    tag_172:\n        /* \"#utility.yul\":1246:1247   */\n      0x00\n        /* \"#utility.yul\":1271:1324   */\n      tag_173\n        /* \"#utility.yul\":1316:1323   */\n      dup9\n        /* \"#utility.yul\":1307:1313   */\n      dup3\n        /* \"#utility.yul\":1296:1305   */\n      dup10\n        /* \"#utility.yul\":1292:1314   */\n      add\n        /* \"#utility.yul\":1271:1324   */\n      tag_147\n      jump\t// in\n    tag_173:\n        /* \"#utility.yul\":1261:1324   */\n      swap6\n      pop\n        /* \"#utility.yul\":1217:1334   */\n      pop\n        /* \"#utility.yul\":1373:1375   */\n      0x20\n        /* \"#utility.yul\":1399:1451   */\n      tag_174\n        /* \"#utility.yul\":1443:1450   */\n      dup9\n        /* \"#utility.yul\":1434:1440   */\n      dup3\n        /* \"#utility.yul\":1423:1432   */\n      dup10\n        /* \"#utility.yul\":1419:1441   */\n      add\n        /* \"#utility.yul\":1399:1451   */\n      tag_163\n      jump\t// in\n    tag_174:\n        /* \"#utility.yul\":1389:1451   */\n      swap5\n      pop\n        /* \"#utility.yul\":1344:1461   */\n      pop\n        /* \"#utility.yul\":1500:1502   */\n      0x40\n        /* \"#utility.yul\":1526:1578   */\n      tag_175\n        /* \"#utility.yul\":1570:1577   */\n      dup9\n        /* \"#utility.yul\":1561:1567   */\n      dup3\n        /* \"#utility.yul\":1550:1559   */\n      dup10\n        /* \"#utility.yul\":1546:1568   */\n      add\n        /* \"#utility.yul\":1526:1578   */\n      tag_151\n      jump\t// in\n    tag_175:\n        /* \"#utility.yul\":1516:1578   */\n      swap4\n      pop\n        /* \"#utility.yul\":1471:1588   */\n      pop\n        /* \"#utility.yul\":1627:1629   */\n      0x60\n        /* \"#utility.yul\":1653:1705   */\n      tag_176\n        /* \"#utility.yul\":1697:1704   */\n      dup9\n        /* \"#utility.yul\":1688:1694   */\n      dup3\n        /* \"#utility.yul\":1677:1686   */\n      dup10\n        /* \"#utility.yul\":1673:1695   */\n      add\n        /* \"#utility.yul\":1653:1705   */\n      tag_159\n      jump\t// in\n    tag_176:\n        /* \"#utility.yul\":1643:1705   */\n      swap3\n      pop\n        /* \"#utility.yul\":1598:1715   */\n      pop\n        /* \"#utility.yul\":1754:1757   */\n      0x80\n        /* \"#utility.yul\":1781:1833   */\n      tag_177\n        /* \"#utility.yul\":1825:1832   */\n      dup9\n        /* \"#utility.yul\":1816:1822   */\n      dup3\n        /* \"#utility.yul\":1805:1814   */\n      dup10\n        /* \"#utility.yul\":1801:1823   */\n      add\n        /* \"#utility.yul\":1781:1833   */\n      tag_159\n      jump\t// in\n    tag_177:\n        /* \"#utility.yul\":1771:1833   */\n      swap2\n      pop\n        /* \"#utility.yul\":1725:1843   */\n      pop\n        /* \"#utility.yul\":1144:1850   */\n      swap3\n      swap6\n      pop\n      swap3\n      swap6\n      swap1\n      swap4\n      pop\n      jump\t// out\n        /* \"#utility.yul\":1856:2263   */\n    tag_41:\n        /* \"#utility.yul\":1924:1930   */\n      0x00\n        /* \"#utility.yul\":1932:1938   */\n      dup1\n        /* \"#utility.yul\":1981:1983   */\n      0x40\n        /* \"#utility.yul\":1969:1978   */\n      dup4\n        /* \"#utility.yul\":1960:1967   */\n      dup6\n        /* \"#utility.yul\":1956:1979   */\n      sub\n        /* \"#utility.yul\":1952:1984   */\n      slt\n        /* \"#utility.yul\":1949:1951   */\n      iszero\n      tag_179\n      jumpi\n        /* \"#utility.yul\":1997:1998   */\n      0x00\n        /* \"#utility.yul\":1994:1995   */\n      dup1\n        /* \"#utility.yul\":1987:1999   */\n      revert\n        /* \"#utility.yul\":1949:1951   */\n    tag_179:\n        /* \"#utility.yul\":2040:2041   */\n      0x00\n        /* \"#utility.yul\":2065:2118   */\n      tag_180\n        /* \"#utility.yul\":2110:2117   */\n      dup6\n        /* \"#utility.yul\":2101:2107   */\n      dup3\n        /* \"#utility.yul\":2090:2099   */\n      dup7\n        /* \"#utility.yul\":2086:2108   */\n      add\n        /* \"#utility.yul\":2065:2118   */\n      tag_155\n      jump\t// in\n    tag_180:\n        /* \"#utility.yul\":2055:2118   */\n      swap3\n      pop\n        /* \"#utility.yul\":2011:2128   */\n      pop\n        /* \"#utility.yul\":2167:2169   */\n      0x20\n        /* \"#utility.yul\":2193:2246   */\n      tag_181\n        /* \"#utility.yul\":2238:2245   */\n      dup6\n        /* \"#utility.yul\":2229:2235   */\n      dup3\n        /* \"#utility.yul\":2218:2227   */\n      dup7\n        /* \"#utility.yul\":2214:2236   */\n      add\n        /* \"#utility.yul\":2193:2246   */\n      tag_143\n      jump\t// in\n    tag_181:\n        /* \"#utility.yul\":2183:2246   */\n      swap2\n      pop\n        /* \"#utility.yul\":2138:2256   */\n      pop\n        /* \"#utility.yul\":1939:2263   */\n      swap3\n      pop\n      swap3\n      swap1\n      pop\n      jump\t// out\n        /* \"#utility.yul\":2269:2529   */\n    tag_45:\n        /* \"#utility.yul\":2327:2333   */\n      0x00\n        /* \"#utility.yul\":2376:2378   */\n      0x20\n        /* \"#utility.yul\":2364:2373   */\n      dup3\n        /* \"#utility.yul\":2355:2362   */\n      dup5\n        /* \"#utility.yul\":2351:2374   */\n      sub\n        /* \"#utility.yul\":2347:2379   */\n      slt\n        /* \"#utility.yul\":2344:2346   */\n      iszero\n      tag_183\n      jumpi\n        /* \"#utility.yul\":2392:2393   */\n      0x00\n        /* \"#utility.yul\":2389:2390   */\n      dup1\n        /* \"#utility.yul\":2382:2394   */\n      revert\n        /* \"#utility.yul\":2344:2346   */\n    tag_183:\n        /* \"#utility.yul\":2435:2436   */\n      0x00\n        /* \"#utility.yul\":2460:2512   */\n      tag_184\n        /* \"#utility.yul\":2504:2511   */\n      dup5\n        /* \"#utility.yul\":2495:2501   */\n      dup3\n        /* \"#utility.yul\":2484:2493   */\n      dup6\n        /* \"#utility.yul\":2480:2502   */\n      add\n        /* \"#utility.yul\":2460:2512   */\n      tag_163\n      jump\t// in\n    tag_184:\n        /* \"#utility.yul\":2450:2512   */\n      swap2\n      pop\n        /* \"#utility.yul\":2406:2522   */\n      pop\n        /* \"#utility.yul\":2334:2529   */\n      swap3\n      swap2\n      pop\n      pop\n      jump\t// out\n        /* \"#utility.yul\":2535:2940   */\n    tag_24:\n        /* \"#utility.yul\":2602:2608   */\n      0x00\n        /* \"#utility.yul\":2610:2616   */\n      dup1\n        /* \"#utility.yul\":2659:2661   */\n      0x40\n        /* \"#utility.yul\":2647:2656   */\n      dup4\n        /* \"#utility.yul\":2638:2645   */\n      dup6\n        /* \"#utility.yul\":2634:2657   */\n      sub\n        /* \"#utility.yul\":2630:2662   */\n      slt\n        /* \"#utility.yul\":2627:2629   */\n      iszero\n      tag_186\n      jumpi\n        /* \"#utility.yul\":2675:2676   */\n      0x00\n        /* \"#utility.yul\":2672:2673   */\n      dup1\n        /* \"#utility.yul\":2665:2677   */\n      revert\n        /* \"#utility.yul\":2627:2629   */\n    tag_186:\n        /* \"#utility.yul\":2718:2719   */\n      0x00\n        /* \"#utility.yul\":2743:2795   */\n      tag_187\n        /* \"#utility.yul\":2787:2794   */\n      dup6\n        /* \"#utility.yul\":2778:2784   */\n      dup3\n        /* \"#utility.yul\":2767:2776   */\n      dup7\n        /* \"#utility.yul\":2763:2785   */\n      add\n        /* \"#utility.yul\":2743:2795   */\n      tag_163\n      jump\t// in\n    tag_187:\n        /* \"#utility.yul\":2733:2795   */\n      swap3\n      pop\n        /* \"#utility.yul\":2689:2805   */\n      pop\n        /* \"#utility.yul\":2844:2846   */\n      0x20\n        /* \"#utility.yul\":2870:2923   */\n      tag_188\n        /* \"#utility.yul\":2915:2922   */\n      dup6\n        /* \"#utility.yul\":2906:2912   */\n      dup3\n        /* \"#utility.yul\":2895:2904   */\n      dup7\n        /* \"#utility.yul\":2891:2913   */\n      add\n        /* \"#utility.yul\":2870:2923   */\n      tag_143\n      jump\t// in\n    tag_188:\n        /* \"#utility.yul\":2860:2923   */\n      swap2\n      pop\n        /* \"#utility.yul\":2815:2933   */\n      pop\n        /* \"#utility.yul\":2617:2940   */\n      swap3\n      pop\n      swap3\n      swap1\n      pop\n      jump\t// out\n        /* \"#utility.yul\":2946:3349   */\n    tag_64:\n        /* \"#utility.yul\":3012:3018   */\n      0x00\n        /* \"#utility.yul\":3020:3026   */\n      dup1\n        /* \"#utility.yul\":3069:3071   */\n      0x40\n        /* \"#utility.yul\":3057:3066   */\n      dup4\n        /* \"#utility.yul\":3048:3055   */\n      dup6\n        /* \"#utility.yul\":3044:3067   */\n      sub\n        /* \"#utility.yul\":3040:3072   */\n      slt\n        /* \"#utility.yul\":3037:3039   */\n      iszero\n      tag_190\n      jumpi\n        /* \"#utility.yul\":3085:3086   */\n      0x00\n        /* \"#utility.yul\":3082:3083   */\n      dup1\n        /* \"#utility.yul\":3075:3087   */\n      revert\n        /* \"#utility.yul\":3037:3039   */\n    tag_190:\n        /* \"#utility.yul\":3128:3129   */\n      0x00\n        /* \"#utility.yul\":3153:3205   */\n      tag_191\n        /* \"#utility.yul\":3197:3204   */\n      dup6\n        /* \"#utility.yul\":3188:3194   */\n      dup3\n        /* \"#utility.yul\":3177:3186   */\n      dup7\n        /* \"#utility.yul\":3173:3195   */\n      add\n        /* \"#utility.yul\":3153:3205   */\n      tag_163\n      jump\t// in\n    tag_191:\n        /* \"#utility.yul\":3143:3205   */\n      swap3\n      pop\n        /* \"#utility.yul\":3099:3215   */\n      pop\n        /* \"#utility.yul\":3254:3256   */\n      0x20\n        /* \"#utility.yul\":3280:3332   */\n      tag_192\n        /* \"#utility.yul\":3324:3331   */\n      dup6\n        /* \"#utility.yul\":3315:3321   */\n      dup3\n        /* \"#utility.yul\":3304:3313   */\n      dup7\n        /* \"#utility.yul\":3300:3322   */\n      add\n        /* \"#utility.yul\":3280:3332   */\n      tag_167\n      jump\t// in\n    tag_192:\n        /* \"#utility.yul\":3270:3332   */\n      swap2\n      pop\n        /* \"#utility.yul\":3225:3342   */\n      pop\n        /* \"#utility.yul\":3027:3349   */\n      swap3\n      pop\n      swap3\n      swap1\n      pop\n      jump\t// out\n        /* \"#utility.yul\":3355:3534   */\n    tag_193:\n        /* \"#utility.yul\":3424:3434   */\n      0x00\n        /* \"#utility.yul\":3445:3491   */\n      tag_195\n        /* \"#utility.yul\":3487:3490   */\n      dup4\n        /* \"#utility.yul\":3479:3485   */\n      dup4\n        /* \"#utility.yul\":3445:3491   */\n      tag_196\n      jump\t// in\n    tag_195:\n        /* \"#utility.yul\":3523:3527   */\n      0x20\n        /* \"#utility.yul\":3518:3521   */\n      dup4\n        /* \"#utility.yul\":3514:3528   */\n      add\n        /* \"#utility.yul\":3500:3528   */\n      swap1\n      pop\n        /* \"#utility.yul\":3435:3534   */\n      swap3\n      swap2\n      pop\n      pop\n      jump\t// out\n        /* \"#utility.yul\":3540:3719   */\n    tag_197:\n        /* \"#utility.yul\":3609:3619   */\n      0x00\n        /* \"#utility.yul\":3630:3676   */\n      tag_199\n        /* \"#utility.yul\":3672:3675   */\n      dup4\n        /* \"#utility.yul\":3664:3670   */\n      dup4\n        /* \"#utility.yul\":3630:3676   */\n      tag_200\n      jump\t// in\n    tag_199:\n        /* \"#utility.yul\":3708:3712   */\n      0x20\n        /* \"#utility.yul\":3703:3706   */\n      dup4\n        /* \"#utility.yul\":3699:3713   */\n      add\n        /* \"#utility.yul\":3685:3713   */\n      swap1\n      pop\n        /* \"#utility.yul\":3620:3719   */\n      swap3\n      swap2\n      pop\n      pop\n      jump\t// out\n        /* \"#utility.yul\":3725:3904   */\n    tag_201:\n        /* \"#utility.yul\":3794:3804   */\n      0x00\n        /* \"#utility.yul\":3815:3861   */\n      tag_203\n        /* \"#utility.yul\":3857:3860   */\n      dup4\n        /* \"#utility.yul\":3849:3855   */\n      dup4\n        /* \"#utility.yul\":3815:3861   */\n      tag_204\n      jump\t// in\n    tag_203:\n        /* \"#utility.yul\":3893:3897   */\n      0x20\n        /* \"#utility.yul\":3888:3891   */\n      dup4\n        /* \"#utility.yul\":3884:3898   */\n      add\n        /* \"#utility.yul\":3870:3898   */\n      swap1\n      pop\n        /* \"#utility.yul\":3805:3904   */\n      swap3\n      swap2\n      pop\n      pop\n      jump\t// out\n        /* \"#utility.yul\":3910:4018   */\n    tag_196:\n        /* \"#utility.yul\":3987:4011   */\n      tag_206\n        /* \"#utility.yul\":4005:4010   */\n      dup2\n        /* \"#utility.yul\":3987:4011   */\n      tag_207\n      jump\t// in\n    tag_206:\n        /* \"#utility.yul\":3982:3985   */\n      dup3\n        /* \"#utility.yul\":3975:4012   */\n      mstore\n        /* \"#utility.yul\":3965:4018   */\n      pop\n      pop\n      jump\t// out\n        /* \"#utility.yul\":4024:4142   */\n    tag_208:\n        /* \"#utility.yul\":4111:4135   */\n      tag_210\n        /* \"#utility.yul\":4129:4134   */\n      dup2\n        /* \"#utility.yul\":4111:4135   */\n      tag_207\n      jump\t// in\n    tag_210:\n        /* \"#utility.yul\":4106:4109   */\n      dup3\n        /* \"#utility.yul\":4099:4136   */\n      mstore\n        /* \"#utility.yul\":4089:4142   */\n      pop\n      pop\n      jump\t// out\n        /* \"#utility.yul\":4178:4910   */\n    tag_211:\n        /* \"#utility.yul\":4297:4300   */\n      0x00\n        /* \"#utility.yul\":4326:4380   */\n      tag_213\n        /* \"#utility.yul\":4374:4379   */\n      dup3\n        /* \"#utility.yul\":4326:4380   */\n      tag_214\n      jump\t// in\n    tag_213:\n        /* \"#utility.yul\":4396:4482   */\n      tag_215\n        /* \"#utility.yul\":4475:4481   */\n      dup2\n        /* \"#utility.yul\":4470:4473   */\n      dup6\n        /* \"#utility.yul\":4396:4482   */\n      tag_216\n      jump\t// in\n    tag_215:\n        /* \"#utility.yul\":4389:4482   */\n      swap4\n      pop\n        /* \"#utility.yul\":4506:4562   */\n      tag_217\n        /* \"#utility.yul\":4556:4561   */\n      dup4\n        /* \"#utility.yul\":4506:4562   */\n      tag_218\n      jump\t// in\n    tag_217:\n        /* \"#utility.yul\":4585:4592   */\n      dup1\n        /* \"#utility.yul\":4616:4617   */\n      0x00\n        /* \"#utility.yul\":4601:4885   */\n    tag_219:\n        /* \"#utility.yul\":4626:4632   */\n      dup4\n        /* \"#utility.yul\":4623:4624   */\n      dup2\n        /* \"#utility.yul\":4620:4633   */\n      lt\n        /* \"#utility.yul\":4601:4885   */\n      iszero\n      tag_221\n      jumpi\n        /* \"#utility.yul\":4702:4708   */\n      dup2\n        /* \"#utility.yul\":4696:4709   */\n      mload\n        /* \"#utility.yul\":4729:4792   */\n      tag_222\n        /* \"#utility.yul\":4788:4791   */\n      dup9\n        /* \"#utility.yul\":4773:4786   */\n      dup3\n        /* \"#utility.yul\":4729:4792   */\n      tag_193\n      jump\t// in\n    tag_222:\n        /* \"#utility.yul\":4722:4792   */\n      swap8\n      pop\n        /* \"#utility.yul\":4815:4875   */\n      tag_223\n        /* \"#utility.yul\":4868:4874   */\n      dup4\n        /* \"#utility.yul\":4815:4875   */\n      tag_224\n      jump\t// in\n    tag_223:\n        /* \"#utility.yul\":4805:4875   */\n      swap3\n      pop\n        /* \"#utility.yul\":4661:4885   */\n      pop\n        /* \"#utility.yul\":4648:4649   */\n      0x01\n        /* \"#utility.yul\":4645:4646   */\n      dup2\n        /* \"#utility.yul\":4641:4650   */\n      add\n        /* \"#utility.yul\":4636:4650   */\n      swap1\n      pop\n        /* \"#utility.yul\":4601:4885   */\n      jump(tag_219)\n    tag_221:\n        /* \"#utility.yul\":4605:4619   */\n      pop\n        /* \"#utility.yul\":4901:4904   */\n      dup6\n        /* \"#utility.yul\":4894:4904   */\n      swap4\n      pop\n        /* \"#utility.yul\":4302:4910   */\n      pop\n      pop\n      pop\n      swap3\n      swap2\n      pop\n      pop\n      jump\t// out\n        /* \"#utility.yul\":4946:5678   */\n    tag_225:\n        /* \"#utility.yul\":5065:5068   */\n      0x00\n        /* \"#utility.yul\":5094:5148   */\n      tag_227\n        /* \"#utility.yul\":5142:5147   */\n      dup3\n        /* \"#utility.yul\":5094:5148   */\n      tag_228\n      jump\t// in\n    tag_227:\n        /* \"#utility.yul\":5164:5250   */\n      tag_229\n        /* \"#utility.yul\":5243:5249   */\n      dup2\n        /* \"#utility.yul\":5238:5241   */\n      dup6\n        /* \"#utility.yul\":5164:5250   */\n      tag_230\n      jump\t// in\n    tag_229:\n        /* \"#utility.yul\":5157:5250   */\n      swap4\n      pop\n        /* \"#utility.yul\":5274:5330   */\n      tag_231\n        /* \"#utility.yul\":5324:5329   */\n      dup4\n        /* \"#utility.yul\":5274:5330   */\n      tag_232\n      jump\t// in\n    tag_231:\n        /* \"#utility.yul\":5353:5360   */\n      dup1\n        /* \"#utility.yul\":5384:5385   */\n      0x00\n        /* \"#utility.yul\":5369:5653   */\n    tag_233:\n        /* \"#utility.yul\":5394:5400   */\n      dup4\n        /* \"#utility.yul\":5391:5392   */\n      dup2\n        /* \"#utility.yul\":5388:5401   */\n      lt\n        /* \"#utility.yul\":5369:5653   */\n      iszero\n      tag_235\n      jumpi\n        /* \"#utility.yul\":5470:5476   */\n      dup2\n        /* \"#utility.yul\":5464:5477   */\n      mload\n        /* \"#utility.yul\":5497:5560   */\n      tag_236\n        /* \"#utility.yul\":5556:5559   */\n      dup9\n        /* \"#utility.yul\":5541:5554   */\n      dup3\n        /* \"#utility.yul\":5497:5560   */\n      tag_197\n      jump\t// in\n    tag_236:\n        /* \"#utility.yul\":5490:5560   */\n      swap8\n      pop\n        /* \"#utility.yul\":5583:5643   */\n      tag_237\n        /* \"#utility.yul\":5636:5642   */\n      dup4\n        /* \"#utility.yul\":5583:5643   */\n      tag_238\n      jump\t// in\n    tag_237:\n        /* \"#utility.yul\":5573:5643   */\n      swap3\n      pop\n        /* \"#utility.yul\":5429:5653   */\n      pop\n        /* \"#utility.yul\":5416:5417   */\n      0x01\n        /* \"#utility.yul\":5413:5414   */\n      dup2\n        /* \"#utility.yul\":5409:5418   */\n      add\n        /* \"#utility.yul\":5404:5418   */\n      swap1\n      pop\n        /* \"#utility.yul\":5369:5653   */\n      jump(tag_233)\n    tag_235:\n        /* \"#utility.yul\":5373:5387   */\n      pop\n        /* \"#utility.yul\":5669:5672   */\n      dup6\n        /* \"#utility.yul\":5662:5672   */\n      swap4\n      pop\n        /* \"#utility.yul\":5070:5678   */\n      pop\n      pop\n      pop\n      swap3\n      swap2\n      pop\n      pop\n      jump\t// out\n        /* \"#utility.yul\":5714:6446   */\n    tag_239:\n        /* \"#utility.yul\":5833:5836   */\n      0x00\n        /* \"#utility.yul\":5862:5916   */\n      tag_241\n        /* \"#utility.yul\":5910:5915   */\n      dup3\n        /* \"#utility.yul\":5862:5916   */\n      tag_242\n      jump\t// in\n    tag_241:\n        /* \"#utility.yul\":5932:6018   */\n      tag_243\n        /* \"#utility.yul\":6011:6017   */\n      dup2\n        /* \"#utility.yul\":6006:6009   */\n      dup6\n        /* \"#utility.yul\":5932:6018   */\n      tag_244\n      jump\t// in\n    tag_243:\n        /* \"#utility.yul\":5925:6018   */\n      swap4\n      pop\n        /* \"#utility.yul\":6042:6098   */\n      tag_245\n        /* \"#utility.yul\":6092:6097   */\n      dup4\n        /* \"#utility.yul\":6042:6098   */\n      tag_246\n      jump\t// in\n    tag_245:\n        /* \"#utility.yul\":6121:6128   */\n      dup1\n        /* \"#utility.yul\":6152:6153   */\n      0x00\n        /* \"#utility.yul\":6137:6421   */\n    tag_247:\n        /* \"#utility.yul\":6162:6168   */\n      dup4\n        /* \"#utility.yul\":6159:6160   */\n      dup2\n        /* \"#utility.yul\":6156:6169   */\n      lt\n        /* \"#utility.yul\":6137:6421   */\n      iszero\n      tag_249\n      jumpi\n        /* \"#utility.yul\":6238:6244   */\n      dup2\n        /* \"#utility.yul\":6232:6245   */\n      mload\n        /* \"#utility.yul\":6265:6328   */\n      tag_250\n        /* \"#utility.yul\":6324:6327   */\n      dup9\n        /* \"#utility.yul\":6309:6322   */\n      dup3\n        /* \"#utility.yul\":6265:6328   */\n      tag_201\n      jump\t// in\n    tag_250:\n        /* \"#utility.yul\":6258:6328   */\n      swap8\n      pop\n        /* \"#utility.yul\":6351:6411   */\n      tag_251\n        /* \"#utility.yul\":6404:6410   */\n      dup4\n        /* \"#utility.yul\":6351:6411   */\n      tag_252\n      jump\t// in\n    tag_251:\n        /* \"#utility.yul\":6341:6411   */\n      swap3\n      pop\n        /* \"#utility.yul\":6197:6421   */\n      pop\n        /* \"#utility.yul\":6184:6185   */\n      0x01\n        /* \"#utility.yul\":6181:6182   */\n      dup2\n        /* \"#utility.yul\":6177:6186   */\n      add\n        /* \"#utility.yul\":6172:6186   */\n      swap1\n      pop\n        /* \"#utility.yul\":6137:6421   */\n      jump(tag_247)\n    tag_249:\n        /* \"#utility.yul\":6141:6155   */\n      pop\n        /* \"#utility.yul\":6437:6440   */\n      dup6\n        /* \"#utility.yul\":6430:6440   */\n      swap4\n      pop\n        /* \"#utility.yul\":5838:6446   */\n      pop\n      pop\n      pop\n      swap3\n      swap2\n      pop\n      pop\n      jump\t// out\n        /* \"#utility.yul\":6452:6561   */\n    tag_253:\n        /* \"#utility.yul\":6533:6554   */\n      tag_255\n        /* \"#utility.yul\":6548:6553   */\n      dup2\n        /* \"#utility.yul\":6533:6554   */\n      tag_256\n      jump\t// in\n    tag_255:\n        /* \"#utility.yul\":6528:6531   */\n      dup3\n        /* \"#utility.yul\":6521:6555   */\n      mstore\n        /* \"#utility.yul\":6511:6561   */\n      pop\n      pop\n      jump\t// out\n        /* \"#utility.yul\":6567:6675   */\n    tag_200:\n        /* \"#utility.yul\":6644:6668   */\n      tag_258\n        /* \"#utility.yul\":6662:6667   */\n      dup2\n        /* \"#utility.yul\":6644:6668   */\n      tag_259\n      jump\t// in\n    tag_258:\n        /* \"#utility.yul\":6639:6642   */\n      dup3\n        /* \"#utility.yul\":6632:6669   */\n      mstore\n        /* \"#utility.yul\":6622:6675   */\n      pop\n      pop\n      jump\t// out\n        /* \"#utility.yul\":6681:7054   */\n    tag_260:\n        /* \"#utility.yul\":6785:6788   */\n      0x00\n        /* \"#utility.yul\":6813:6851   */\n      tag_262\n        /* \"#utility.yul\":6845:6850   */\n      dup3\n        /* \"#utility.yul\":6813:6851   */\n      tag_263\n      jump\t// in\n    tag_262:\n        /* \"#utility.yul\":6867:6955   */\n      tag_264\n        /* \"#utility.yul\":6948:6954   */\n      dup2\n        /* \"#utility.yul\":6943:6946   */\n      dup6\n        /* \"#utility.yul\":6867:6955   */\n      tag_265\n      jump\t// in\n    tag_264:\n        /* \"#utility.yul\":6860:6955   */\n      swap4\n      pop\n        /* \"#utility.yul\":6964:7016   */\n      tag_266\n        /* \"#utility.yul\":7009:7015   */\n      dup2\n        /* \"#utility.yul\":7004:7007   */\n      dup6\n        /* \"#utility.yul\":6997:7001   */\n      0x20\n        /* \"#utility.yul\":6990:6995   */\n      dup7\n        /* \"#utility.yul\":6986:7002   */\n      add\n        /* \"#utility.yul\":6964:7016   */\n      tag_267\n      jump\t// in\n    tag_266:\n        /* \"#utility.yul\":7041:7047   */\n      dup1\n        /* \"#utility.yul\":7036:7039   */\n      dup5\n        /* \"#utility.yul\":7032:7048   */\n      add\n        /* \"#utility.yul\":7025:7048   */\n      swap2\n      pop\n        /* \"#utility.yul\":6789:7054   */\n      pop\n      swap3\n      swap2\n      pop\n      pop\n      jump\t// out\n        /* \"#utility.yul\":7060:7426   */\n    tag_268:\n        /* \"#utility.yul\":7202:7205   */\n      0x00\n        /* \"#utility.yul\":7223:7290   */\n      tag_270\n        /* \"#utility.yul\":7287:7289   */\n      0x0f\n        /* \"#utility.yul\":7282:7285   */\n      dup4\n        /* \"#utility.yul\":7223:7290   */\n      tag_271\n      jump\t// in\n    tag_270:\n        /* \"#utility.yul\":7216:7290   */\n      swap2\n      pop\n        /* \"#utility.yul\":7299:7392   */\n      tag_272\n        /* \"#utility.yul\":7388:7391   */\n      dup3\n        /* \"#utility.yul\":7299:7392   */\n      tag_273\n      jump\t// in\n    tag_272:\n        /* \"#utility.yul\":7417:7419   */\n      0x20\n        /* \"#utility.yul\":7412:7415   */\n      dup3\n        /* \"#utility.yul\":7408:7420   */\n      add\n        /* \"#utility.yul\":7401:7420   */\n      swap1\n      pop\n        /* \"#utility.yul\":7206:7426   */\n      swap2\n      swap1\n      pop\n      jump\t// out\n        /* \"#utility.yul\":7432:7798   */\n    tag_274:\n        /* \"#utility.yul\":7574:7577   */\n      0x00\n        /* \"#utility.yul\":7595:7662   */\n      tag_276\n        /* \"#utility.yul\":7659:7661   */\n      0x13\n        /* \"#utility.yul\":7654:7657   */\n      dup4\n        /* \"#utility.yul\":7595:7662   */\n      tag_271\n      jump\t// in\n    tag_276:\n        /* \"#utility.yul\":7588:7662   */\n      swap2\n      pop\n        /* \"#utility.yul\":7671:7764   */\n      tag_277\n        /* \"#utility.yul\":7760:7763   */\n      dup3\n        /* \"#utility.yul\":7671:7764   */\n      tag_278\n      jump\t// in\n    tag_277:\n        /* \"#utility.yul\":7789:7791   */\n      0x20\n        /* \"#utility.yul\":7784:7787   */\n      dup3\n        /* \"#utility.yul\":7780:7792   */\n      add\n        /* \"#utility.yul\":7773:7792   */\n      swap1\n      pop\n        /* \"#utility.yul\":7578:7798   */\n      swap2\n      swap1\n      pop\n      jump\t// out\n        /* \"#utility.yul\":7804:7919   */\n    tag_279:\n        /* \"#utility.yul\":7889:7912   */\n      tag_281\n        /* \"#utility.yul\":7906:7911   */\n      dup2\n        /* \"#utility.yul\":7889:7912   */\n      tag_282\n      jump\t// in\n    tag_281:\n        /* \"#utility.yul\":7884:7887   */\n      dup3\n        /* \"#utility.yul\":7877:7913   */\n      mstore\n        /* \"#utility.yul\":7867:7919   */\n      pop\n      pop\n      jump\t// out\n        /* \"#utility.yul\":7925:8033   */\n    tag_204:\n        /* \"#utility.yul\":8002:8026   */\n      tag_284\n        /* \"#utility.yul\":8020:8025   */\n      dup2\n        /* \"#utility.yul\":8002:8026   */\n      tag_285\n      jump\t// in\n    tag_284:\n        /* \"#utility.yul\":7997:8000   */\n      dup3\n        /* \"#utility.yul\":7990:8027   */\n      mstore\n        /* \"#utility.yul\":7980:8033   */\n      pop\n      pop\n      jump\t// out\n        /* \"#utility.yul\":8039:8157   */\n    tag_286:\n        /* \"#utility.yul\":8126:8150   */\n      tag_288\n        /* \"#utility.yul\":8144:8149   */\n      dup2\n        /* \"#utility.yul\":8126:8150   */\n      tag_285\n      jump\t// in\n    tag_288:\n        /* \"#utility.yul\":8121:8124   */\n      dup3\n        /* \"#utility.yul\":8114:8151   */\n      mstore\n        /* \"#utility.yul\":8104:8157   */\n      pop\n      pop\n      jump\t// out\n        /* \"#utility.yul\":8163:8278   */\n    tag_289:\n        /* \"#utility.yul\":8248:8271   */\n      tag_291\n        /* \"#utility.yul\":8265:8270   */\n      dup2\n        /* \"#utility.yul\":8248:8271   */\n      tag_292\n      jump\t// in\n    tag_291:\n        /* \"#utility.yul\":8243:8246   */\n      dup3\n        /* \"#utility.yul\":8236:8272   */\n      mstore\n        /* \"#utility.yul\":8226:8278   */\n      pop\n      pop\n      jump\t// out\n        /* \"#utility.yul\":8284:8399   */\n    tag_293:\n        /* \"#utility.yul\":8369:8392   */\n      tag_295\n        /* \"#utility.yul\":8386:8391   */\n      dup2\n        /* \"#utility.yul\":8369:8392   */\n      tag_296\n      jump\t// in\n    tag_295:\n        /* \"#utility.yul\":8364:8367   */\n      dup3\n        /* \"#utility.yul\":8357:8393   */\n      mstore\n        /* \"#utility.yul\":8347:8399   */\n      pop\n      pop\n      jump\t// out\n        /* \"#utility.yul\":8405:8534   */\n    tag_297:\n        /* \"#utility.yul\":8491:8527   */\n      tag_299\n        /* \"#utility.yul\":8521:8526   */\n      dup2\n        /* \"#utility.yul\":8491:8527   */\n      tag_300\n      jump\t// in\n    tag_299:\n        /* \"#utility.yul\":8486:8489   */\n      dup3\n        /* \"#utility.yul\":8479:8528   */\n      mstore\n        /* \"#utility.yul\":8469:8534   */\n      pop\n      pop\n      jump\t// out\n        /* \"#utility.yul\":8540:8655   */\n    tag_301:\n        /* \"#utility.yul\":8625:8648   */\n      tag_303\n        /* \"#utility.yul\":8642:8647   */\n      dup2\n        /* \"#utility.yul\":8625:8648   */\n      tag_304\n      jump\t// in\n    tag_303:\n        /* \"#utility.yul\":8620:8623   */\n      dup3\n        /* \"#utility.yul\":8613:8649   */\n      mstore\n        /* \"#utility.yul\":8603:8655   */\n      pop\n      pop\n      jump\t// out\n        /* \"#utility.yul\":8661:8932   */\n    tag_100:\n        /* \"#utility.yul\":8791:8794   */\n      0x00\n        /* \"#utility.yul\":8813:8906   */\n      tag_306\n        /* \"#utility.yul\":8902:8905   */\n      dup3\n        /* \"#utility.yul\":8893:8899   */\n      dup5\n        /* \"#utility.yul\":8813:8906   */\n      tag_260\n      jump\t// in\n    tag_306:\n        /* \"#utility.yul\":8806:8906   */\n      swap2\n      pop\n        /* \"#utility.yul\":8923:8926   */\n      dup2\n        /* \"#utility.yul\":8916:8926   */\n      swap1\n      pop\n        /* \"#utility.yul\":8795:8932   */\n      swap3\n      swap2\n      pop\n      pop\n      jump\t// out\n        /* \"#utility.yul\":8938:9160   */\n    tag_123:\n        /* \"#utility.yul\":9031:9035   */\n      0x00\n        /* \"#utility.yul\":9069:9071   */\n      0x20\n        /* \"#utility.yul\":9058:9067   */\n      dup3\n        /* \"#utility.yul\":9054:9072   */\n      add\n        /* \"#utility.yul\":9046:9072   */\n      swap1\n      pop\n        /* \"#utility.yul\":9082:9153   */\n      tag_308\n        /* \"#utility.yul\":9150:9151   */\n      0x00\n        /* \"#utility.yul\":9139:9148   */\n      dup4\n        /* \"#utility.yul\":9135:9152   */\n      add\n        /* \"#utility.yul\":9126:9132   */\n      dup5\n        /* \"#utility.yul\":9082:9153   */\n      tag_208\n      jump\t// in\n    tag_308:\n        /* \"#utility.yul\":9036:9160   */\n      swap3\n      swap2\n      pop\n      pop\n      jump\t// out\n        /* \"#utility.yul\":9166:9496   */\n    tag_141:\n        /* \"#utility.yul\":9286:9290   */\n      0x00\n        /* \"#utility.yul\":9324:9326   */\n      0x40\n        /* \"#utility.yul\":9313:9322   */\n      dup3\n        /* \"#utility.yul\":9309:9327   */\n      add\n        /* \"#utility.yul\":9301:9327   */\n      swap1\n      pop\n        /* \"#utility.yul\":9337:9408   */\n      tag_310\n        /* \"#utility.yul\":9405:9406   */\n      0x00\n        /* \"#utility.yul\":9394:9403   */\n      dup4\n        /* \"#utility.yul\":9390:9407   */\n      add\n        /* \"#utility.yul\":9381:9387   */\n      dup6\n        /* \"#utility.yul\":9337:9408   */\n      tag_208\n      jump\t// in\n    tag_310:\n        /* \"#utility.yul\":9418:9489   */\n      tag_311\n        /* \"#utility.yul\":9485:9487   */\n      0x20\n        /* \"#utility.yul\":9474:9483   */\n      dup4\n        /* \"#utility.yul\":9470:9488   */\n      add\n        /* \"#utility.yul\":9461:9467   */\n      dup5\n        /* \"#utility.yul\":9418:9489   */\n      tag_297\n      jump\t// in\n    tag_311:\n        /* \"#utility.yul\":9291:9496   */\n      swap4\n      swap3\n      pop\n      pop\n      pop\n      jump\t// out\n        /* \"#utility.yul\":9502:9921   */\n    tag_74:\n        /* \"#utility.yul\":9668:9672   */\n      0x00\n        /* \"#utility.yul\":9706:9708   */\n      0x20\n        /* \"#utility.yul\":9695:9704   */\n      dup3\n        /* \"#utility.yul\":9691:9709   */\n      add\n        /* \"#utility.yul\":9683:9709   */\n      swap1\n      pop\n        /* \"#utility.yul\":9755:9764   */\n      dup2\n        /* \"#utility.yul\":9749:9753   */\n      dup2\n        /* \"#utility.yul\":9745:9765   */\n      sub\n        /* \"#utility.yul\":9741:9742   */\n      0x00\n        /* \"#utility.yul\":9730:9739   */\n      dup4\n        /* \"#utility.yul\":9726:9743   */\n      add\n        /* \"#utility.yul\":9719:9766   */\n      mstore\n        /* \"#utility.yul\":9783:9914   */\n      tag_313\n        /* \"#utility.yul\":9909:9913   */\n      dup2\n        /* \"#utility.yul\":9783:9914   */\n      tag_268\n      jump\t// in\n    tag_313:\n        /* \"#utility.yul\":9775:9914   */\n      swap1\n      pop\n        /* \"#utility.yul\":9673:9921   */\n      swap2\n      swap1\n      pop\n      jump\t// out\n        /* \"#utility.yul\":9927:10346   */\n    tag_87:\n        /* \"#utility.yul\":10093:10097   */\n      0x00\n        /* \"#utility.yul\":10131:10133   */\n      0x20\n        /* \"#utility.yul\":10120:10129   */\n      dup3\n        /* \"#utility.yul\":10116:10134   */\n      add\n        /* \"#utility.yul\":10108:10134   */\n      swap1\n      pop\n        /* \"#utility.yul\":10180:10189   */\n      dup2\n        /* \"#utility.yul\":10174:10178   */\n      dup2\n        /* \"#utility.yul\":10170:10190   */\n      sub\n        /* \"#utility.yul\":10166:10167   */\n      0x00\n        /* \"#utility.yul\":10155:10164   */\n      dup4\n        /* \"#utility.yul\":10151:10168   */\n      add\n        /* \"#utility.yul\":10144:10191   */\n      mstore\n        /* \"#utility.yul\":10208:10339   */\n      tag_315\n        /* \"#utility.yul\":10334:10338   */\n      dup2\n        /* \"#utility.yul\":10208:10339   */\n      tag_274\n      jump\t// in\n    tag_315:\n        /* \"#utility.yul\":10200:10339   */\n      swap1\n      pop\n        /* \"#utility.yul\":10098:10346   */\n      swap2\n      swap1\n      pop\n      jump\t// out\n        /* \"#utility.yul\":10352:10937   */\n    tag_21:\n        /* \"#utility.yul\":10547:10551   */\n      0x00\n        /* \"#utility.yul\":10585:10587   */\n      0x60\n        /* \"#utility.yul\":10574:10583   */\n      dup3\n        /* \"#utility.yul\":10570:10588   */\n      add\n        /* \"#utility.yul\":10562:10588   */\n      swap1\n      pop\n        /* \"#utility.yul\":10598:10667   */\n      tag_317\n        /* \"#utility.yul\":10664:10665   */\n      0x00\n        /* \"#utility.yul\":10653:10662   */\n      dup4\n        /* \"#utility.yul\":10649:10666   */\n      add\n        /* \"#utility.yul\":10640:10646   */\n      dup7\n        /* \"#utility.yul\":10598:10667   */\n      tag_279\n      jump\t// in\n    tag_317:\n        /* \"#utility.yul\":10677:10747   */\n      tag_318\n        /* \"#utility.yul\":10743:10745   */\n      0x20\n        /* \"#utility.yul\":10732:10741   */\n      dup4\n        /* \"#utility.yul\":10728:10746   */\n      add\n        /* \"#utility.yul\":10719:10725   */\n      dup6\n        /* \"#utility.yul\":10677:10747   */\n      tag_289\n      jump\t// in\n    tag_318:\n        /* \"#utility.yul\":10794:10803   */\n      dup2\n        /* \"#utility.yul\":10788:10792   */\n      dup2\n        /* \"#utility.yul\":10784:10804   */\n      sub\n        /* \"#utility.yul\":10779:10781   */\n      0x40\n        /* \"#utility.yul\":10768:10777   */\n      dup4\n        /* \"#utility.yul\":10764:10782   */\n      add\n        /* \"#utility.yul\":10757:10805   */\n      mstore\n        /* \"#utility.yul\":10822:10930   */\n      tag_319\n        /* \"#utility.yul\":10925:10929   */\n      dup2\n        /* \"#utility.yul\":10916:10922   */\n      dup5\n        /* \"#utility.yul\":10822:10930   */\n      tag_225\n      jump\t// in\n    tag_319:\n        /* \"#utility.yul\":10814:10930   */\n      swap1\n      pop\n        /* \"#utility.yul\":10552:10937   */\n      swap5\n      swap4\n      pop\n      pop\n      pop\n      pop\n      jump\t// out\n        /* \"#utility.yul\":10943:11165   */\n    tag_35:\n        /* \"#utility.yul\":11036:11040   */\n      0x00\n        /* \"#utility.yul\":11074:11076   */\n      0x20\n        /* \"#utility.yul\":11063:11072   */\n      dup3\n        /* \"#utility.yul\":11059:11077   */\n      add\n        /* \"#utility.yul\":11051:11077   */\n      swap1\n      pop\n        /* \"#utility.yul\":11087:11158   */\n      tag_321\n        /* \"#utility.yul\":11155:11156   */\n      0x00\n        /* \"#utility.yul\":11144:11153   */\n      dup4\n        /* \"#utility.yul\":11140:11157   */\n      add\n        /* \"#utility.yul\":11131:11137   */\n      dup5\n        /* \"#utility.yul\":11087:11158   */\n      tag_286\n      jump\t// in\n    tag_321:\n        /* \"#utility.yul\":11041:11165   */\n      swap3\n      swap2\n      pop\n      pop\n      jump\t// out\n        /* \"#utility.yul\":11171:11654   */\n    tag_98:\n        /* \"#utility.yul\":11342:11346   */\n      0x00\n        /* \"#utility.yul\":11380:11382   */\n      0x40\n        /* \"#utility.yul\":11369:11378   */\n      dup3\n        /* \"#utility.yul\":11365:11383   */\n      add\n        /* \"#utility.yul\":11357:11383   */\n      swap1\n      pop\n        /* \"#utility.yul\":11393:11464   */\n      tag_323\n        /* \"#utility.yul\":11461:11462   */\n      0x00\n        /* \"#utility.yul\":11450:11459   */\n      dup4\n        /* \"#utility.yul\":11446:11463   */\n      add\n        /* \"#utility.yul\":11437:11443   */\n      dup6\n        /* \"#utility.yul\":11393:11464   */\n      tag_286\n      jump\t// in\n    tag_323:\n        /* \"#utility.yul\":11511:11520   */\n      dup2\n        /* \"#utility.yul\":11505:11509   */\n      dup2\n        /* \"#utility.yul\":11501:11521   */\n      sub\n        /* \"#utility.yul\":11496:11498   */\n      0x20\n        /* \"#utility.yul\":11485:11494   */\n      dup4\n        /* \"#utility.yul\":11481:11499   */\n      add\n        /* \"#utility.yul\":11474:11522   */\n      mstore\n        /* \"#utility.yul\":11539:11647   */\n      tag_324\n        /* \"#utility.yul\":11642:11646   */\n      dup2\n        /* \"#utility.yul\":11633:11639   */\n      dup5\n        /* \"#utility.yul\":11539:11647   */\n      tag_239\n      jump\t// in\n    tag_324:\n        /* \"#utility.yul\":11531:11647   */\n      swap1\n      pop\n        /* \"#utility.yul\":11347:11654   */\n      swap4\n      swap3\n      pop\n      pop\n      pop\n      jump\t// out\n        /* \"#utility.yul\":11660:11992   */\n    tag_94:\n        /* \"#utility.yul\":11781:11785   */\n      0x00\n        /* \"#utility.yul\":11819:11821   */\n      0x40\n        /* \"#utility.yul\":11808:11817   */\n      dup3\n        /* \"#utility.yul\":11804:11822   */\n      add\n        /* \"#utility.yul\":11796:11822   */\n      swap1\n      pop\n        /* \"#utility.yul\":11832:11903   */\n      tag_326\n        /* \"#utility.yul\":11900:11901   */\n      0x00\n        /* \"#utility.yul\":11889:11898   */\n      dup4\n        /* \"#utility.yul\":11885:11902   */\n      add\n        /* \"#utility.yul\":11876:11882   */\n      dup6\n        /* \"#utility.yul\":11832:11903   */\n      tag_286\n      jump\t// in\n    tag_326:\n        /* \"#utility.yul\":11913:11985   */\n      tag_327\n        /* \"#utility.yul\":11981:11983   */\n      0x20\n        /* \"#utility.yul\":11970:11979   */\n      dup4\n        /* \"#utility.yul\":11966:11984   */\n      add\n        /* \"#utility.yul\":11957:11963   */\n      dup5\n        /* \"#utility.yul\":11913:11985   */\n      tag_286\n      jump\t// in\n    tag_327:\n        /* \"#utility.yul\":11786:11992   */\n      swap4\n      swap3\n      pop\n      pop\n      pop\n      jump\t// out\n        /* \"#utility.yul\":11998:12650   */\n    tag_81:\n        /* \"#utility.yul\":12197:12201   */\n      0x00\n        /* \"#utility.yul\":12235:12238   */\n      0xa0\n        /* \"#utility.yul\":12224:12233   */\n      dup3\n        /* \"#utility.yul\":12220:12239   */\n      add\n        /* \"#utility.yul\":12212:12239   */\n      swap1\n      pop\n        /* \"#utility.yul\":12249:12320   */\n      tag_329\n        /* \"#utility.yul\":12317:12318   */\n      0x00\n        /* \"#utility.yul\":12306:12315   */\n      dup4\n        /* \"#utility.yul\":12302:12319   */\n      add\n        /* \"#utility.yul\":12293:12299   */\n      dup9\n        /* \"#utility.yul\":12249:12320   */\n      tag_286\n      jump\t// in\n    tag_329:\n        /* \"#utility.yul\":12330:12402   */\n      tag_330\n        /* \"#utility.yul\":12398:12400   */\n      0x20\n        /* \"#utility.yul\":12387:12396   */\n      dup4\n        /* \"#utility.yul\":12383:12401   */\n      add\n        /* \"#utility.yul\":12374:12380   */\n      dup8\n        /* \"#utility.yul\":12330:12402   */\n      tag_286\n      jump\t// in\n    tag_330:\n        /* \"#utility.yul\":12412:12482   */\n      tag_331\n        /* \"#utility.yul\":12478:12480   */\n      0x40\n        /* \"#utility.yul\":12467:12476   */\n      dup4\n        /* \"#utility.yul\":12463:12481   */\n      add\n        /* \"#utility.yul\":12454:12460   */\n      dup7\n        /* \"#utility.yul\":12412:12482   */\n      tag_279\n      jump\t// in\n    tag_331:\n        /* \"#utility.yul\":12492:12562   */\n      tag_332\n        /* \"#utility.yul\":12558:12560   */\n      0x60\n        /* \"#utility.yul\":12547:12556   */\n      dup4\n        /* \"#utility.yul\":12543:12561   */\n      add\n        /* \"#utility.yul\":12534:12540   */\n      dup6\n        /* \"#utility.yul\":12492:12562   */\n      tag_289\n      jump\t// in\n    tag_332:\n        /* \"#utility.yul\":12572:12643   */\n      tag_333\n        /* \"#utility.yul\":12638:12641   */\n      0x80\n        /* \"#utility.yul\":12627:12636   */\n      dup4\n        /* \"#utility.yul\":12623:12642   */\n      add\n        /* \"#utility.yul\":12614:12620   */\n      dup5\n        /* \"#utility.yul\":12572:12643   */\n      tag_289\n      jump\t// in\n    tag_333:\n        /* \"#utility.yul\":12202:12650   */\n      swap7\n      swap6\n      pop\n      pop\n      pop\n      pop\n      pop\n      pop\n      jump\t// out\n        /* \"#utility.yul\":12656:13082   */\n    tag_114:\n        /* \"#utility.yul\":12797:12801   */\n      0x00\n        /* \"#utility.yul\":12835:12837   */\n      0x60\n        /* \"#utility.yul\":12824:12833   */\n      dup3\n        /* \"#utility.yul\":12820:12838   */\n      add\n        /* \"#utility.yul\":12812:12838   */\n      swap1\n      pop\n        /* \"#utility.yul\":12848:12919   */\n      tag_335\n        /* \"#utility.yul\":12916:12917   */\n      0x00\n        /* \"#utility.yul\":12905:12914   */\n      dup4\n        /* \"#utility.yul\":12901:12918   */\n      add\n        /* \"#utility.yul\":12892:12898   */\n      dup7\n        /* \"#utility.yul\":12848:12919   */\n      tag_286\n      jump\t// in\n    tag_335:\n        /* \"#utility.yul\":12929:12999   */\n      tag_336\n        /* \"#utility.yul\":12995:12997   */\n      0x20\n        /* \"#utility.yul\":12984:12993   */\n      dup4\n        /* \"#utility.yul\":12980:12998   */\n      add\n        /* \"#utility.yul\":12971:12977   */\n      dup6\n        /* \"#utility.yul\":12929:12999   */\n      tag_301\n      jump\t// in\n    tag_336:\n        /* \"#utility.yul\":13009:13075   */\n      tag_337\n        /* \"#utility.yul\":13071:13073   */\n      0x40\n        /* \"#utility.yul\":13060:13069   */\n      dup4\n        /* \"#utility.yul\":13056:13074   */\n      add\n        /* \"#utility.yul\":13047:13053   */\n      dup5\n        /* \"#utility.yul\":13009:13075   */\n      tag_253\n      jump\t// in\n    tag_337:\n        /* \"#utility.yul\":12802:13082   */\n      swap5\n      swap4\n      pop\n      pop\n      pop\n      pop\n      jump\t// out\n        /* \"#utility.yul\":13088:13306   */\n    tag_53:\n        /* \"#utility.yul\":13179:13183   */\n      0x00\n        /* \"#utility.yul\":13217:13219   */\n      0x20\n        /* \"#utility.yul\":13206:13215   */\n      dup3\n        /* \"#utility.yul\":13202:13220   */\n      add\n        /* \"#utility.yul\":13194:13220   */\n      swap1\n      pop\n        /* \"#utility.yul\":13230:13299   */\n      tag_339\n        /* \"#utility.yul\":13296:13297   */\n      0x00\n        /* \"#utility.yul\":13285:13294   */\n      dup4\n        /* \"#utility.yul\":13281:13298   */\n      add\n        /* \"#utility.yul\":13272:13278   */\n      dup5\n        /* \"#utility.yul\":13230:13299   */\n      tag_293\n      jump\t// in\n    tag_339:\n        /* \"#utility.yul\":13184:13306   */\n      swap3\n      swap2\n      pop\n      pop\n      jump\t// out\n        /* \"#utility.yul\":13312:13530   */\n    tag_29:\n        /* \"#utility.yul\":13403:13407   */\n      0x00\n        /* \"#utility.yul\":13441:13443   */\n      0x20\n        /* \"#utility.yul\":13430:13439   */\n      dup3\n        /* \"#utility.yul\":13426:13444   */\n      add\n        /* \"#utility.yul\":13418:13444   */\n      swap1\n      pop\n        /* \"#utility.yul\":13454:13523   */\n      tag_341\n        /* \"#utility.yul\":13520:13521   */\n      0x00\n        /* \"#utility.yul\":13509:13518   */\n      dup4\n        /* \"#utility.yul\":13505:13522   */\n      add\n        /* \"#utility.yul\":13496:13502   */\n      dup5\n        /* \"#utility.yul\":13454:13523   */\n      tag_301\n      jump\t// in\n    tag_341:\n        /* \"#utility.yul\":13408:13530   */\n      swap3\n      swap2\n      pop\n      pop\n      jump\t// out\n        /* \"#utility.yul\":13536:14232   */\n    tag_61:\n        /* \"#utility.yul\":13759:13763   */\n      0x00\n        /* \"#utility.yul\":13797:13800   */\n      0x80\n        /* \"#utility.yul\":13786:13795   */\n      dup3\n        /* \"#utility.yul\":13782:13801   */\n      add\n        /* \"#utility.yul\":13774:13801   */\n      swap1\n      pop\n        /* \"#utility.yul\":13811:13880   */\n      tag_343\n        /* \"#utility.yul\":13877:13878   */\n      0x00\n        /* \"#utility.yul\":13866:13875   */\n      dup4\n        /* \"#utility.yul\":13862:13879   */\n      add\n        /* \"#utility.yul\":13853:13859   */\n      dup8\n        /* \"#utility.yul\":13811:13880   */\n      tag_301\n      jump\t// in\n    tag_343:\n        /* \"#utility.yul\":13890:13960   */\n      tag_344\n        /* \"#utility.yul\":13956:13958   */\n      0x20\n        /* \"#utility.yul\":13945:13954   */\n      dup4\n        /* \"#utility.yul\":13941:13959   */\n      add\n        /* \"#utility.yul\":13932:13938   */\n      dup7\n        /* \"#utility.yul\":13890:13960   */\n      tag_293\n      jump\t// in\n    tag_344:\n        /* \"#utility.yul\":13970:14042   */\n      tag_345\n        /* \"#utility.yul\":14038:14040   */\n      0x40\n        /* \"#utility.yul\":14027:14036   */\n      dup4\n        /* \"#utility.yul\":14023:14041   */\n      add\n        /* \"#utility.yul\":14014:14020   */\n      dup6\n        /* \"#utility.yul\":13970:14042   */\n      tag_208\n      jump\t// in\n    tag_345:\n        /* \"#utility.yul\":14089:14098   */\n      dup2\n        /* \"#utility.yul\":14083:14087   */\n      dup2\n        /* \"#utility.yul\":14079:14099   */\n      sub\n        /* \"#utility.yul\":14074:14076   */\n      0x60\n        /* \"#utility.yul\":14063:14072   */\n      dup4\n        /* \"#utility.yul\":14059:14077   */\n      add\n        /* \"#utility.yul\":14052:14100   */\n      mstore\n        /* \"#utility.yul\":14117:14225   */\n      tag_346\n        /* \"#utility.yul\":14220:14224   */\n      dup2\n        /* \"#utility.yul\":14211:14217   */\n      dup5\n        /* \"#utility.yul\":14117:14225   */\n      tag_211\n      jump\t// in\n    tag_346:\n        /* \"#utility.yul\":14109:14225   */\n      swap1\n      pop\n        /* \"#utility.yul\":13764:14232   */\n      swap6\n      swap5\n      pop\n      pop\n      pop\n      pop\n      pop\n      jump\t// out\n        /* \"#utility.yul\":14238:14566   */\n    tag_134:\n        /* \"#utility.yul\":14357:14361   */\n      0x00\n        /* \"#utility.yul\":14395:14397   */\n      0x40\n        /* \"#utility.yul\":14384:14393   */\n      dup3\n        /* \"#utility.yul\":14380:14398   */\n      add\n        /* \"#utility.yul\":14372:14398   */\n      swap1\n      pop\n        /* \"#utility.yul\":14408:14478   */\n      tag_348\n        /* \"#utility.yul\":14475:14476   */\n      0x00\n        /* \"#utility.yul\":14464:14473   */\n      dup4\n        /* \"#utility.yul\":14460:14477   */\n      add\n        /* \"#utility.yul\":14451:14457   */\n      dup6\n        /* \"#utility.yul\":14408:14478   */\n      tag_297\n      jump\t// in\n    tag_348:\n        /* \"#utility.yul\":14488:14559   */\n      tag_349\n        /* \"#utility.yul\":14555:14557   */\n      0x20\n        /* \"#utility.yul\":14544:14553   */\n      dup4\n        /* \"#utility.yul\":14540:14558   */\n      add\n        /* \"#utility.yul\":14531:14537   */\n      dup5\n        /* \"#utility.yul\":14488:14559   */\n      tag_297\n      jump\t// in\n    tag_349:\n        /* \"#utility.yul\":14362:14566   */\n      swap4\n      swap3\n      pop\n      pop\n      pop\n      jump\t// out\n        /* \"#utility.yul\":14572:14704   */\n    tag_218:\n        /* \"#utility.yul\":14639:14643   */\n      0x00\n        /* \"#utility.yul\":14662:14665   */\n      dup2\n        /* \"#utility.yul\":14654:14665   */\n      swap1\n      pop\n        /* \"#utility.yul\":14692:14696   */\n      0x20\n        /* \"#utility.yul\":14687:14690   */\n      dup3\n        /* \"#utility.yul\":14683:14697   */\n      add\n        /* \"#utility.yul\":14675:14697   */\n      swap1\n      pop\n        /* \"#utility.yul\":14644:14704   */\n      swap2\n      swap1\n      pop\n      jump\t// out\n        /* \"#utility.yul\":14710:14842   */\n    tag_232:\n        /* \"#utility.yul\":14777:14781   */\n      0x00\n        /* \"#utility.yul\":14800:14803   */\n      dup2\n        /* \"#utility.yul\":14792:14803   */\n      swap1\n      pop\n        /* \"#utility.yul\":14830:14834   */\n      0x20\n        /* \"#utility.yul\":14825:14828   */\n      dup3\n        /* \"#utility.yul\":14821:14835   */\n      add\n        /* \"#utility.yul\":14813:14835   */\n      swap1\n      pop\n        /* \"#utility.yul\":14782:14842   */\n      swap2\n      swap1\n      pop\n      jump\t// out\n        /* \"#utility.yul\":14848:14980   */\n    tag_246:\n        /* \"#utility.yul\":14915:14919   */\n      0x00\n        /* \"#utility.yul\":14938:14941   */\n      dup2\n        /* \"#utility.yul\":14930:14941   */\n      swap1\n      pop\n        /* \"#utility.yul\":14968:14972   */\n      0x20\n        /* \"#utility.yul\":14963:14966   */\n      dup3\n        /* \"#utility.yul\":14959:14973   */\n      add\n        /* \"#utility.yul\":14951:14973   */\n      swap1\n      pop\n        /* \"#utility.yul\":14920:14980   */\n      swap2\n      swap1\n      pop\n      jump\t// out\n        /* \"#utility.yul\":14986:15100   */\n    tag_214:\n        /* \"#utility.yul\":15053:15059   */\n      0x00\n        /* \"#utility.yul\":15087:15092   */\n      dup2\n        /* \"#utility.yul\":15081:15093   */\n      mload\n        /* \"#utility.yul\":15071:15093   */\n      swap1\n      pop\n        /* \"#utility.yul\":15060:15100   */\n      swap2\n      swap1\n      pop\n      jump\t// out\n        /* \"#utility.yul\":15106:15220   */\n    tag_228:\n        /* \"#utility.yul\":15173:15179   */\n      0x00\n        /* \"#utility.yul\":15207:15212   */\n      dup2\n        /* \"#utility.yul\":15201:15213   */\n      mload\n        /* \"#utility.yul\":15191:15213   */\n      swap1\n      pop\n        /* \"#utility.yul\":15180:15220   */\n      swap2\n      swap1\n      pop\n      jump\t// out\n        /* \"#utility.yul\":15226:15340   */\n    tag_242:\n        /* \"#utility.yul\":15293:15299   */\n      0x00\n        /* \"#utility.yul\":15327:15332   */\n      dup2\n        /* \"#utility.yul\":15321:15333   */\n      mload\n        /* \"#utility.yul\":15311:15333   */\n      swap1\n      pop\n        /* \"#utility.yul\":15300:15340   */\n      swap2\n      swap1\n      pop\n      jump\t// out\n        /* \"#utility.yul\":15346:15444   */\n    tag_263:\n        /* \"#utility.yul\":15397:15403   */\n      0x00\n        /* \"#utility.yul\":15431:15436   */\n      dup2\n        /* \"#utility.yul\":15425:15437   */\n      mload\n        /* \"#utility.yul\":15415:15437   */\n      swap1\n      pop\n        /* \"#utility.yul\":15404:15444   */\n      swap2\n      swap1\n      pop\n      jump\t// out\n        /* \"#utility.yul\":15450:15563   */\n    tag_224:\n        /* \"#utility.yul\":15520:15524   */\n      0x00\n        /* \"#utility.yul\":15552:15556   */\n      0x20\n        /* \"#utility.yul\":15547:15550   */\n      dup3\n        /* \"#utility.yul\":15543:15557   */\n      add\n        /* \"#utility.yul\":15535:15557   */\n      swap1\n      pop\n        /* \"#utility.yul\":15525:15563   */\n      swap2\n      swap1\n      pop\n      jump\t// out\n        /* \"#utility.yul\":15569:15682   */\n    tag_238:\n        /* \"#utility.yul\":15639:15643   */\n      0x00\n        /* \"#utility.yul\":15671:15675   */\n      0x20\n        /* \"#utility.yul\":15666:15669   */\n      dup3\n        /* \"#utility.yul\":15662:15676   */\n      add\n        /* \"#utility.yul\":15654:15676   */\n      swap1\n      pop\n        /* \"#utility.yul\":15644:15682   */\n      swap2\n      swap1\n      pop\n      jump\t// out\n        /* \"#utility.yul\":15688:15801   */\n    tag_252:\n        /* \"#utility.yul\":15758:15762   */\n      0x00\n        /* \"#utility.yul\":15790:15794   */\n      0x20\n        /* \"#utility.yul\":15785:15788   */\n      dup3\n        /* \"#utility.yul\":15781:15795   */\n      add\n        /* \"#utility.yul\":15773:15795   */\n      swap1\n      pop\n        /* \"#utility.yul\":15763:15801   */\n      swap2\n      swap1\n      pop\n      jump\t// out\n        /* \"#utility.yul\":15807:15991   */\n    tag_216:\n        /* \"#utility.yul\":15906:15917   */\n      0x00\n        /* \"#utility.yul\":15940:15946   */\n      dup3\n        /* \"#utility.yul\":15935:15938   */\n      dup3\n        /* \"#utility.yul\":15928:15947   */\n      mstore\n        /* \"#utility.yul\":15980:15984   */\n      0x20\n        /* \"#utility.yul\":15975:15978   */\n      dup3\n        /* \"#utility.yul\":15971:15985   */\n      add\n        /* \"#utility.yul\":15956:15985   */\n      swap1\n      pop\n        /* \"#utility.yul\":15918:15991   */\n      swap3\n      swap2\n      pop\n      pop\n      jump\t// out\n        /* \"#utility.yul\":15997:16181   */\n    tag_230:\n        /* \"#utility.yul\":16096:16107   */\n      0x00\n        /* \"#utility.yul\":16130:16136   */\n      dup3\n        /* \"#utility.yul\":16125:16128   */\n      dup3\n        /* \"#utility.yul\":16118:16137   */\n      mstore\n        /* \"#utility.yul\":16170:16174   */\n      0x20\n        /* \"#utility.yul\":16165:16168   */\n      dup3\n        /* \"#utility.yul\":16161:16175   */\n      add\n        /* \"#utility.yul\":16146:16175   */\n      swap1\n      pop\n        /* \"#utility.yul\":16108:16181   */\n      swap3\n      swap2\n      pop\n      pop\n      jump\t// out\n        /* \"#utility.yul\":16187:16371   */\n    tag_244:\n        /* \"#utility.yul\":16286:16297   */\n      0x00\n        /* \"#utility.yul\":16320:16326   */\n      dup3\n        /* \"#utility.yul\":16315:16318   */\n      dup3\n        /* \"#utility.yul\":16308:16327   */\n      mstore\n        /* \"#utility.yul\":16360:16364   */\n      0x20\n        /* \"#utility.yul\":16355:16358   */\n      dup3\n        /* \"#utility.yul\":16351:16365   */\n      add\n        /* \"#utility.yul\":16336:16365   */\n      swap1\n      pop\n        /* \"#utility.yul\":16298:16371   */\n      swap3\n      swap2\n      pop\n      pop\n      jump\t// out\n        /* \"#utility.yul\":16377:16524   */\n    tag_265:\n        /* \"#utility.yul\":16478:16489   */\n      0x00\n        /* \"#utility.yul\":16515:16518   */\n      dup2\n        /* \"#utility.yul\":16500:16518   */\n      swap1\n      pop\n        /* \"#utility.yul\":16490:16524   */\n      swap3\n      swap2\n      pop\n      pop\n      jump\t// out\n        /* \"#utility.yul\":16530:16699   */\n    tag_271:\n        /* \"#utility.yul\":16614:16625   */\n      0x00\n        /* \"#utility.yul\":16648:16654   */\n      dup3\n        /* \"#utility.yul\":16643:16646   */\n      dup3\n        /* \"#utility.yul\":16636:16655   */\n      mstore\n        /* \"#utility.yul\":16688:16692   */\n      0x20\n        /* \"#utility.yul\":16683:16686   */\n      dup3\n        /* \"#utility.yul\":16679:16693   */\n      add\n        /* \"#utility.yul\":16664:16693   */\n      swap1\n      pop\n        /* \"#utility.yul\":16626:16699   */\n      swap3\n      swap2\n      pop\n      pop\n      jump\t// out\n        /* \"#utility.yul\":16705:17010   */\n    tag_109:\n        /* \"#utility.yul\":16745:16748   */\n      0x00\n        /* \"#utility.yul\":16764:16784   */\n      tag_366\n        /* \"#utility.yul\":16782:16783   */\n      dup3\n        /* \"#utility.yul\":16764:16784   */\n      tag_285\n      jump\t// in\n    tag_366:\n        /* \"#utility.yul\":16759:16784   */\n      swap2\n      pop\n        /* \"#utility.yul\":16798:16818   */\n      tag_367\n        /* \"#utility.yul\":16816:16817   */\n      dup4\n        /* \"#utility.yul\":16798:16818   */\n      tag_285\n      jump\t// in\n    tag_367:\n        /* \"#utility.yul\":16793:16818   */\n      swap3\n      pop\n        /* \"#utility.yul\":16952:16953   */\n      dup3\n        /* \"#utility.yul\":16884:16950   */\n      0xffffffffffffffffffffffffffffffffffffffffffffffffffffffffffffffff\n        /* \"#utility.yul\":16880:16954   */\n      sub\n        /* \"#utility.yul\":16877:16878   */\n      dup3\n        /* \"#utility.yul\":16874:16955   */\n      gt\n        /* \"#utility.yul\":16871:16873   */\n      iszero\n      tag_368\n      jumpi\n        /* \"#utility.yul\":16958:16976   */\n      tag_369\n      tag_370\n      jump\t// in\n    tag_369:\n        /* \"#utility.yul\":16871:16873   */\n    tag_368:\n        /* \"#utility.yul\":17002:17003   */\n      dup3\n        /* \"#utility.yul\":16999:17000   */\n      dup3\n        /* \"#utility.yul\":16995:17004   */\n      add\n        /* \"#utility.yul\":16988:17004   */\n      swap1\n      pop\n        /* \"#utility.yul\":16749:17010   */\n      swap3\n      swap2\n      pop\n      pop\n      jump\t// out\n        /* \"#utility.yul\":17016:17278   */\n    tag_131:\n        /* \"#utility.yul\":17055:17058   */\n      0x00\n        /* \"#utility.yul\":17074:17093   */\n      tag_372\n        /* \"#utility.yul\":17091:17092   */\n      dup3\n        /* \"#utility.yul\":17074:17093   */\n      tag_304\n      jump\t// in\n    tag_372:\n        /* \"#utility.yul\":17069:17093   */\n      swap2\n      pop\n        /* \"#utility.yul\":17107:17126   */\n      tag_373\n        /* \"#utility.yul\":17124:17125   */\n      dup4\n        /* \"#utility.yul\":17107:17126   */\n      tag_304\n      jump\t// in\n    tag_373:\n        /* \"#utility.yul\":17102:17126   */\n      swap3\n      pop\n        /* \"#utility.yul\":17220:17221   */\n      dup3\n        /* \"#utility.yul\":17192:17218   */\n      0xffffffffffffffffffffffff\n        /* \"#utility.yul\":17188:17222   */\n      sub\n        /* \"#utility.yul\":17185:17186   */\n      dup3\n        /* \"#utility.yul\":17182:17223   */\n      gt\n        /* \"#utility.yul\":17179:17181   */\n      iszero\n      tag_374\n      jumpi\n        /* \"#utility.yul\":17226:17244   */\n      tag_375\n      tag_370\n      jump\t// in\n    tag_375:\n        /* \"#utility.yul\":17179:17181   */\n    tag_374:\n        /* \"#utility.yul\":17270:17271   */\n      dup3\n        /* \"#utility.yul\":17267:17268   */\n      dup3\n        /* \"#utility.yul\":17263:17272   */\n      add\n        /* \"#utility.yul\":17256:17272   */\n      swap1\n      pop\n        /* \"#utility.yul\":17059:17278   */\n      swap3\n      swap2\n      pop\n      pop\n      jump\t// out\n        /* \"#utility.yul\":17284:17632   */\n    tag_107:\n        /* \"#utility.yul\":17324:17331   */\n      0x00\n        /* \"#utility.yul\":17347:17367   */\n      tag_377\n        /* \"#utility.yul\":17365:17366   */\n      dup3\n        /* \"#utility.yul\":17347:17367   */\n      tag_285\n      jump\t// in\n    tag_377:\n        /* \"#utility.yul\":17342:17367   */\n      swap2\n      pop\n        /* \"#utility.yul\":17381:17401   */\n      tag_378\n        /* \"#utility.yul\":17399:17400   */\n      dup4\n        /* \"#utility.yul\":17381:17401   */\n      tag_285\n      jump\t// in\n    tag_378:\n        /* \"#utility.yul\":17376:17401   */\n      swap3\n      pop\n        /* \"#utility.yul\":17569:17570   */\n      dup2\n        /* \"#utility.yul\":17501:17567   */\n      0xffffffffffffffffffffffffffffffffffffffffffffffffffffffffffffffff\n        /* \"#utility.yul\":17497:17571   */\n      div\n        /* \"#utility.yul\":17494:17495   */\n      dup4\n        /* \"#utility.yul\":17491:17572   */\n      gt\n        /* \"#utility.yul\":17486:17487   */\n      dup3\n        /* \"#utility.yul\":17479:17488   */\n      iszero\n        /* \"#utility.yul\":17472:17489   */\n      iszero\n        /* \"#utility.yul\":17468:17573   */\n      and\n        /* \"#utility.yul\":17465:17467   */\n      iszero\n      tag_379\n      jumpi\n        /* \"#utility.yul\":17576:17594   */\n      tag_380\n      tag_370\n      jump\t// in\n    tag_380:\n        /* \"#utility.yul\":17465:17467   */\n    tag_379:\n        /* \"#utility.yul\":17624:17625   */\n      dup3\n        /* \"#utility.yul\":17621:17622   */\n      dup3\n        /* \"#utility.yul\":17617:17626   */\n      mul\n        /* \"#utility.yul\":17606:17626   */\n      swap1\n      pop\n        /* \"#utility.yul\":17332:17632   */\n      swap3\n      swap2\n      pop\n      pop\n      jump\t// out\n        /* \"#utility.yul\":17638:17829   */\n    tag_105:\n        /* \"#utility.yul\":17678:17682   */\n      0x00\n        /* \"#utility.yul\":17698:17718   */\n      tag_382\n        /* \"#utility.yul\":17716:17717   */\n      dup3\n        /* \"#utility.yul\":17698:17718   */\n      tag_285\n      jump\t// in\n    tag_382:\n        /* \"#utility.yul\":17693:17718   */\n      swap2\n      pop\n        /* \"#utility.yul\":17732:17752   */\n      tag_383\n        /* \"#utility.yul\":17750:17751   */\n      dup4\n        /* \"#utility.yul\":17732:17752   */\n      tag_285\n      jump\t// in\n    tag_383:\n        /* \"#utility.yul\":17727:17752   */\n      swap3\n      pop\n        /* \"#utility.yul\":17771:17772   */\n      dup3\n        /* \"#utility.yul\":17768:17769   */\n      dup3\n        /* \"#utility.yul\":17765:17773   */\n      lt\n        /* \"#utility.yul\":17762:17764   */\n      iszero\n      tag_384\n      jumpi\n        /* \"#utility.yul\":17776:17794   */\n      tag_385\n      tag_370\n      jump\t// in\n    tag_385:\n        /* \"#utility.yul\":17762:17764   */\n    tag_384:\n        /* \"#utility.yul\":17821:17822   */\n      dup3\n        /* \"#utility.yul\":17818:17819   */\n      dup3\n        /* \"#utility.yul\":17814:17823   */\n      sub\n        /* \"#utility.yul\":17806:17823   */\n      swap1\n      pop\n        /* \"#utility.yul\":17683:17829   */\n      swap3\n      swap2\n      pop\n      pop\n      jump\t// out\n        /* \"#utility.yul\":17835:18023   */\n    tag_112:\n        /* \"#utility.yul\":17874:17878   */\n      0x00\n        /* \"#utility.yul\":17894:17913   */\n      tag_387\n        /* \"#utility.yul\":17911:17912   */\n      dup3\n        /* \"#utility.yul\":17894:17913   */\n      tag_304\n      jump\t// in\n    tag_387:\n        /* \"#utility.yul\":17889:17913   */\n      swap2\n      pop\n        /* \"#utility.yul\":17927:17946   */\n      tag_388\n        /* \"#utility.yul\":17944:17945   */\n      dup4\n        /* \"#utility.yul\":17927:17946   */\n      tag_304\n      jump\t// in\n    tag_388:\n        /* \"#utility.yul\":17922:17946   */\n      swap3\n      pop\n        /* \"#utility.yul\":17965:17966   */\n      dup3\n        /* \"#utility.yul\":17962:17963   */\n      dup3\n        /* \"#utility.yul\":17959:17967   */\n      lt\n        /* \"#utility.yul\":17956:17958   */\n      iszero\n      tag_389\n      jumpi\n        /* \"#utility.yul\":17970:17988   */\n      tag_390\n      tag_370\n      jump\t// in\n    tag_390:\n        /* \"#utility.yul\":17956:17958   */\n    tag_389:\n        /* \"#utility.yul\":18015:18016   */\n      dup3\n        /* \"#utility.yul\":18012:18013   */\n      dup3\n        /* \"#utility.yul\":18008:18017   */\n      sub\n        /* \"#utility.yul\":18000:18017   */\n      swap1\n      pop\n        /* \"#utility.yul\":17879:18023   */\n      swap3\n      swap2\n      pop\n      pop\n      jump\t// out\n        /* \"#utility.yul\":18029:18125   */\n    tag_207:\n        /* \"#utility.yul\":18066:18073   */\n      0x00\n        /* \"#utility.yul\":18095:18119   */\n      tag_392\n        /* \"#utility.yul\":18113:18118   */\n      dup3\n        /* \"#utility.yul\":18095:18119   */\n      tag_393\n      jump\t// in\n    tag_392:\n        /* \"#utility.yul\":18084:18119   */\n      swap1\n      pop\n        /* \"#utility.yul\":18074:18125   */\n      swap2\n      swap1\n      pop\n      jump\t// out\n        /* \"#utility.yul\":18131:18221   */\n    tag_256:\n        /* \"#utility.yul\":18165:18172   */\n      0x00\n        /* \"#utility.yul\":18208:18213   */\n      dup2\n        /* \"#utility.yul\":18201:18214   */\n      iszero\n        /* \"#utility.yul\":18194:18215   */\n      iszero\n        /* \"#utility.yul\":18183:18215   */\n      swap1\n      pop\n        /* \"#utility.yul\":18173:18221   */\n      swap2\n      swap1\n      pop\n      jump\t// out\n        /* \"#utility.yul\":18227:18304   */\n    tag_259:\n        /* \"#utility.yul\":18264:18271   */\n      0x00\n        /* \"#utility.yul\":18293:18298   */\n      dup2\n        /* \"#utility.yul\":18282:18298   */\n      swap1\n      pop\n        /* \"#utility.yul\":18272:18304   */\n      swap2\n      swap1\n      pop\n      jump\t// out\n        /* \"#utility.yul\":18310:18399   */\n    tag_282:\n        /* \"#utility.yul\":18346:18353   */\n      0x00\n        /* \"#utility.yul\":18386:18392   */\n      0xffff\n        /* \"#utility.yul\":18379:18384   */\n      dup3\n        /* \"#utility.yul\":18375:18393   */\n      and\n        /* \"#utility.yul\":18364:18393   */\n      swap1\n      pop\n        /* \"#utility.yul\":18354:18399   */\n      swap2\n      swap1\n      pop\n      jump\t// out\n        /* \"#utility.yul\":18405:18531   */\n    tag_393:\n        /* \"#utility.yul\":18442:18449   */\n      0x00\n        /* \"#utility.yul\":18482:18524   */\n      0xffffffffffffffffffffffffffffffffffffffff\n        /* \"#utility.yul\":18475:18480   */\n      dup3\n        /* \"#utility.yul\":18471:18525   */\n      and\n        /* \"#utility.yul\":18460:18525   */\n      swap1\n      pop\n        /* \"#utility.yul\":18450:18531   */\n      swap2\n      swap1\n      pop\n      jump\t// out\n        /* \"#utility.yul\":18537:18614   */\n    tag_285:\n        /* \"#utility.yul\":18574:18581   */\n      0x00\n        /* \"#utility.yul\":18603:18608   */\n      dup2\n        /* \"#utility.yul\":18592:18608   */\n      swap1\n      pop\n        /* \"#utility.yul\":18582:18614   */\n      swap2\n      swap1\n      pop\n      jump\t// out\n        /* \"#utility.yul\":18620:18713   */\n    tag_292:\n        /* \"#utility.yul\":18656:18663   */\n      0x00\n        /* \"#utility.yul\":18696:18706   */\n      0xffffffff\n        /* \"#utility.yul\":18689:18694   */\n      dup3\n        /* \"#utility.yul\":18685:18707   */\n      and\n        /* \"#utility.yul\":18674:18707   */\n      swap1\n      pop\n        /* \"#utility.yul\":18664:18713   */\n      swap2\n      swap1\n      pop\n      jump\t// out\n        /* \"#utility.yul\":18719:18820   */\n    tag_296:\n        /* \"#utility.yul\":18755:18762   */\n      0x00\n        /* \"#utility.yul\":18795:18813   */\n      0xffffffffffffffff\n        /* \"#utility.yul\":18788:18793   */\n      dup3\n        /* \"#utility.yul\":18784:18814   */\n      and\n        /* \"#utility.yul\":18773:18814   */\n      swap1\n      pop\n        /* \"#utility.yul\":18763:18820   */\n      swap2\n      swap1\n      pop\n      jump\t// out\n        /* \"#utility.yul\":18826:18935   */\n    tag_304:\n        /* \"#utility.yul\":18862:18869   */\n      0x00\n        /* \"#utility.yul\":18902:18928   */\n      0xffffffffffffffffffffffff\n        /* \"#utility.yul\":18895:18900   */\n      dup3\n        /* \"#utility.yul\":18891:18929   */\n      and\n        /* \"#utility.yul\":18880:18929   */\n      swap1\n      pop\n        /* \"#utility.yul\":18870:18935   */\n      swap2\n      swap1\n      pop\n      jump\t// out\n        /* \"#utility.yul\":18941:19052   */\n    tag_300:\n        /* \"#utility.yul\":18990:18999   */\n      0x00\n        /* \"#utility.yul\":19023:19046   */\n      tag_403\n        /* \"#utility.yul\":19040:19045   */\n      dup3\n        /* \"#utility.yul\":19023:19046   */\n      tag_304\n      jump\t// in\n    tag_403:\n        /* \"#utility.yul\":19010:19046   */\n      swap1\n      pop\n        /* \"#utility.yul\":19000:19052   */\n      swap2\n      swap1\n      pop\n      jump\t// out\n        /* \"#utility.yul\":19058:19365   */\n    tag_267:\n        /* \"#utility.yul\":19126:19127   */\n      0x00\n        /* \"#utility.yul\":19136:19249   */\n    tag_405:\n        /* \"#utility.yul\":19150:19156   */\n      dup4\n        /* \"#utility.yul\":19147:19148   */\n      dup2\n        /* \"#utility.yul\":19144:19157   */\n      lt\n        /* \"#utility.yul\":19136:19249   */\n      iszero\n      tag_407\n      jumpi\n        /* \"#utility.yul\":19235:19236   */\n      dup1\n        /* \"#utility.yul\":19230:19233   */\n      dup3\n        /* \"#utility.yul\":19226:19237   */\n      add\n        /* \"#utility.yul\":19220:19238   */\n      mload\n        /* \"#utility.yul\":19216:19217   */\n      dup2\n        /* \"#utility.yul\":19211:19214   */\n      dup5\n        /* \"#utility.yul\":19207:19218   */\n      add\n        /* \"#utility.yul\":19200:19239   */\n      mstore\n        /* \"#utility.yul\":19172:19174   */\n      0x20\n        /* \"#utility.yul\":19169:19170   */\n      dup2\n        /* \"#utility.yul\":19165:19175   */\n      add\n        /* \"#utility.yul\":19160:19175   */\n      swap1\n      pop\n        /* \"#utility.yul\":19136:19249   */\n      jump(tag_405)\n    tag_407:\n        /* \"#utility.yul\":19267:19273   */\n      dup4\n        /* \"#utility.yul\":19264:19265   */\n      dup2\n        /* \"#utility.yul\":19261:19274   */\n      gt\n        /* \"#utility.yul\":19258:19260   */\n      iszero\n      tag_408\n      jumpi\n        /* \"#utility.yul\":19347:19348   */\n      0x00\n        /* \"#utility.yul\":19338:19344   */\n      dup5\n        /* \"#utility.yul\":19333:19336   */\n      dup5\n        /* \"#utility.yul\":19329:19345   */\n      add\n        /* \"#utility.yul\":19322:19349   */\n      mstore\n        /* \"#utility.yul\":19258:19260   */\n    tag_408:\n        /* \"#utility.yul\":19107:19365   */\n      pop\n      pop\n      pop\n      pop\n      jump\t// out\n        /* \"#utility.yul\":19371:19604   */\n    tag_78:\n        /* \"#utility.yul\":19410:19413   */\n      0x00\n        /* \"#utility.yul\":19433:19457   */\n      tag_410\n        /* \"#utility.yul\":19451:19456   */\n      dup3\n        /* \"#utility.yul\":19433:19457   */\n      tag_285\n      jump\t// in\n    tag_410:\n        /* \"#utility.yul\":19424:19457   */\n      swap2\n      pop\n        /* \"#utility.yul\":19479:19545   */\n      0xffffffffffffffffffffffffffffffffffffffffffffffffffffffffffffffff\n        /* \"#utility.yul\":19472:19477   */\n      dup3\n        /* \"#utility.yul\":19469:19546   */\n      eq\n        /* \"#utility.yul\":19466:19468   */\n      iszero\n      tag_411\n      jumpi\n        /* \"#utility.yul\":19549:19567   */\n      tag_412\n      tag_370\n      jump\t// in\n    tag_412:\n        /* \"#utility.yul\":19466:19468   */\n    tag_411:\n        /* \"#utility.yul\":19596:19597   */\n      0x01\n        /* \"#utility.yul\":19589:19594   */\n      dup3\n        /* \"#utility.yul\":19585:19598   */\n      add\n        /* \"#utility.yul\":19578:19598   */\n      swap1\n      pop\n        /* \"#utility.yul\":19414:19604   */\n      swap2\n      swap1\n      pop\n      jump\t// out\n        /* \"#utility.yul\":19610:19793   */\n    tag_121:\n        /* \"#utility.yul\":19648:19651   */\n      0x00\n        /* \"#utility.yul\":19671:19694   */\n      tag_414\n        /* \"#utility.yul\":19688:19693   */\n      dup3\n        /* \"#utility.yul\":19671:19694   */\n      tag_296\n      jump\t// in\n    tag_414:\n        /* \"#utility.yul\":19662:19694   */\n      swap2\n      pop\n        /* \"#utility.yul\":19716:19734   */\n      0xffffffffffffffff\n        /* \"#utility.yul\":19709:19714   */\n      dup3\n        /* \"#utility.yul\":19706:19735   */\n      eq\n        /* \"#utility.yul\":19703:19705   */\n      iszero\n      tag_415\n      jumpi\n        /* \"#utility.yul\":19738:19756   */\n      tag_416\n      tag_370\n      jump\t// in\n    tag_416:\n        /* \"#utility.yul\":19703:19705   */\n    tag_415:\n        /* \"#utility.yul\":19785:19786   */\n      0x01\n        /* \"#utility.yul\":19778:19783   */\n      dup3\n        /* \"#utility.yul\":19774:19787   */\n      add\n        /* \"#utility.yul\":19767:19787   */\n      swap1\n      pop\n        /* \"#utility.yul\":19652:19793   */\n      swap2\n      swap1\n      pop\n      jump\t// out\n        /* \"#utility.yul\":19799:19979   */\n    tag_370:\n        /* \"#utility.yul\":19847:19924   */\n      0x4e487b7100000000000000000000000000000000000000000000000000000000\n        /* \"#utility.yul\":19844:19845   */\n      0x00\n        /* \"#utility.yul\":19837:19925   */\n      mstore\n        /* \"#utility.yul\":19944:19948   */\n      0x11\n        /* \"#utility.yul\":19941:19942   */\n      0x04\n        /* \"#utility.yul\":19934:19949   */\n      mstore\n        /* \"#utility.yul\":19968:19972   */\n      0x24\n        /* \"#utility.yul\":19965:19966   */\n      0x00\n        /* \"#utility.yul\":19958:19973   */\n      revert\n        /* \"#utility.yul\":19985:20150   */\n    tag_273:\n        /* \"#utility.yul\":20125:20142   */\n      0x6e6f7420696d706c656d656e7465640000000000000000000000000000000000\n        /* \"#utility.yul\":20121:20122   */\n      0x00\n        /* \"#utility.yul\":20113:20119   */\n      dup3\n        /* \"#utility.yul\":20109:20123   */\n      add\n        /* \"#utility.yul\":20102:20143   */\n      mstore\n        /* \"#utility.yul\":20091:20150   */\n      pop\n      jump\t// out\n        /* \"#utility.yul\":20156:20325   */\n    tag_278:\n        /* \"#utility.yul\":20296:20317   */\n      0x6e6f6e6578697374656e74207265717565737400000000000000000000000000\n        /* \"#utility.yul\":20292:20293   */\n      0x00\n        /* \"#utility.yul\":20284:20290   */\n      dup3\n        /* \"#utility.yul\":20280:20294   */\n      add\n        /* \"#utility.yul\":20273:20318   */\n      mstore\n        /* \"#utility.yul\":20262:20325   */\n      pop\n      jump\t// out\n        /* \"#utility.yul\":20331:20453   */\n    tag_146:\n        /* \"#utility.yul\":20404:20428   */\n      tag_421\n        /* \"#utility.yul\":20422:20427   */\n      dup2\n        /* \"#utility.yul\":20404:20428   */\n      tag_207\n      jump\t// in\n    tag_421:\n        /* \"#utility.yul\":20397:20402   */\n      dup2\n        /* \"#utility.yul\":20394:20429   */\n      eq\n        /* \"#utility.yul\":20384:20386   */\n      tag_422\n      jumpi\n        /* \"#utility.yul\":20443:20444   */\n      0x00\n        /* \"#utility.yul\":20440:20441   */\n      dup1\n        /* \"#utility.yul\":20433:20445   */\n      revert\n        /* \"#utility.yul\":20384:20386   */\n    tag_422:\n        /* \"#utility.yul\":20374:20453   */\n      pop\n      jump\t// out\n        /* \"#utility.yul\":20459:20581   */\n    tag_150:\n        /* \"#utility.yul\":20532:20556   */\n      tag_424\n        /* \"#utility.yul\":20550:20555   */\n      dup2\n        /* \"#utility.yul\":20532:20556   */\n      tag_259\n      jump\t// in\n    tag_424:\n        /* \"#utility.yul\":20525:20530   */\n      dup2\n        /* \"#utility.yul\":20522:20557   */\n      eq\n        /* \"#utility.yul\":20512:20514   */\n      tag_425\n      jumpi\n        /* \"#utility.yul\":20571:20572   */\n      0x00\n        /* \"#utility.yul\":20568:20569   */\n      dup1\n        /* \"#utility.yul\":20561:20573   */\n      revert\n        /* \"#utility.yul\":20512:20514   */\n    tag_425:\n        /* \"#utility.yul\":20502:20581   */\n      pop\n      jump\t// out\n        /* \"#utility.yul\":20587:20707   */\n    tag_154:\n        /* \"#utility.yul\":20659:20682   */\n      tag_427\n        /* \"#utility.yul\":20676:20681   */\n      dup2\n        /* \"#utility.yul\":20659:20682   */\n      tag_282\n      jump\t// in\n    tag_427:\n        /* \"#utility.yul\":20652:20657   */\n      dup2\n        /* \"#utility.yul\":20649:20683   */\n      eq\n        /* \"#utility.yul\":20639:20641   */\n      tag_428\n      jumpi\n        /* \"#utility.yul\":20697:20698   */\n      0x00\n        /* \"#utility.yul\":20694:20695   */\n      dup1\n        /* \"#utility.yul\":20687:20699   */\n      revert\n        /* \"#utility.yul\":20639:20641   */\n    tag_428:\n        /* \"#utility.yul\":20629:20707   */\n      pop\n      jump\t// out\n        /* \"#utility.yul\":20713:20835   */\n    tag_158:\n        /* \"#utility.yul\":20786:20810   */\n      tag_430\n        /* \"#utility.yul\":20804:20809   */\n      dup2\n        /* \"#utility.yul\":20786:20810   */\n      tag_285\n      jump\t// in\n    tag_430:\n        /* \"#utility.yul\":20779:20784   */\n      dup2\n        /* \"#utility.yul\":20776:20811   */\n      eq\n        /* \"#utility.yul\":20766:20768   */\n      tag_431\n      jumpi\n        /* \"#utility.yul\":20825:20826   */\n      0x00\n        /* \"#utility.yul\":20822:20823   */\n      dup1\n        /* \"#utility.yul\":20815:20827   */\n      revert\n        /* \"#utility.yul\":20766:20768   */\n    tag_431:\n        /* \"#utility.yul\":20756:20835   */\n      pop\n      jump\t// out\n        /* \"#utility.yul\":20841:20961   */\n    tag_162:\n        /* \"#utility.yul\":20913:20936   */\n      tag_433\n        /* \"#utility.yul\":20930:20935   */\n      dup2\n        /* \"#utility.yul\":20913:20936   */\n      tag_292\n      jump\t// in\n    tag_433:\n        /* \"#utility.yul\":20906:20911   */\n      dup2\n        /* \"#utility.yul\":20903:20937   */\n      eq\n        /* \"#utility.yul\":20893:20895   */\n      tag_434\n      jumpi\n        /* \"#utility.yul\":20951:20952   */\n      0x00\n        /* \"#utility.yul\":20948:20949   */\n      dup1\n        /* \"#utility.yul\":20941:20953   */\n      revert\n        /* \"#utility.yul\":20893:20895   */\n    tag_434:\n        /* \"#utility.yul\":20883:20961   */\n      pop\n      jump\t// out\n        /* \"#utility.yul\":20967:21087   */\n    tag_166:\n        /* \"#utility.yul\":21039:21062   */\n      tag_436\n        /* \"#utility.yul\":21056:21061   */\n      dup2\n        /* \"#utility.yul\":21039:21062   */\n      tag_296\n      jump\t// in\n    tag_436:\n        /* \"#utility.yul\":21032:21037   */\n      dup2\n        /* \"#utility.yul\":21029:21063   */\n      eq\n        /* \"#utility.yul\":21019:21021   */\n      tag_437\n      jumpi\n        /* \"#utility.yul\":21077:21078   */\n      0x00\n        /* \"#utility.yul\":21074:21075   */\n      dup1\n        /* \"#utility.yul\":21067:21079   */\n      revert\n        /* \"#utility.yul\":21019:21021   */\n    tag_437:\n        /* \"#utility.yul\":21009:21087   */\n      pop\n      jump\t// out\n        /* \"#utility.yul\":21093:21213   */\n    tag_170:\n        /* \"#utility.yul\":21165:21188   */\n      tag_439\n        /* \"#utility.yul\":21182:21187   */\n      dup2\n        /* \"#utility.yul\":21165:21188   */\n      tag_304\n      jump\t// in\n    tag_439:\n        /* \"#utility.yul\":21158:21163   */\n      dup2\n        /* \"#utility.yul\":21155:21189   */\n      eq\n        /* \"#utility.yul\":21145:21147   */\n      tag_440\n      jumpi\n        /* \"#utility.yul\":21203:21204   */\n      0x00\n        /* \"#utility.yul\":21200:21201   */\n      dup1\n        /* \"#utility.yul\":21193:21205   */\n      revert\n        /* \"#utility.yul\":21145:21147   */\n    tag_440:\n        /* \"#utility.yul\":21135:21213   */\n      pop\n      jump\t// out\n\n    auxdata: 0xa26469706673582212206523a9602e57f784afd6954e5a01790a0edf0c2d2ad3b1bb16fe575cde79721a64736f6c63430008040033\n}\n",
				"bytecode": {
					"linkReferences": {},
					"object": "60c06040526001805560646002553480156200001a57600080fd5b5060405162002045380380620020458339818101604052810190620000409190620000ad565b816bffffffffffffffffffffffff166080816bffffffffffffffffffffffff1660a01b81525050806bffffffffffffffffffffffff1660a0816bffffffffffffffffffffffff1660a01b81525050505062000120565b600081519050620000a78162000106565b92915050565b60008060408385031215620000c157600080fd5b6000620000d18582860162000096565b9250506020620000e48582860162000096565b9150509250929050565b60006bffffffffffffffffffffffff82169050919050565b6200011181620000ee565b81146200011d57600080fd5b50565b60805160a01c60a05160a01c611eeb6200015a600039600081816108de0152610d4e01526000818161033701526109230152611eeb6000f3fe608060405234801561001057600080fd5b50600436106100ce5760003560e01c8063823597401161008c578063a410347f11610066578063a410347f146101eb578063a47c769614610209578063afc69b531461023c578063d7ae1d3014610258576100ce565b806382359740146101955780639f87fad7146101b1578063a21a23e4146101cd576100ce565b8062012291146100d357806304c357cb146100f35780633d18651e1461010f5780635d3b1d301461012d5780637341c10c1461015d578063808974ff14610179575b600080fd5b6100db610274565b6040516100ea93929190611825565b60405180910390f35b61010d60048036038101906101089190611494565b6102fa565b005b610117610335565b604051610124919061197c565b60405180910390f35b610147600480360381019061014291906113b8565b610359565b6040516101549190611863565b60405180910390f35b61017760048036038101906101729190611494565b610575565b005b610193600480360381019061018e919061142f565b6105b0565b005b6101af60048036038101906101aa919061146b565b610b21565b005b6101cb60048036038101906101c69190611494565b610b5c565b005b6101d5610b97565b6040516101e29190611961565b60405180910390f35b6101f3610d4c565b604051610200919061197c565b60405180910390f35b610223600480360381019061021e919061146b565b610d70565b6040516102339493929190611997565b60405180910390f35b610256600480360381019061025191906114d0565b610f37565b005b610272600480360381019061026d9190611494565b611102565b005b60008060606003621e8480600067ffffffffffffffff8111156102c0577f4e487b7100000000000000000000000000000000000000000000000000000000600052604160045260246000fd5b6040519080825280602002602001820160405280156102ee5781602001602082028036833780820191505090505b50925092509250909192565b6040517f08c379a000000000000000000000000000000000000000000000000000000000815260040161032c906117e5565b60405180910390fd5b7f000000000000000000000000000000000000000000000000000000000000000081565b60008073ffffffffffffffffffffffffffffffffffffffff16600360008767ffffffffffffffff1667ffffffffffffffff16815260200190815260200160002060000160009054906101000a900473ffffffffffffffffffffffffffffffffffffffff1673ffffffffffffffffffffffffffffffffffffffff16141561040b576040517f1f6a65b600000000000000000000000000000000000000000000000000000000815260040160405180910390fd5b60006001600081548092919061042090611d19565b91905055905060006002600081548092919061043b90611d19565b91905055905060405180606001604052808867ffffffffffffffff1681526020018663ffffffff1681526020018563ffffffff168152506004600084815260200190815260200160002060008201518160000160006101000a81548167ffffffffffffffff021916908367ffffffffffffffff16021790555060208201518160000160086101000a81548163ffffffff021916908363ffffffff160217905550604082015181600001600c6101000a81548163ffffffff021916908363ffffffff1602179055509050503373ffffffffffffffffffffffffffffffffffffffff168767ffffffffffffffff16897f63373d1c4696214b898952999c9aaec57dac1ee2723cec59bea6888f489a977285858b8b8b60405161055f9594939291906118d7565b60405180910390a4819250505095945050505050565b6040517f08c379a00000000000000000000000000000000000000000000000000000000081526004016105a7906117e5565b60405180910390fd5b60005a905060006004600085815260200190815260200160002060000160009054906101000a900467ffffffffffffffff1667ffffffffffffffff16141561062d576040517f08c379a000000000000000000000000000000000000000000000000000000000815260040161062490611805565b60405180910390fd5b6000600460008581526020019081526020016000206040518060600160405290816000820160009054906101000a900467ffffffffffffffff1667ffffffffffffffff1667ffffffffffffffff1681526020016000820160089054906101000a900463ffffffff1663ffffffff1663ffffffff16815260200160008201600c9054906101000a900463ffffffff1663ffffffff1663ffffffff168152505090506000816040015163ffffffff1667ffffffffffffffff811115610719577f4e487b7100000000000000000000000000000000000000000000000000000000600052604160045260246000fd5b6040519080825280602002602001820160405280156107475781602001602082028036833780820191505090505b50905060005b826040015163ffffffff168110156107e35785816040516020016107729291906118ae565b6040516020818303038152906040528051906020012060001c8282815181106107c4577f4e487b7100000000000000000000000000000000000000000000000000000000600052603260045260246000fd5b60200260200101818152505080806107db90611d19565b91505061074d565b50600080631fe543e360e01b878460405160240161080292919061187e565b604051602081830303815290604052907bffffffffffffffffffffffffffffffffffffffffffffffffffffffff19166020820180517bffffffffffffffffffffffffffffffffffffffffffffffffffffffff8381831617835250505050905060008673ffffffffffffffffffffffffffffffffffffffff16856020015163ffffffff1683604051610893919061178a565b60006040518083038160008787f1925050503d80600081146108d1576040519150601f19603f3d011682016040523d82523d6000602084013e6108d6565b606091505b5050905060007f00000000000000000000000000000000000000000000000000000000000000006bffffffffffffffffffffffff165a886109179190611bd0565b6109219190611b76565b7f00000000000000000000000000000000000000000000000000000000000000006bffffffffffffffffffffffff1661095a9190611ade565b9050806bffffffffffffffffffffffff1660036000886000015167ffffffffffffffff1667ffffffffffffffff16815260200190815260200160002060000160149054906101000a90046bffffffffffffffffffffffff166bffffffffffffffffffffffff1610156109f8576040517ff4d678b800000000000000000000000000000000000000000000000000000000815260040160405180910390fd5b8060036000886000015167ffffffffffffffff1667ffffffffffffffff16815260200190815260200160002060000160148282829054906101000a90046bffffffffffffffffffffffff16610a4d9190611c04565b92506101000a8154816bffffffffffffffffffffffff02191690836bffffffffffffffffffffffff160217905550600460008a8152602001908152602001600020600080820160006101000a81549067ffffffffffffffff02191690556000820160086101000a81549063ffffffff021916905560008201600c6101000a81549063ffffffff02191690555050887f7dffc5ae5ee4e2e4df1651cf6ad329a73cebdb728f37ea0187b9b17e036756e48a8385604051610b0e9392919061192a565b60405180910390a2505050505050505050565b6040517f08c379a0000000000000000000000000000000000000000000000000000000008152600401610b53906117e5565b60405180910390fd5b6040517f08c379a0000000000000000000000000000000000000000000000000000000008152600401610b8e906117e5565b60405180910390fd5b600080600081819054906101000a900467ffffffffffffffff1680929190610bbe90611d62565b91906101000a81548167ffffffffffffffff021916908367ffffffffffffffff1602179055505060405180604001604052803373ffffffffffffffffffffffffffffffffffffffff16815260200160006bffffffffffffffffffffffff16815250600360008060009054906101000a900467ffffffffffffffff1667ffffffffffffffff1667ffffffffffffffff16815260200190815260200160002060008201518160000160006101000a81548173ffffffffffffffffffffffffffffffffffffffff021916908373ffffffffffffffffffffffffffffffffffffffff16021790555060208201518160000160146101000a8154816bffffffffffffffffffffffff02191690836bffffffffffffffffffffffff16021790555090505060008054906101000a900467ffffffffffffffff1667ffffffffffffffff167f464722b4166576d3dcbba877b999bc35cf911f4eaf434b7eba68fa113951d0bf33604051610d2a91906117a1565b60405180910390a260008054906101000a900467ffffffffffffffff16905090565b7f000000000000000000000000000000000000000000000000000000000000000081565b60008060006060600073ffffffffffffffffffffffffffffffffffffffff16600360008767ffffffffffffffff1667ffffffffffffffff16815260200190815260200160002060000160009054906101000a900473ffffffffffffffffffffffffffffffffffffffff1673ffffffffffffffffffffffffffffffffffffffff161415610e28576040517f1f6a65b600000000000000000000000000000000000000000000000000000000815260040160405180910390fd5b600360008667ffffffffffffffff1667ffffffffffffffff16815260200190815260200160002060000160149054906101000a90046bffffffffffffffffffffffff166000600360008867ffffffffffffffff1667ffffffffffffffff16815260200190815260200160002060000160009054906101000a900473ffffffffffffffffffffffffffffffffffffffff16600067ffffffffffffffff811115610ef9577f4e487b7100000000000000000000000000000000000000000000000000000000600052604160045260246000fd5b604051908082528060200260200182016040528015610f275781602001602082028036833780820191505090505b5093509350935093509193509193565b600073ffffffffffffffffffffffffffffffffffffffff16600360008467ffffffffffffffff1667ffffffffffffffff16815260200190815260200160002060000160009054906101000a900473ffffffffffffffffffffffffffffffffffffffff1673ffffffffffffffffffffffffffffffffffffffff161415610fe8576040517f1f6a65b600000000000000000000000000000000000000000000000000000000815260040160405180910390fd5b6000600360008467ffffffffffffffff1667ffffffffffffffff16815260200190815260200160002060000160149054906101000a90046bffffffffffffffffffffffff16905081600360008567ffffffffffffffff1667ffffffffffffffff16815260200190815260200160002060000160148282829054906101000a90046bffffffffffffffffffffffff166110809190611b34565b92506101000a8154816bffffffffffffffffffffffff02191690836bffffffffffffffffffffffff1602179055508267ffffffffffffffff167fd39ec07f4e209f627a4c427971473820dc129761ba28de8906bd56f57101d4f88284846110e79190611b34565b6040516110f59291906119e3565b60405180910390a2505050565b816000600360008367ffffffffffffffff1667ffffffffffffffff16815260200190815260200160002060000160009054906101000a900473ffffffffffffffffffffffffffffffffffffffff169050600073ffffffffffffffffffffffffffffffffffffffff168173ffffffffffffffffffffffffffffffffffffffff1614156111b9576040517f1f6a65b600000000000000000000000000000000000000000000000000000000815260040160405180910390fd5b8073ffffffffffffffffffffffffffffffffffffffff163373ffffffffffffffffffffffffffffffffffffffff161461122957806040517fd8a3fb5200000000000000000000000000000000000000000000000000000000815260040161122091906117a1565b60405180910390fd5b8367ffffffffffffffff167fe8ed5b475a5b5987aa9165e8731bb78043f39eee32ec5a1169a89e27fcd4981584600360008867ffffffffffffffff1667ffffffffffffffff16815260200190815260200160002060000160149054906101000a90046bffffffffffffffffffffffff166040516112a79291906117bc565b60405180910390a2600360008567ffffffffffffffff1667ffffffffffffffff168152602001908152602001600020600080820160006101000a81549073ffffffffffffffffffffffffffffffffffffffff02191690556000820160146101000a8154906bffffffffffffffffffffffff0219169055505050505050565b60008135905061133481611e14565b92915050565b60008135905061134981611e2b565b92915050565b60008135905061135e81611e42565b92915050565b60008135905061137381611e59565b92915050565b60008135905061138881611e70565b92915050565b60008135905061139d81611e87565b92915050565b6000813590506113b281611e9e565b92915050565b600080600080600060a086880312156113d057600080fd5b60006113de8882890161133a565b95505060206113ef8882890161138e565b94505060406114008882890161134f565b935050606061141188828901611379565b925050608061142288828901611379565b9150509295509295909350565b6000806040838503121561144257600080fd5b600061145085828601611364565b925050602061146185828601611325565b9150509250929050565b60006020828403121561147d57600080fd5b600061148b8482850161138e565b91505092915050565b600080604083850312156114a757600080fd5b60006114b58582860161138e565b92505060206114c685828601611325565b9150509250929050565b600080604083850312156114e357600080fd5b60006114f18582860161138e565b9250506020611502858286016113a3565b9150509250929050565b60006115188383611554565b60208301905092915050565b6000611530838361169b565b60208301905092915050565b60006115488383611730565b60208301905092915050565b61155d81611c38565b82525050565b61156c81611c38565b82525050565b600061157d82611a3c565b6115878185611a8f565b935061159283611a0c565b8060005b838110156115c35781516115aa888261150c565b97506115b583611a68565b925050600181019050611596565b5085935050505092915050565b60006115db82611a47565b6115e58185611aa0565b93506115f083611a1c565b8060005b838110156116215781516116088882611524565b975061161383611a75565b9250506001810190506115f4565b5085935050505092915050565b600061163982611a52565b6116438185611ab1565b935061164e83611a2c565b8060005b8381101561167f578151611666888261153c565b975061167183611a82565b925050600181019050611652565b5085935050505092915050565b61169581611c4a565b82525050565b6116a481611c56565b82525050565b60006116b582611a5d565b6116bf8185611ac2565b93506116cf818560208601611ce6565b80840191505092915050565b60006116e8600f83611acd565b91506116f382611dc2565b602082019050919050565b600061170b601383611acd565b915061171682611deb565b602082019050919050565b61172a81611c60565b82525050565b61173981611c8e565b82525050565b61174881611c8e565b82525050565b61175781611c98565b82525050565b61176681611ca8565b82525050565b61177581611cd4565b82525050565b61178481611cbc565b82525050565b600061179682846116aa565b915081905092915050565b60006020820190506117b66000830184611563565b92915050565b60006040820190506117d16000830185611563565b6117de602083018461176c565b9392505050565b600060208201905081810360008301526117fe816116db565b9050919050565b6000602082019050818103600083015261181e816116fe565b9050919050565b600060608201905061183a6000830186611721565b611847602083018561174e565b818103604083015261185981846115d0565b9050949350505050565b6000602082019050611878600083018461173f565b92915050565b6000604082019050611893600083018561173f565b81810360208301526118a5818461162e565b90509392505050565b60006040820190506118c3600083018561173f565b6118d0602083018461173f565b9392505050565b600060a0820190506118ec600083018861173f565b6118f9602083018761173f565b6119066040830186611721565b611913606083018561174e565b611920608083018461174e565b9695505050505050565b600060608201905061193f600083018661173f565b61194c602083018561177b565b611959604083018461168c565b949350505050565b6000602082019050611976600083018461175d565b92915050565b6000602082019050611991600083018461177b565b92915050565b60006080820190506119ac600083018761177b565b6119b9602083018661175d565b6119c66040830185611563565b81810360608301526119d88184611572565b905095945050505050565b60006040820190506119f8600083018561176c565b611a05602083018461176c565b9392505050565b6000819050602082019050919050565b6000819050602082019050919050565b6000819050602082019050919050565b600081519050919050565b600081519050919050565b600081519050919050565b600081519050919050565b6000602082019050919050565b6000602082019050919050565b6000602082019050919050565b600082825260208201905092915050565b600082825260208201905092915050565b600082825260208201905092915050565b600081905092915050565b600082825260208201905092915050565b6000611ae982611c8e565b9150611af483611c8e565b9250827fffffffffffffffffffffffffffffffffffffffffffffffffffffffffffffffff03821115611b2957611b28611d93565b5b828201905092915050565b6000611b3f82611cbc565b9150611b4a83611cbc565b9250826bffffffffffffffffffffffff03821115611b6b57611b6a611d93565b5b828201905092915050565b6000611b8182611c8e565b9150611b8c83611c8e565b9250817fffffffffffffffffffffffffffffffffffffffffffffffffffffffffffffffff0483118215151615611bc557611bc4611d93565b5b828202905092915050565b6000611bdb82611c8e565b9150611be683611c8e565b925082821015611bf957611bf8611d93565b5b828203905092915050565b6000611c0f82611cbc565b9150611c1a83611cbc565b925082821015611c2d57611c2c611d93565b5b828203905092915050565b6000611c4382611c6e565b9050919050565b60008115159050919050565b6000819050919050565b600061ffff82169050919050565b600073ffffffffffffffffffffffffffffffffffffffff82169050919050565b6000819050919050565b600063ffffffff82169050919050565b600067ffffffffffffffff82169050919050565b60006bffffffffffffffffffffffff82169050919050565b6000611cdf82611cbc565b9050919050565b60005b83811015611d04578082015181840152602081019050611ce9565b83811115611d13576000848401525b50505050565b6000611d2482611c8e565b91507fffffffffffffffffffffffffffffffffffffffffffffffffffffffffffffffff821415611d5757611d56611d93565b5b600182019050919050565b6000611d6d82611ca8565b915067ffffffffffffffff821415611d8857611d87611d93565b5b600182019050919050565b7f4e487b7100000000000000000000000000000000000000000000000000000000600052601160045260246000fd5b7f6e6f7420696d706c656d656e7465640000000000000000000000000000000000600082015250565b7f6e6f6e6578697374656e74207265717565737400000000000000000000000000600082015250565b611e1d81611c38565b8114611e2857600080fd5b50565b611e3481611c56565b8114611e3f57600080fd5b50565b611e4b81611c60565b8114611e5657600080fd5b50565b611e6281611c8e565b8114611e6d57600080fd5b50565b611e7981611c98565b8114611e8457600080fd5b50565b611e9081611ca8565b8114611e9b57600080fd5b50565b611ea781611cbc565b8114611eb257600080fd5b5056fea26469706673582212206523a9602e57f784afd6954e5a01790a0edf0c2d2ad3b1bb16fe575cde79721a64736f6c63430008040033",
					"opcodes": "PUSH1 0xC0 PUSH1 0x40 MSTORE PUSH1 0x1 DUP1 SSTORE PUSH1 0x64 PUSH1 0x2 SSTORE CALLVALUE DUP1 ISZERO PUSH3 0x1A JUMPI PUSH1 0x0 DUP1 REVERT JUMPDEST POP PUSH1 0x40 MLOAD PUSH3 0x2045 CODESIZE SUB DUP1 PUSH3 0x2045 DUP4 CODECOPY DUP2 DUP2 ADD PUSH1 0x40 MSTORE DUP2 ADD SWAP1 PUSH3 0x40 SWAP2 SWAP1 PUSH3 0xAD JUMP JUMPDEST DUP2 PUSH12 0xFFFFFFFFFFFFFFFFFFFFFFFF AND PUSH1 0x80 DUP2 PUSH12 0xFFFFFFFFFFFFFFFFFFFFFFFF AND PUSH1 0xA0 SHL DUP2 MSTORE POP POP DUP1 PUSH12 0xFFFFFFFFFFFFFFFFFFFFFFFF AND PUSH1 0xA0 DUP2 PUSH12 0xFFFFFFFFFFFFFFFFFFFFFFFF AND PUSH1 0xA0 SHL DUP2 MSTORE POP POP POP POP PUSH3 0x120 JUMP JUMPDEST PUSH1 0x0 DUP2 MLOAD SWAP1 POP PUSH3 0xA7 DUP2 PUSH3 0x106 JUMP JUMPDEST SWAP3 SWAP2 POP POP JUMP JUMPDEST PUSH1 0x0 DUP1 PUSH1 0x40 DUP4 DUP6 SUB SLT ISZERO PUSH3 0xC1 JUMPI PUSH1 0x0 DUP1 REVERT JUMPDEST PUSH1 0x0 PUSH3 0xD1 DUP6 DUP3 DUP7 ADD PUSH3 0x96 JUMP JUMPDEST SWAP3 POP POP PUSH1 0x20 PUSH3 0xE4 DUP6 DUP3 DUP7 ADD PUSH3 0x96 JUMP JUMPDEST SWAP2 POP POP SWAP3 POP SWAP3 SWAP1 POP JUMP JUMPDEST PUSH1 0x0 PUSH12 0xFFFFFFFFFFFFFFFFFFFFFFFF DUP3 AND SWAP1 POP SWAP2 SWAP1 POP JUMP JUMPDEST PUSH3 0x111 DUP2 PUSH3 0xEE JUMP JUMPDEST DUP2 EQ PUSH3 0x11D JUMPI PUSH1 0x0 DUP1 REVERT JUMPDEST POP JUMP JUMPDEST PUSH1 0x80 MLOAD PUSH1 0xA0 SHR PUSH1 0xA0 MLOAD PUSH1 0xA0 SHR PUSH2 0x1EEB PUSH3 0x15A PUSH1 0x0 CODECOPY PUSH1 0x0 DUP2 DUP2 PUSH2 0x8DE ADD MSTORE PUSH2 0xD4E ADD MSTORE PUSH1 0x0 DUP2 DUP2 PUSH2 0x337 ADD MSTORE PUSH2 0x923 ADD MSTORE PUSH2 0x1EEB PUSH1 0x0 RETURN INVALID PUSH1 0x80 PUSH1 0x40 MSTORE CALLVALUE DUP1 ISZERO PUSH2 0x10 JUMPI PUSH1 0x0 DUP1 REVERT JUMPDEST POP PUSH1 0x4 CALLDATASIZE LT PUSH2 0xCE JUMPI PUSH1 0x0 CALLDATALOAD PUSH1 0xE0 SHR DUP1 PUSH4 0x82359740 GT PUSH2 0x8C JUMPI DUP1 PUSH4 0xA410347F GT PUSH2 0x66 JUMPI DUP1 PUSH4 0xA410347F EQ PUSH2 0x1EB JUMPI DUP1 PUSH4 0xA47C7696 EQ PUSH2 0x209 JUMPI DUP1 PUSH4 0xAFC69B53 EQ PUSH2 0x23C JUMPI DUP1 PUSH4 0xD7AE1D30 EQ PUSH2 0x258 JUMPI PUSH2 0xCE JUMP JUMPDEST DUP1 PUSH4 0x82359740 EQ PUSH2 0x195 JUMPI DUP1 PUSH4 0x9F87FAD7 EQ PUSH2 0x1B1 JUMPI DUP1 PUSH4 0xA21A23E4 EQ PUSH2 0x1CD JUMPI PUSH2 0xCE JUMP JUMPDEST DUP1 PUSH3 0x12291 EQ PUSH2 0xD3 JUMPI DUP1 PUSH4 0x4C357CB EQ PUSH2 0xF3 JUMPI DUP1 PUSH4 0x3D18651E EQ PUSH2 0x10F JUMPI DUP1 PUSH4 0x5D3B1D30 EQ PUSH2 0x12D JUMPI DUP1 PUSH4 0x7341C10C EQ PUSH2 0x15D JUMPI DUP1 PUSH4 0x808974FF EQ PUSH2 0x179 JUMPI JUMPDEST PUSH1 0x0 DUP1 REVERT JUMPDEST PUSH2 0xDB PUSH2 0x274 JUMP JUMPDEST PUSH1 0x40 MLOAD PUSH2 0xEA SWAP4 SWAP3 SWAP2 SWAP1 PUSH2 0x1825 JUMP JUMPDEST PUSH1 0x40 MLOAD DUP1 SWAP2 SUB SWAP1 RETURN JUMPDEST PUSH2 0x10D PUSH1 0x4 DUP1 CALLDATASIZE SUB DUP2 ADD SWAP1 PUSH2 0x108 SWAP2 SWAP1 PUSH2 0x1494 JUMP JUMPDEST PUSH2 0x2FA JUMP JUMPDEST STOP JUMPDEST PUSH2 0x117 PUSH2 0x335 JUMP JUMPDEST PUSH1 0x40 MLOAD PUSH2 0x124 SWAP2 SWAP1 PUSH2 0x197C JUMP JUMPDEST PUSH1 0x40 MLOAD DUP1 SWAP2 SUB SWAP1 RETURN JUMPDEST PUSH2 0x147 PUSH1 0x4 DUP1 CALLDATASIZE SUB DUP2 ADD SWAP1 PUSH2 0x142 SWAP2 SWAP1 PUSH2 0x13B8 JUMP JUMPDEST PUSH2 0x359 JUMP JUMPDEST PUSH1 0x40 MLOAD PUSH2 0x154 SWAP2 SWAP1 PUSH2 0x1863 JUMP JUMPDEST PUSH1 0x40 MLOAD DUP1 SWAP2 SUB SWAP1 RETURN JUMPDEST PUSH2 0x177 PUSH1 0x4 DUP1 CALLDATASIZE SUB DUP2 ADD SWAP1 PUSH2 0x172 SWAP2 SWAP1 PUSH2 0x1494 JUMP JUMPDEST PUSH2 0x575 JUMP JUMPDEST STOP JUMPDEST PUSH2 0x193 PUSH1 0x4 DUP1 CALLDATASIZE SUB DUP2 ADD SWAP1 PUSH2 0x18E SWAP2 SWAP1 PUSH2 0x142F JUMP JUMPDEST PUSH2 0x5B0 JUMP JUMPDEST STOP JUMPDEST PUSH2 0x1AF PUSH1 0x4 DUP1 CALLDATASIZE SUB DUP2 ADD SWAP1 PUSH2 0x1AA SWAP2 SWAP1 PUSH2 0x146B JUMP JUMPDEST PUSH2 0xB21 JUMP JUMPDEST STOP JUMPDEST PUSH2 0x1CB PUSH1 0x4 DUP1 CALLDATASIZE SUB DUP2 ADD SWAP1 PUSH2 0x1C6 SWAP2 SWAP1 PUSH2 0x1494 JUMP JUMPDEST PUSH2 0xB5C JUMP JUMPDEST STOP JUMPDEST PUSH2 0x1D5 PUSH2 0xB97 JUMP JUMPDEST PUSH1 0x40 MLOAD PUSH2 0x1E2 SWAP2 SWAP1 PUSH2 0x1961 JUMP JUMPDEST PUSH1 0x40 MLOAD DUP1 SWAP2 SUB SWAP1 RETURN JUMPDEST PUSH2 0x1F3 PUSH2 0xD4C JUMP JUMPDEST PUSH1 0x40 MLOAD PUSH2 0x200 SWAP2 SWAP1 PUSH2 0x197C JUMP JUMPDEST PUSH1 0x40 MLOAD DUP1 SWAP2 SUB SWAP1 RETURN JUMPDEST PUSH2 0x223 PUSH1 0x4 DUP1 CALLDATASIZE SUB DUP2 ADD SWAP1 PUSH2 0x21E SWAP2 SWAP1 PUSH2 0x146B JUMP JUMPDEST PUSH2 0xD70 JUMP JUMPDEST PUSH1 0x40 MLOAD PUSH2 0x233 SWAP5 SWAP4 SWAP3 SWAP2 SWAP1 PUSH2 0x1997 JUMP JUMPDEST PUSH1 0x40 MLOAD DUP1 SWAP2 SUB SWAP1 RETURN JUMPDEST PUSH2 0x256 PUSH1 0x4 DUP1 CALLDATASIZE SUB DUP2 ADD SWAP1 PUSH2 0x251 SWAP2 SWAP1 PUSH2 0x14D0 JUMP JUMPDEST PUSH2 0xF37 JUMP JUMPDEST STOP JUMPDEST PUSH2 0x272 PUSH1 0x4 DUP1 CALLDATASIZE SUB DUP2 ADD SWAP1 PUSH2 0x26D SWAP2 SWAP1 PUSH2 0x1494 JUMP JUMPDEST PUSH2 0x1102 JUMP JUMPDEST STOP JUMPDEST PUSH1 0x0 DUP1 PUSH1 0x60 PUSH1 0x3 PUSH3 0x1E8480 PUSH1 0x0 PUSH8 0xFFFFFFFFFFFFFFFF DUP2 GT ISZERO PUSH2 0x2C0 JUMPI PUSH32 0x4E487B7100000000000000000000000000000000000000000000000000000000 PUSH1 0x0 MSTORE PUSH1 0x41 PUSH1 0x4 MSTORE PUSH1 0x24 PUSH1 0x0 REVERT JUMPDEST PUSH1 0x40 MLOAD SWAP1 DUP1 DUP3 MSTORE DUP1 PUSH1 0x20 MUL PUSH1 0x20 ADD DUP3 ADD PUSH1 0x40 MSTORE DUP1 ISZERO PUSH2 0x2EE JUMPI DUP2 PUSH1 0x20 ADD PUSH1 0x20 DUP3 MUL DUP1 CALLDATASIZE DUP4 CALLDATACOPY DUP1 DUP3 ADD SWAP2 POP POP SWAP1 POP JUMPDEST POP SWAP3 POP SWAP3 POP SWAP3 POP SWAP1 SWAP2 SWAP3 JUMP JUMPDEST PUSH1 0x40 MLOAD PUSH32 0x8C379A000000000000000000000000000000000000000000000000000000000 DUP2 MSTORE PUSH1 0x4 ADD PUSH2 0x32C SWAP1 PUSH2 0x17E5 JUMP JUMPDEST PUSH1 0x40 MLOAD DUP1 SWAP2 SUB SWAP1 REVERT JUMPDEST PUSH32 0x0 DUP2 JUMP JUMPDEST PUSH1 0x0 DUP1 PUSH20 0xFFFFFFFFFFFFFFFFFFFFFFFFFFFFFFFFFFFFFFFF AND PUSH1 0x3 PUSH1 0x0 DUP8 PUSH8 0xFFFFFFFFFFFFFFFF AND PUSH8 0xFFFFFFFFFFFFFFFF AND DUP2 MSTORE PUSH1 0x20 ADD SWAP1 DUP2 MSTORE PUSH1 0x20 ADD PUSH1 0x0 KECCAK256 PUSH1 0x0 ADD PUSH1 0x0 SWAP1 SLOAD SWAP1 PUSH2 0x100 EXP SWAP1 DIV PUSH20 0xFFFFFFFFFFFFFFFFFFFFFFFFFFFFFFFFFFFFFFFF AND PUSH20 0xFFFFFFFFFFFFFFFFFFFFFFFFFFFFFFFFFFFFFFFF AND EQ ISZERO PUSH2 0x40B JUMPI PUSH1 0x40 MLOAD PUSH32 0x1F6A65B600000000000000000000000000000000000000000000000000000000 DUP2 MSTORE PUSH1 0x4 ADD PUSH1 0x40 MLOAD DUP1 SWAP2 SUB SWAP1 REVERT JUMPDEST PUSH1 0x0 PUSH1 0x1 PUSH1 0x0 DUP2 SLOAD DUP1 SWAP3 SWAP2 SWAP1 PUSH2 0x420 SWAP1 PUSH2 0x1D19 JUMP JUMPDEST SWAP2 SWAP1 POP SSTORE SWAP1 POP PUSH1 0x0 PUSH1 0x2 PUSH1 0x0 DUP2 SLOAD DUP1 SWAP3 SWAP2 SWAP1 PUSH2 0x43B SWAP1 PUSH2 0x1D19 JUMP JUMPDEST SWAP2 SWAP1 POP SSTORE SWAP1 POP PUSH1 0x40 MLOAD DUP1 PUSH1 0x60 ADD PUSH1 0x40 MSTORE DUP1 DUP9 PUSH8 0xFFFFFFFFFFFFFFFF AND DUP2 MSTORE PUSH1 0x20 ADD DUP7 PUSH4 0xFFFFFFFF AND DUP2 MSTORE PUSH1 0x20 ADD DUP6 PUSH4 0xFFFFFFFF AND DUP2 MSTORE POP PUSH1 0x4 PUSH1 0x0 DUP5 DUP2 MSTORE PUSH1 0x20 ADD SWAP1 DUP2 MSTORE PUSH1 0x20 ADD PUSH1 0x0 KECCAK256 PUSH1 0x0 DUP3 ADD MLOAD DUP2 PUSH1 0x0 ADD PUSH1 0x0 PUSH2 0x100 EXP DUP2 SLOAD DUP2 PUSH8 0xFFFFFFFFFFFFFFFF MUL NOT AND SWAP1 DUP4 PUSH8 0xFFFFFFFFFFFFFFFF AND MUL OR SWAP1 SSTORE POP PUSH1 0x20 DUP3 ADD MLOAD DUP2 PUSH1 0x0 ADD PUSH1 0x8 PUSH2 0x100 EXP DUP2 SLOAD DUP2 PUSH4 0xFFFFFFFF MUL NOT AND SWAP1 DUP4 PUSH4 0xFFFFFFFF AND MUL OR SWAP1 SSTORE POP PUSH1 0x40 DUP3 ADD MLOAD DUP2 PUSH1 0x0 ADD PUSH1 0xC PUSH2 0x100 EXP DUP2 SLOAD DUP2 PUSH4 0xFFFFFFFF MUL NOT AND SWAP1 DUP4 PUSH4 0xFFFFFFFF AND MUL OR SWAP1 SSTORE POP SWAP1 POP POP CALLER PUSH20 0xFFFFFFFFFFFFFFFFFFFFFFFFFFFFFFFFFFFFFFFF AND DUP8 PUSH8 0xFFFFFFFFFFFFFFFF AND DUP10 PUSH32 0x63373D1C4696214B898952999C9AAEC57DAC1EE2723CEC59BEA6888F489A9772 DUP6 DUP6 DUP12 DUP12 DUP12 PUSH1 0x40 MLOAD PUSH2 0x55F SWAP6 SWAP5 SWAP4 SWAP3 SWAP2 SWAP1 PUSH2 0x18D7 JUMP JUMPDEST PUSH1 0x40 MLOAD DUP1 SWAP2 SUB SWAP1 LOG4 DUP2 SWAP3 POP POP POP SWAP6 SWAP5 POP POP POP POP POP JUMP JUMPDEST PUSH1 0x40 MLOAD PUSH32 0x8C379A000000000000000000000000000000000000000000000000000000000 DUP2 MSTORE PUSH1 0x4 ADD PUSH2 0x5A7 SWAP1 PUSH2 0x17E5 JUMP JUMPDEST PUSH1 0x40 MLOAD DUP1 SWAP2 SUB SWAP1 REVERT JUMPDEST PUSH1 0x0 GAS SWAP1 POP PUSH1 0x0 PUSH1 0x4 PUSH1 0x0 DUP6 DUP2 MSTORE PUSH1 0x20 ADD SWAP1 DUP2 MSTORE PUSH1 0x20 ADD PUSH1 0x0 KECCAK256 PUSH1 0x0 ADD PUSH1 0x0 SWAP1 SLOAD SWAP1 PUSH2 0x100 EXP SWAP1 DIV PUSH8 0xFFFFFFFFFFFFFFFF AND PUSH8 0xFFFFFFFFFFFFFFFF AND EQ ISZERO PUSH2 0x62D JUMPI PUSH1 0x40 MLOAD PUSH32 0x8C379A000000000000000000000000000000000000000000000000000000000 DUP2 MSTORE PUSH1 0x4 ADD PUSH2 0x624 SWAP1 PUSH2 0x1805 JUMP JUMPDEST PUSH1 0x40 MLOAD DUP1 SWAP2 SUB SWAP1 REVERT JUMPDEST PUSH1 0x0 PUSH1 0x4 PUSH1 0x0 DUP6 DUP2 MSTORE PUSH1 0x20 ADD SWAP1 DUP2 MSTORE PUSH1 0x20 ADD PUSH1 0x0 KECCAK256 PUSH1 0x40 MLOAD DUP1 PUSH1 0x60 ADD PUSH1 0x40 MSTORE SWAP1 DUP2 PUSH1 0x0 DUP3 ADD PUSH1 0x0 SWAP1 SLOAD SWAP1 PUSH2 0x100 EXP SWAP1 DIV PUSH8 0xFFFFFFFFFFFFFFFF AND PUSH8 0xFFFFFFFFFFFFFFFF AND PUSH8 0xFFFFFFFFFFFFFFFF AND DUP2 MSTORE PUSH1 0x20 ADD PUSH1 0x0 DUP3 ADD PUSH1 0x8 SWAP1 SLOAD SWAP1 PUSH2 0x100 EXP SWAP1 DIV PUSH4 0xFFFFFFFF AND PUSH4 0xFFFFFFFF AND PUSH4 0xFFFFFFFF AND DUP2 MSTORE PUSH1 0x20 ADD PUSH1 0x0 DUP3 ADD PUSH1 0xC SWAP1 SLOAD SWAP1 PUSH2 0x100 EXP SWAP1 DIV PUSH4 0xFFFFFFFF AND PUSH4 0xFFFFFFFF AND PUSH4 0xFFFFFFFF AND DUP2 MSTORE POP POP SWAP1 POP PUSH1 0x0 DUP2 PUSH1 0x40 ADD MLOAD PUSH4 0xFFFFFFFF AND PUSH8 0xFFFFFFFFFFFFFFFF DUP2 GT ISZERO PUSH2 0x719 JUMPI PUSH32 0x4E487B7100000000000000000000000000000000000000000000000000000000 PUSH1 0x0 MSTORE PUSH1 0x41 PUSH1 0x4 MSTORE PUSH1 0x24 PUSH1 0x0 REVERT JUMPDEST PUSH1 0x40 MLOAD SWAP1 DUP1 DUP3 MSTORE DUP1 PUSH1 0x20 MUL PUSH1 0x20 ADD DUP3 ADD PUSH1 0x40 MSTORE DUP1 ISZERO PUSH2 0x747 JUMPI DUP2 PUSH1 0x20 ADD PUSH1 0x20 DUP3 MUL DUP1 CALLDATASIZE DUP4 CALLDATACOPY DUP1 DUP3 ADD SWAP2 POP POP SWAP1 POP JUMPDEST POP SWAP1 POP PUSH1 0x0 JUMPDEST DUP3 PUSH1 0x40 ADD MLOAD PUSH4 0xFFFFFFFF AND DUP2 LT ISZERO PUSH2 0x7E3 JUMPI DUP6 DUP2 PUSH1 0x40 MLOAD PUSH1 0x20 ADD PUSH2 0x772 SWAP3 SWAP2 SWAP1 PUSH2 0x18AE JUMP JUMPDEST PUSH1 0x40 MLOAD PUSH1 0x20 DUP2 DUP4 SUB SUB DUP2 MSTORE SWAP1 PUSH1 0x40 MSTORE DUP1 MLOAD SWAP1 PUSH1 0x20 ADD KECCAK256 PUSH1 0x0 SHR DUP3 DUP3 DUP2 MLOAD DUP2 LT PUSH2 0x7C4 JUMPI PUSH32 0x4E487B7100000000000000000000000000000000000000000000000000000000 PUSH1 0x0 MSTORE PUSH1 0x32 PUSH1 0x4 MSTORE PUSH1 0x24 PUSH1 0x0 REVERT JUMPDEST PUSH1 0x20 MUL PUSH1 0x20 ADD ADD DUP2 DUP2 MSTORE POP POP DUP1 DUP1 PUSH2 0x7DB SWAP1 PUSH2 0x1D19 JUMP JUMPDEST SWAP2 POP POP PUSH2 0x74D JUMP JUMPDEST POP PUSH1 0x0 DUP1 PUSH4 0x1FE543E3 PUSH1 0xE0 SHL DUP8 DUP5 PUSH1 0x40 MLOAD PUSH1 0x24 ADD PUSH2 0x802 SWAP3 SWAP2 SWAP1 PUSH2 0x187E JUMP JUMPDEST PUSH1 0x40 MLOAD PUSH1 0x20 DUP2 DUP4 SUB SUB DUP2 MSTORE SWAP1 PUSH1 0x40 MSTORE SWAP1 PUSH28 0xFFFFFFFFFFFFFFFFFFFFFFFFFFFFFFFFFFFFFFFFFFFFFFFFFFFFFFFF NOT AND PUSH1 0x20 DUP3 ADD DUP1 MLOAD PUSH28 0xFFFFFFFFFFFFFFFFFFFFFFFFFFFFFFFFFFFFFFFFFFFFFFFFFFFFFFFF DUP4 DUP2 DUP4 AND OR DUP4 MSTORE POP POP POP POP SWAP1 POP PUSH1 0x0 DUP7 PUSH20 0xFFFFFFFFFFFFFFFFFFFFFFFFFFFFFFFFFFFFFFFF AND DUP6 PUSH1 0x20 ADD MLOAD PUSH4 0xFFFFFFFF AND DUP4 PUSH1 0x40 MLOAD PUSH2 0x893 SWAP2 SWAP1 PUSH2 0x178A JUMP JUMPDEST PUSH1 0x0 PUSH1 0x40 MLOAD DUP1 DUP4 SUB DUP2 PUSH1 0x0 DUP8 DUP8 CALL SWAP3 POP POP POP RETURNDATASIZE DUP1 PUSH1 0x0 DUP2 EQ PUSH2 0x8D1 JUMPI PUSH1 0x40 MLOAD SWAP2 POP PUSH1 0x1F NOT PUSH1 0x3F RETURNDATASIZE ADD AND DUP3 ADD PUSH1 0x40 MSTORE RETURNDATASIZE DUP3 MSTORE RETURNDATASIZE PUSH1 0x0 PUSH1 0x20 DUP5 ADD RETURNDATACOPY PUSH2 0x8D6 JUMP JUMPDEST PUSH1 0x60 SWAP2 POP JUMPDEST POP POP SWAP1 POP PUSH1 0x0 PUSH32 0x0 PUSH12 0xFFFFFFFFFFFFFFFFFFFFFFFF AND GAS DUP9 PUSH2 0x917 SWAP2 SWAP1 PUSH2 0x1BD0 JUMP JUMPDEST PUSH2 0x921 SWAP2 SWAP1 PUSH2 0x1B76 JUMP JUMPDEST PUSH32 0x0 PUSH12 0xFFFFFFFFFFFFFFFFFFFFFFFF AND PUSH2 0x95A SWAP2 SWAP1 PUSH2 0x1ADE JUMP JUMPDEST SWAP1 POP DUP1 PUSH12 0xFFFFFFFFFFFFFFFFFFFFFFFF AND PUSH1 0x3 PUSH1 0x0 DUP9 PUSH1 0x0 ADD MLOAD PUSH8 0xFFFFFFFFFFFFFFFF AND PUSH8 0xFFFFFFFFFFFFFFFF AND DUP2 MSTORE PUSH1 0x20 ADD SWAP1 DUP2 MSTORE PUSH1 0x20 ADD PUSH1 0x0 KECCAK256 PUSH1 0x0 ADD PUSH1 0x14 SWAP1 SLOAD SWAP1 PUSH2 0x100 EXP SWAP1 DIV PUSH12 0xFFFFFFFFFFFFFFFFFFFFFFFF AND PUSH12 0xFFFFFFFFFFFFFFFFFFFFFFFF AND LT ISZERO PUSH2 0x9F8 JUMPI PUSH1 0x40 MLOAD PUSH32 0xF4D678B800000000000000000000000000000000000000000000000000000000 DUP2 MSTORE PUSH1 0x4 ADD PUSH1 0x40 MLOAD DUP1 SWAP2 SUB SWAP1 REVERT JUMPDEST DUP1 PUSH1 0x3 PUSH1 0x0 DUP9 PUSH1 0x0 ADD MLOAD PUSH8 0xFFFFFFFFFFFFFFFF AND PUSH8 0xFFFFFFFFFFFFFFFF AND DUP2 MSTORE PUSH1 0x20 ADD SWAP1 DUP2 MSTORE PUSH1 0x20 ADD PUSH1 0x0 KECCAK256 PUSH1 0x0 ADD PUSH1 0x14 DUP3 DUP3 DUP3 SWAP1 SLOAD SWAP1 PUSH2 0x100 EXP SWAP1 DIV PUSH12 0xFFFFFFFFFFFFFFFFFFFFFFFF AND PUSH2 0xA4D SWAP2 SWAP1 PUSH2 0x1C04 JUMP JUMPDEST SWAP3 POP PUSH2 0x100 EXP DUP2 SLOAD DUP2 PUSH12 0xFFFFFFFFFFFFFFFFFFFFFFFF MUL NOT AND SWAP1 DUP4 PUSH12 0xFFFFFFFFFFFFFFFFFFFFFFFF AND MUL OR SWAP1 SSTORE POP PUSH1 0x4 PUSH1 0x0 DUP11 DUP2 MSTORE PUSH1 0x20 ADD SWAP1 DUP2 MSTORE PUSH1 0x20 ADD PUSH1 0x0 KECCAK256 PUSH1 0x0 DUP1 DUP3 ADD PUSH1 0x0 PUSH2 0x100 EXP DUP2 SLOAD SWAP1 PUSH8 0xFFFFFFFFFFFFFFFF MUL NOT AND SWAP1 SSTORE PUSH1 0x0 DUP3 ADD PUSH1 0x8 PUSH2 0x100 EXP DUP2 SLOAD SWAP1 PUSH4 0xFFFFFFFF MUL NOT AND SWAP1 SSTORE PUSH1 0x0 DUP3 ADD PUSH1 0xC PUSH2 0x100 EXP DUP2 SLOAD SWAP1 PUSH4 0xFFFFFFFF MUL NOT AND SWAP1 SSTORE POP POP DUP9 PUSH32 0x7DFFC5AE5EE4E2E4DF1651CF6AD329A73CEBDB728F37EA0187B9B17E036756E4 DUP11 DUP4 DUP6 PUSH1 0x40 MLOAD PUSH2 0xB0E SWAP4 SWAP3 SWAP2 SWAP1 PUSH2 0x192A JUMP JUMPDEST PUSH1 0x40 MLOAD DUP1 SWAP2 SUB SWAP1 LOG2 POP POP POP POP POP POP POP POP POP JUMP JUMPDEST PUSH1 0x40 MLOAD PUSH32 0x8C379A000000000000000000000000000000000000000000000000000000000 DUP2 MSTORE PUSH1 0x4 ADD PUSH2 0xB53 SWAP1 PUSH2 0x17E5 JUMP JUMPDEST PUSH1 0x40 MLOAD DUP1 SWAP2 SUB SWAP1 REVERT JUMPDEST PUSH1 0x40 MLOAD PUSH32 0x8C379A000000000000000000000000000000000000000000000000000000000 DUP2 MSTORE PUSH1 0x4 ADD PUSH2 0xB8E SWAP1 PUSH2 0x17E5 JUMP JUMPDEST PUSH1 0x40 MLOAD DUP1 SWAP2 SUB SWAP1 REVERT JUMPDEST PUSH1 0x0 DUP1 PUSH1 0x0 DUP2 DUP2 SWAP1 SLOAD SWAP1 PUSH2 0x100 EXP SWAP1 DIV PUSH8 0xFFFFFFFFFFFFFFFF AND DUP1 SWAP3 SWAP2 SWAP1 PUSH2 0xBBE SWAP1 PUSH2 0x1D62 JUMP JUMPDEST SWAP2 SWAP1 PUSH2 0x100 EXP DUP2 SLOAD DUP2 PUSH8 0xFFFFFFFFFFFFFFFF MUL NOT AND SWAP1 DUP4 PUSH8 0xFFFFFFFFFFFFFFFF AND MUL OR SWAP1 SSTORE POP POP PUSH1 0x40 MLOAD DUP1 PUSH1 0x40 ADD PUSH1 0x40 MSTORE DUP1 CALLER PUSH20 0xFFFFFFFFFFFFFFFFFFFFFFFFFFFFFFFFFFFFFFFF AND DUP2 MSTORE PUSH1 0x20 ADD PUSH1 0x0 PUSH12 0xFFFFFFFFFFFFFFFFFFFFFFFF AND DUP2 MSTORE POP PUSH1 0x3 PUSH1 0x0 DUP1 PUSH1 0x0 SWAP1 SLOAD SWAP1 PUSH2 0x100 EXP SWAP1 DIV PUSH8 0xFFFFFFFFFFFFFFFF AND PUSH8 0xFFFFFFFFFFFFFFFF AND PUSH8 0xFFFFFFFFFFFFFFFF AND DUP2 MSTORE PUSH1 0x20 ADD SWAP1 DUP2 MSTORE PUSH1 0x20 ADD PUSH1 0x0 KECCAK256 PUSH1 0x0 DUP3 ADD MLOAD DUP2 PUSH1 0x0 ADD PUSH1 0x0 PUSH2 0x100 EXP DUP2 SLOAD DUP2 PUSH20 0xFFFFFFFFFFFFFFFFFFFFFFFFFFFFFFFFFFFFFFFF MUL NOT AND SWAP1 DUP4 PUSH20 0xFFFFFFFFFFFFFFFFFFFFFFFFFFFFFFFFFFFFFFFF AND MUL OR SWAP1 SSTORE POP PUSH1 0x20 DUP3 ADD MLOAD DUP2 PUSH1 0x0 ADD PUSH1 0x14 PUSH2 0x100 EXP DUP2 SLOAD DUP2 PUSH12 0xFFFFFFFFFFFFFFFFFFFFFFFF MUL NOT AND SWAP1 DUP4 PUSH12 0xFFFFFFFFFFFFFFFFFFFFFFFF AND MUL OR SWAP1 SSTORE POP SWAP1 POP POP PUSH1 0x0 DUP1 SLOAD SWAP1 PUSH2 0x100 EXP SWAP1 DIV PUSH8 0xFFFFFFFFFFFFFFFF AND PUSH8 0xFFFFFFFFFFFFFFFF AND PUSH32 0x464722B4166576D3DCBBA877B999BC35CF911F4EAF434B7EBA68FA113951D0BF CALLER PUSH1 0x40 MLOAD PUSH2 0xD2A SWAP2 SWAP1 PUSH2 0x17A1 JUMP JUMPDEST PUSH1 0x40 MLOAD DUP1 SWAP2 SUB SWAP1 LOG2 PUSH1 0x0 DUP1 SLOAD SWAP1 PUSH2 0x100 EXP SWAP1 DIV PUSH8 0xFFFFFFFFFFFFFFFF AND SWAP1 POP SWAP1 JUMP JUMPDEST PUSH32 0x0 DUP2 JUMP JUMPDEST PUSH1 0x0 DUP1 PUSH1 0x0 PUSH1 0x60 PUSH1 0x0 PUSH20 0xFFFFFFFFFFFFFFFFFFFFFFFFFFFFFFFFFFFFFFFF AND PUSH1 0x3 PUSH1 0x0 DUP8 PUSH8 0xFFFFFFFFFFFFFFFF AND PUSH8 0xFFFFFFFFFFFFFFFF AND DUP2 MSTORE PUSH1 0x20 ADD SWAP1 DUP2 MSTORE PUSH1 0x20 ADD PUSH1 0x0 KECCAK256 PUSH1 0x0 ADD PUSH1 0x0 SWAP1 SLOAD SWAP1 PUSH2 0x100 EXP SWAP1 DIV PUSH20 0xFFFFFFFFFFFFFFFFFFFFFFFFFFFFFFFFFFFFFFFF AND PUSH20 0xFFFFFFFFFFFFFFFFFFFFFFFFFFFFFFFFFFFFFFFF AND EQ ISZERO PUSH2 0xE28 JUMPI PUSH1 0x40 MLOAD PUSH32 0x1F6A65B600000000000000000000000000000000000000000000000000000000 DUP2 MSTORE PUSH1 0x4 ADD PUSH1 0x40 MLOAD DUP1 SWAP2 SUB SWAP1 REVERT JUMPDEST PUSH1 0x3 PUSH1 0x0 DUP7 PUSH8 0xFFFFFFFFFFFFFFFF AND PUSH8 0xFFFFFFFFFFFFFFFF AND DUP2 MSTORE PUSH1 0x20 ADD SWAP1 DUP2 MSTORE PUSH1 0x20 ADD PUSH1 0x0 KECCAK256 PUSH1 0x0 ADD PUSH1 0x14 SWAP1 SLOAD SWAP1 PUSH2 0x100 EXP SWAP1 DIV PUSH12 0xFFFFFFFFFFFFFFFFFFFFFFFF AND PUSH1 0x0 PUSH1 0x3 PUSH1 0x0 DUP9 PUSH8 0xFFFFFFFFFFFFFFFF AND PUSH8 0xFFFFFFFFFFFFFFFF AND DUP2 MSTORE PUSH1 0x20 ADD SWAP1 DUP2 MSTORE PUSH1 0x20 ADD PUSH1 0x0 KECCAK256 PUSH1 0x0 ADD PUSH1 0x0 SWAP1 SLOAD SWAP1 PUSH2 0x100 EXP SWAP1 DIV PUSH20 0xFFFFFFFFFFFFFFFFFFFFFFFFFFFFFFFFFFFFFFFF AND PUSH1 0x0 PUSH8 0xFFFFFFFFFFFFFFFF DUP2 GT ISZERO PUSH2 0xEF9 JUMPI PUSH32 0x4E487B7100000000000000000000000000000000000000000000000000000000 PUSH1 0x0 MSTORE PUSH1 0x41 PUSH1 0x4 MSTORE PUSH1 0x24 PUSH1 0x0 REVERT JUMPDEST PUSH1 0x40 MLOAD SWAP1 DUP1 DUP3 MSTORE DUP1 PUSH1 0x20 MUL PUSH1 0x20 ADD DUP3 ADD PUSH1 0x40 MSTORE DUP1 ISZERO PUSH2 0xF27 JUMPI DUP2 PUSH1 0x20 ADD PUSH1 0x20 DUP3 MUL DUP1 CALLDATASIZE DUP4 CALLDATACOPY DUP1 DUP3 ADD SWAP2 POP POP SWAP1 POP JUMPDEST POP SWAP4 POP SWAP4 POP SWAP4 POP SWAP4 POP SWAP2 SWAP4 POP SWAP2 SWAP4 JUMP JUMPDEST PUSH1 0x0 PUSH20 0xFFFFFFFFFFFFFFFFFFFFFFFFFFFFFFFFFFFFFFFF AND PUSH1 0x3 PUSH1 0x0 DUP5 PUSH8 0xFFFFFFFFFFFFFFFF AND PUSH8 0xFFFFFFFFFFFFFFFF AND DUP2 MSTORE PUSH1 0x20 ADD SWAP1 DUP2 MSTORE PUSH1 0x20 ADD PUSH1 0x0 KECCAK256 PUSH1 0x0 ADD PUSH1 0x0 SWAP1 SLOAD SWAP1 PUSH2 0x100 EXP SWAP1 DIV PUSH20 0xFFFFFFFFFFFFFFFFFFFFFFFFFFFFFFFFFFFFFFFF AND PUSH20 0xFFFFFFFFFFFFFFFFFFFFFFFFFFFFFFFFFFFFFFFF AND EQ ISZERO PUSH2 0xFE8 JUMPI PUSH1 0x40 MLOAD PUSH32 0x1F6A65B600000000000000000000000000000000000000000000000000000000 DUP2 MSTORE PUSH1 0x4 ADD PUSH1 0x40 MLOAD DUP1 SWAP2 SUB SWAP1 REVERT JUMPDEST PUSH1 0x0 PUSH1 0x3 PUSH1 0x0 DUP5 PUSH8 0xFFFFFFFFFFFFFFFF AND PUSH8 0xFFFFFFFFFFFFFFFF AND DUP2 MSTORE PUSH1 0x20 ADD SWAP1 DUP2 MSTORE PUSH1 0x20 ADD PUSH1 0x0 KECCAK256 PUSH1 0x0 ADD PUSH1 0x14 SWAP1 SLOAD SWAP1 PUSH2 0x100 EXP SWAP1 DIV PUSH12 0xFFFFFFFFFFFFFFFFFFFFFFFF AND SWAP1 POP DUP2 PUSH1 0x3 PUSH1 0x0 DUP6 PUSH8 0xFFFFFFFFFFFFFFFF AND PUSH8 0xFFFFFFFFFFFFFFFF AND DUP2 MSTORE PUSH1 0x20 ADD SWAP1 DUP2 MSTORE PUSH1 0x20 ADD PUSH1 0x0 KECCAK256 PUSH1 0x0 ADD PUSH1 0x14 DUP3 DUP3 DUP3 SWAP1 SLOAD SWAP1 PUSH2 0x100 EXP SWAP1 DIV PUSH12 0xFFFFFFFFFFFFFFFFFFFFFFFF AND PUSH2 0x1080 SWAP2 SWAP1 PUSH2 0x1B34 JUMP JUMPDEST SWAP3 POP PUSH2 0x100 EXP DUP2 SLOAD DUP2 PUSH12 0xFFFFFFFFFFFFFFFFFFFFFFFF MUL NOT AND SWAP1 DUP4 PUSH12 0xFFFFFFFFFFFFFFFFFFFFFFFF AND MUL OR SWAP1 SSTORE POP DUP3 PUSH8 0xFFFFFFFFFFFFFFFF AND PUSH32 0xD39EC07F4E209F627A4C427971473820DC129761BA28DE8906BD56F57101D4F8 DUP3 DUP5 DUP5 PUSH2 0x10E7 SWAP2 SWAP1 PUSH2 0x1B34 JUMP JUMPDEST PUSH1 0x40 MLOAD PUSH2 0x10F5 SWAP3 SWAP2 SWAP1 PUSH2 0x19E3 JUMP JUMPDEST PUSH1 0x40 MLOAD DUP1 SWAP2 SUB SWAP1 LOG2 POP POP POP JUMP JUMPDEST DUP2 PUSH1 0x0 PUSH1 0x3 PUSH1 0x0 DUP4 PUSH8 0xFFFFFFFFFFFFFFFF AND PUSH8 0xFFFFFFFFFFFFFFFF AND DUP2 MSTORE PUSH1 0x20 ADD SWAP1 DUP2 MSTORE PUSH1 0x20 ADD PUSH1 0x0 KECCAK256 PUSH1 0x0 ADD PUSH1 0x0 SWAP1 SLOAD SWAP1 PUSH2 0x100 EXP SWAP1 DIV PUSH20 0xFFFFFFFFFFFFFFFFFFFFFFFFFFFFFFFFFFFFFFFF AND SWAP1 POP PUSH1 0x0 PUSH20 0xFFFFFFFFFFFFFFFFFFFFFFFFFFFFFFFFFFFFFFFF AND DUP2 PUSH20 0xFFFFFFFFFFFFFFFFFFFFFFFFFFFFFFFFFFFFFFFF AND EQ ISZERO PUSH2 0x11B9 JUMPI PUSH1 0x40 MLOAD PUSH32 0x1F6A65B600000000000000000000000000000000000000000000000000000000 DUP2 MSTORE PUSH1 0x4 ADD PUSH1 0x40 MLOAD DUP1 SWAP2 SUB SWAP1 REVERT JUMPDEST DUP1 PUSH20 0xFFFFFFFFFFFFFFFFFFFFFFFFFFFFFFFFFFFFFFFF AND CALLER PUSH20 0xFFFFFFFFFFFFFFFFFFFFFFFFFFFFFFFFFFFFFFFF AND EQ PUSH2 0x1229 JUMPI DUP1 PUSH1 0x40 MLOAD PUSH32 0xD8A3FB5200000000000000000000000000000000000000000000000000000000 DUP2 MSTORE PUSH1 0x4 ADD PUSH2 0x1220 SWAP2 SWAP1 PUSH2 0x17A1 JUMP JUMPDEST PUSH1 0x40 MLOAD DUP1 SWAP2 SUB SWAP1 REVERT JUMPDEST DUP4 PUSH8 0xFFFFFFFFFFFFFFFF AND PUSH32 0xE8ED5B475A5B5987AA9165E8731BB78043F39EEE32EC5A1169A89E27FCD49815 DUP5 PUSH1 0x3 PUSH1 0x0 DUP9 PUSH8 0xFFFFFFFFFFFFFFFF AND PUSH8 0xFFFFFFFFFFFFFFFF AND DUP2 MSTORE PUSH1 0x20 ADD SWAP1 DUP2 MSTORE PUSH1 0x20 ADD PUSH1 0x0 KECCAK256 PUSH1 0x0 ADD PUSH1 0x14 SWAP1 SLOAD SWAP1 PUSH2 0x100 EXP SWAP1 DIV PUSH12 0xFFFFFFFFFFFFFFFFFFFFFFFF AND PUSH1 0x40 MLOAD PUSH2 0x12A7 SWAP3 SWAP2 SWAP1 PUSH2 0x17BC JUMP JUMPDEST PUSH1 0x40 MLOAD DUP1 SWAP2 SUB SWAP1 LOG2 PUSH1 0x3 PUSH1 0x0 DUP6 PUSH8 0xFFFFFFFFFFFFFFFF AND PUSH8 0xFFFFFFFFFFFFFFFF AND DUP2 MSTORE PUSH1 0x20 ADD SWAP1 DUP2 MSTORE PUSH1 0x20 ADD PUSH1 0x0 KECCAK256 PUSH1 0x0 DUP1 DUP3 ADD PUSH1 0x0 PUSH2 0x100 EXP DUP2 SLOAD SWAP1 PUSH20 0xFFFFFFFFFFFFFFFFFFFFFFFFFFFFFFFFFFFFFFFF MUL NOT AND SWAP1 SSTORE PUSH1 0x0 DUP3 ADD PUSH1 0x14 PUSH2 0x100 EXP DUP2 SLOAD SWAP1 PUSH12 0xFFFFFFFFFFFFFFFFFFFFFFFF MUL NOT AND SWAP1 SSTORE POP POP POP POP POP POP JUMP JUMPDEST PUSH1 0x0 DUP2 CALLDATALOAD SWAP1 POP PUSH2 0x1334 DUP2 PUSH2 0x1E14 JUMP JUMPDEST SWAP3 SWAP2 POP POP JUMP JUMPDEST PUSH1 0x0 DUP2 CALLDATALOAD SWAP1 POP PUSH2 0x1349 DUP2 PUSH2 0x1E2B JUMP JUMPDEST SWAP3 SWAP2 POP POP JUMP JUMPDEST PUSH1 0x0 DUP2 CALLDATALOAD SWAP1 POP PUSH2 0x135E DUP2 PUSH2 0x1E42 JUMP JUMPDEST SWAP3 SWAP2 POP POP JUMP JUMPDEST PUSH1 0x0 DUP2 CALLDATALOAD SWAP1 POP PUSH2 0x1373 DUP2 PUSH2 0x1E59 JUMP JUMPDEST SWAP3 SWAP2 POP POP JUMP JUMPDEST PUSH1 0x0 DUP2 CALLDATALOAD SWAP1 POP PUSH2 0x1388 DUP2 PUSH2 0x1E70 JUMP JUMPDEST SWAP3 SWAP2 POP POP JUMP JUMPDEST PUSH1 0x0 DUP2 CALLDATALOAD SWAP1 POP PUSH2 0x139D DUP2 PUSH2 0x1E87 JUMP JUMPDEST SWAP3 SWAP2 POP POP JUMP JUMPDEST PUSH1 0x0 DUP2 CALLDATALOAD SWAP1 POP PUSH2 0x13B2 DUP2 PUSH2 0x1E9E JUMP JUMPDEST SWAP3 SWAP2 POP POP JUMP JUMPDEST PUSH1 0x0 DUP1 PUSH1 0x0 DUP1 PUSH1 0x0 PUSH1 0xA0 DUP7 DUP9 SUB SLT ISZERO PUSH2 0x13D0 JUMPI PUSH1 0x0 DUP1 REVERT JUMPDEST PUSH1 0x0 PUSH2 0x13DE DUP9 DUP3 DUP10 ADD PUSH2 0x133A JUMP JUMPDEST SWAP6 POP POP PUSH1 0x20 PUSH2 0x13EF DUP9 DUP3 DUP10 ADD PUSH2 0x138E JUMP JUMPDEST SWAP5 POP POP PUSH1 0x40 PUSH2 0x1400 DUP9 DUP3 DUP10 ADD PUSH2 0x134F JUMP JUMPDEST SWAP4 POP POP PUSH1 0x60 PUSH2 0x1411 DUP9 DUP3 DUP10 ADD PUSH2 0x1379 JUMP JUMPDEST SWAP3 POP POP PUSH1 0x80 PUSH2 0x1422 DUP9 DUP3 DUP10 ADD PUSH2 0x1379 JUMP JUMPDEST SWAP2 POP POP SWAP3 SWAP6 POP SWAP3 SWAP6 SWAP1 SWAP4 POP JUMP JUMPDEST PUSH1 0x0 DUP1 PUSH1 0x40 DUP4 DUP6 SUB SLT ISZERO PUSH2 0x1442 JUMPI PUSH1 0x0 DUP1 REVERT JUMPDEST PUSH1 0x0 PUSH2 0x1450 DUP6 DUP3 DUP7 ADD PUSH2 0x1364 JUMP JUMPDEST SWAP3 POP POP PUSH1 0x20 PUSH2 0x1461 DUP6 DUP3 DUP7 ADD PUSH2 0x1325 JUMP JUMPDEST SWAP2 POP POP SWAP3 POP SWAP3 SWAP1 POP JUMP JUMPDEST PUSH1 0x0 PUSH1 0x20 DUP3 DUP5 SUB SLT ISZERO PUSH2 0x147D JUMPI PUSH1 0x0 DUP1 REVERT JUMPDEST PUSH1 0x0 PUSH2 0x148B DUP5 DUP3 DUP6 ADD PUSH2 0x138E JUMP JUMPDEST SWAP2 POP POP SWAP3 SWAP2 POP POP JUMP JUMPDEST PUSH1 0x0 DUP1 PUSH1 0x40 DUP4 DUP6 SUB SLT ISZERO PUSH2 0x14A7 JUMPI PUSH1 0x0 DUP1 REVERT JUMPDEST PUSH1 0x0 PUSH2 0x14B5 DUP6 DUP3 DUP7 ADD PUSH2 0x138E JUMP JUMPDEST SWAP3 POP POP PUSH1 0x20 PUSH2 0x14C6 DUP6 DUP3 DUP7 ADD PUSH2 0x1325 JUMP JUMPDEST SWAP2 POP POP SWAP3 POP SWAP3 SWAP1 POP JUMP JUMPDEST PUSH1 0x0 DUP1 PUSH1 0x40 DUP4 DUP6 SUB SLT ISZERO PUSH2 0x14E3 JUMPI PUSH1 0x0 DUP1 REVERT JUMPDEST PUSH1 0x0 PUSH2 0x14F1 DUP6 DUP3 DUP7 ADD PUSH2 0x138E JUMP JUMPDEST SWAP3 POP POP PUSH1 0x20 PUSH2 0x1502 DUP6 DUP3 DUP7 ADD PUSH2 0x13A3 JUMP JUMPDEST SWAP2 POP POP SWAP3 POP SWAP3 SWAP1 POP JUMP JUMPDEST PUSH1 0x0 PUSH2 0x1518 DUP4 DUP4 PUSH2 0x1554 JUMP JUMPDEST PUSH1 0x20 DUP4 ADD SWAP1 POP SWAP3 SWAP2 POP POP JUMP JUMPDEST PUSH1 0x0 PUSH2 0x1530 DUP4 DUP4 PUSH2 0x169B JUMP JUMPDEST PUSH1 0x20 DUP4 ADD SWAP1 POP SWAP3 SWAP2 POP POP JUMP JUMPDEST PUSH1 0x0 PUSH2 0x1548 DUP4 DUP4 PUSH2 0x1730 JUMP JUMPDEST PUSH1 0x20 DUP4 ADD SWAP1 POP SWAP3 SWAP2 POP POP JUMP JUMPDEST PUSH2 0x155D DUP2 PUSH2 0x1C38 JUMP JUMPDEST DUP3 MSTORE POP POP JUMP JUMPDEST PUSH2 0x156C DUP2 PUSH2 0x1C38 JUMP JUMPDEST DUP3 MSTORE POP POP JUMP JUMPDEST PUSH1 0x0 PUSH2 0x157D DUP3 PUSH2 0x1A3C JUMP JUMPDEST PUSH2 0x1587 DUP2 DUP6 PUSH2 0x1A8F JUMP JUMPDEST SWAP4 POP PUSH2 0x1592 DUP4 PUSH2 0x1A0C JUMP JUMPDEST DUP1 PUSH1 0x0 JUMPDEST DUP4 DUP2 LT ISZERO PUSH2 0x15C3 JUMPI DUP2 MLOAD PUSH2 0x15AA DUP9 DUP3 PUSH2 0x150C JUMP JUMPDEST SWAP8 POP PUSH2 0x15B5 DUP4 PUSH2 0x1A68 JUMP JUMPDEST SWAP3 POP POP PUSH1 0x1 DUP2 ADD SWAP1 POP PUSH2 0x1596 JUMP JUMPDEST POP DUP6 SWAP4 POP POP POP POP SWAP3 SWAP2 POP POP JUMP JUMPDEST PUSH1 0x0 PUSH2 0x15DB DUP3 PUSH2 0x1A47 JUMP JUMPDEST PUSH2 0x15E5 DUP2 DUP6 PUSH2 0x1AA0 JUMP JUMPDEST SWAP4 POP PUSH2 0x15F0 DUP4 PUSH2 0x1A1C JUMP JUMPDEST DUP1 PUSH1 0x0 JUMPDEST DUP4 DUP2 LT ISZERO PUSH2 0x1621 JUMPI DUP2 MLOAD PUSH2 0x1608 DUP9 DUP3 PUSH2 0x1524 JUMP JUMPDEST SWAP8 POP PUSH2 0x1613 DUP4 PUSH2 0x1A75 JUMP JUMPDEST SWAP3 POP POP PUSH1 0x1 DUP2 ADD SWAP1 POP PUSH2 0x15F4 JUMP JUMPDEST POP DUP6 SWAP4 POP POP POP POP SWAP3 SWAP2 POP POP JUMP JUMPDEST PUSH1 0x0 PUSH2 0x1639 DUP3 PUSH2 0x1A52 JUMP JUMPDEST PUSH2 0x1643 DUP2 DUP6 PUSH2 0x1AB1 JUMP JUMPDEST SWAP4 POP PUSH2 0x164E DUP4 PUSH2 0x1A2C JUMP JUMPDEST DUP1 PUSH1 0x0 JUMPDEST DUP4 DUP2 LT ISZERO PUSH2 0x167F JUMPI DUP2 MLOAD PUSH2 0x1666 DUP9 DUP3 PUSH2 0x153C JUMP JUMPDEST SWAP8 POP PUSH2 0x1671 DUP4 PUSH2 0x1A82 JUMP JUMPDEST SWAP3 POP POP PUSH1 0x1 DUP2 ADD SWAP1 POP PUSH2 0x1652 JUMP JUMPDEST POP DUP6 SWAP4 POP POP POP POP SWAP3 SWAP2 POP POP JUMP JUMPDEST PUSH2 0x1695 DUP2 PUSH2 0x1C4A JUMP JUMPDEST DUP3 MSTORE POP POP JUMP JUMPDEST PUSH2 0x16A4 DUP2 PUSH2 0x1C56 JUMP JUMPDEST DUP3 MSTORE POP POP JUMP JUMPDEST PUSH1 0x0 PUSH2 0x16B5 DUP3 PUSH2 0x1A5D JUMP JUMPDEST PUSH2 0x16BF DUP2 DUP6 PUSH2 0x1AC2 JUMP JUMPDEST SWAP4 POP PUSH2 0x16CF DUP2 DUP6 PUSH1 0x20 DUP7 ADD PUSH2 0x1CE6 JUMP JUMPDEST DUP1 DUP5 ADD SWAP2 POP POP SWAP3 SWAP2 POP POP JUMP JUMPDEST PUSH1 0x0 PUSH2 0x16E8 PUSH1 0xF DUP4 PUSH2 0x1ACD JUMP JUMPDEST SWAP2 POP PUSH2 0x16F3 DUP3 PUSH2 0x1DC2 JUMP JUMPDEST PUSH1 0x20 DUP3 ADD SWAP1 POP SWAP2 SWAP1 POP JUMP JUMPDEST PUSH1 0x0 PUSH2 0x170B PUSH1 0x13 DUP4 PUSH2 0x1ACD JUMP JUMPDEST SWAP2 POP PUSH2 0x1716 DUP3 PUSH2 0x1DEB JUMP JUMPDEST PUSH1 0x20 DUP3 ADD SWAP1 POP SWAP2 SWAP1 POP JUMP JUMPDEST PUSH2 0x172A DUP2 PUSH2 0x1C60 JUMP JUMPDEST DUP3 MSTORE POP POP JUMP JUMPDEST PUSH2 0x1739 DUP2 PUSH2 0x1C8E JUMP JUMPDEST DUP3 MSTORE POP POP JUMP JUMPDEST PUSH2 0x1748 DUP2 PUSH2 0x1C8E JUMP JUMPDEST DUP3 MSTORE POP POP JUMP JUMPDEST PUSH2 0x1757 DUP2 PUSH2 0x1C98 JUMP JUMPDEST DUP3 MSTORE POP POP JUMP JUMPDEST PUSH2 0x1766 DUP2 PUSH2 0x1CA8 JUMP JUMPDEST DUP3 MSTORE POP POP JUMP JUMPDEST PUSH2 0x1775 DUP2 PUSH2 0x1CD4 JUMP JUMPDEST DUP3 MSTORE POP POP JUMP JUMPDEST PUSH2 0x1784 DUP2 PUSH2 0x1CBC JUMP JUMPDEST DUP3 MSTORE POP POP JUMP JUMPDEST PUSH1 0x0 PUSH2 0x1796 DUP3 DUP5 PUSH2 0x16AA JUMP JUMPDEST SWAP2 POP DUP2 SWAP1 POP SWAP3 SWAP2 POP POP JUMP JUMPDEST PUSH1 0x0 PUSH1 0x20 DUP3 ADD SWAP1 POP PUSH2 0x17B6 PUSH1 0x0 DUP4 ADD DUP5 PUSH2 0x1563 JUMP JUMPDEST SWAP3 SWAP2 POP POP JUMP JUMPDEST PUSH1 0x0 PUSH1 0x40 DUP3 ADD SWAP1 POP PUSH2 0x17D1 PUSH1 0x0 DUP4 ADD DUP6 PUSH2 0x1563 JUMP JUMPDEST PUSH2 0x17DE PUSH1 0x20 DUP4 ADD DUP5 PUSH2 0x176C JUMP JUMPDEST SWAP4 SWAP3 POP POP POP JUMP JUMPDEST PUSH1 0x0 PUSH1 0x20 DUP3 ADD SWAP1 POP DUP2 DUP2 SUB PUSH1 0x0 DUP4 ADD MSTORE PUSH2 0x17FE DUP2 PUSH2 0x16DB JUMP JUMPDEST SWAP1 POP SWAP2 SWAP1 POP JUMP JUMPDEST PUSH1 0x0 PUSH1 0x20 DUP3 ADD SWAP1 POP DUP2 DUP2 SUB PUSH1 0x0 DUP4 ADD MSTORE PUSH2 0x181E DUP2 PUSH2 0x16FE JUMP JUMPDEST SWAP1 POP SWAP2 SWAP1 POP JUMP JUMPDEST PUSH1 0x0 PUSH1 0x60 DUP3 ADD SWAP1 POP PUSH2 0x183A PUSH1 0x0 DUP4 ADD DUP7 PUSH2 0x1721 JUMP JUMPDEST PUSH2 0x1847 PUSH1 0x20 DUP4 ADD DUP6 PUSH2 0x174E JUMP JUMPDEST DUP2 DUP2 SUB PUSH1 0x40 DUP4 ADD MSTORE PUSH2 0x1859 DUP2 DUP5 PUSH2 0x15D0 JUMP JUMPDEST SWAP1 POP SWAP5 SWAP4 POP POP POP POP JUMP JUMPDEST PUSH1 0x0 PUSH1 0x20 DUP3 ADD SWAP1 POP PUSH2 0x1878 PUSH1 0x0 DUP4 ADD DUP5 PUSH2 0x173F JUMP JUMPDEST SWAP3 SWAP2 POP POP JUMP JUMPDEST PUSH1 0x0 PUSH1 0x40 DUP3 ADD SWAP1 POP PUSH2 0x1893 PUSH1 0x0 DUP4 ADD DUP6 PUSH2 0x173F JUMP JUMPDEST DUP2 DUP2 SUB PUSH1 0x20 DUP4 ADD MSTORE PUSH2 0x18A5 DUP2 DUP5 PUSH2 0x162E JUMP JUMPDEST SWAP1 POP SWAP4 SWAP3 POP POP POP JUMP JUMPDEST PUSH1 0x0 PUSH1 0x40 DUP3 ADD SWAP1 POP PUSH2 0x18C3 PUSH1 0x0 DUP4 ADD DUP6 PUSH2 0x173F JUMP JUMPDEST PUSH2 0x18D0 PUSH1 0x20 DUP4 ADD DUP5 PUSH2 0x173F JUMP JUMPDEST SWAP4 SWAP3 POP POP POP JUMP JUMPDEST PUSH1 0x0 PUSH1 0xA0 DUP3 ADD SWAP1 POP PUSH2 0x18EC PUSH1 0x0 DUP4 ADD DUP9 PUSH2 0x173F JUMP JUMPDEST PUSH2 0x18F9 PUSH1 0x20 DUP4 ADD DUP8 PUSH2 0x173F JUMP JUMPDEST PUSH2 0x1906 PUSH1 0x40 DUP4 ADD DUP7 PUSH2 0x1721 JUMP JUMPDEST PUSH2 0x1913 PUSH1 0x60 DUP4 ADD DUP6 PUSH2 0x174E JUMP JUMPDEST PUSH2 0x1920 PUSH1 0x80 DUP4 ADD DUP5 PUSH2 0x174E JUMP JUMPDEST SWAP7 SWAP6 POP POP POP POP POP POP JUMP JUMPDEST PUSH1 0x0 PUSH1 0x60 DUP3 ADD SWAP1 POP PUSH2 0x193F PUSH1 0x0 DUP4 ADD DUP7 PUSH2 0x173F JUMP JUMPDEST PUSH2 0x194C PUSH1 0x20 DUP4 ADD DUP6 PUSH2 0x177B JUMP JUMPDEST PUSH2 0x1959 PUSH1 0x40 DUP4 ADD DUP5 PUSH2 0x168C JUMP JUMPDEST SWAP5 SWAP4 POP POP POP POP JUMP JUMPDEST PUSH1 0x0 PUSH1 0x20 DUP3 ADD SWAP1 POP PUSH2 0x1976 PUSH1 0x0 DUP4 ADD DUP5 PUSH2 0x175D JUMP JUMPDEST SWAP3 SWAP2 POP POP JUMP JUMPDEST PUSH1 0x0 PUSH1 0x20 DUP3 ADD SWAP1 POP PUSH2 0x1991 PUSH1 0x0 DUP4 ADD DUP5 PUSH2 0x177B JUMP JUMPDEST SWAP3 SWAP2 POP POP JUMP JUMPDEST PUSH1 0x0 PUSH1 0x80 DUP3 ADD SWAP1 POP PUSH2 0x19AC PUSH1 0x0 DUP4 ADD DUP8 PUSH2 0x177B JUMP JUMPDEST PUSH2 0x19B9 PUSH1 0x20 DUP4 ADD DUP7 PUSH2 0x175D JUMP JUMPDEST PUSH2 0x19C6 PUSH1 0x40 DUP4 ADD DUP6 PUSH2 0x1563 JUMP JUMPDEST DUP2 DUP2 SUB PUSH1 0x60 DUP4 ADD MSTORE PUSH2 0x19D8 DUP2 DUP5 PUSH2 0x1572 JUMP JUMPDEST SWAP1 POP SWAP6 SWAP5 POP POP POP POP POP JUMP JUMPDEST PUSH1 0x0 PUSH1 0x40 DUP3 ADD SWAP1 POP PUSH2 0x19F8 PUSH1 0x0 DUP4 ADD DUP6 PUSH2 0x176C JUMP JUMPDEST PUSH2 0x1A05 PUSH1 0x20 DUP4 ADD DUP5 PUSH2 0x176C JUMP JUMPDEST SWAP4 SWAP3 POP POP POP JUMP JUMPDEST PUSH1 0x0 DUP2 SWAP1 POP PUSH1 0x20 DUP3 ADD SWAP1 POP SWAP2 SWAP1 POP JUMP JUMPDEST PUSH1 0x0 DUP2 SWAP1 POP PUSH1 0x20 DUP3 ADD SWAP1 POP SWAP2 SWAP1 POP JUMP JUMPDEST PUSH1 0x0 DUP2 SWAP1 POP PUSH1 0x20 DUP3 ADD SWAP1 POP SWAP2 SWAP1 POP JUMP JUMPDEST PUSH1 0x0 DUP2 MLOAD SWAP1 POP SWAP2 SWAP1 POP JUMP JUMPDEST PUSH1 0x0 DUP2 MLOAD SWAP1 POP SWAP2 SWAP1 POP JUMP JUMPDEST PUSH1 0x0 DUP2 MLOAD SWAP1 POP SWAP2 SWAP1 POP JUMP JUMPDEST PUSH1 0x0 DUP2 MLOAD SWAP1 POP SWAP2 SWAP1 POP JUMP JUMPDEST PUSH1 0x0 PUSH1 0x20 DUP3 ADD SWAP1 POP SWAP2 SWAP1 POP JUMP JUMPDEST PUSH1 0x0 PUSH1 0x20 DUP3 ADD SWAP1 POP SWAP2 SWAP1 POP JUMP JUMPDEST PUSH1 0x0 PUSH1 0x20 DUP3 ADD SWAP1 POP SWAP2 SWAP1 POP JUMP JUMPDEST PUSH1 0x0 DUP3 DUP3 MSTORE PUSH1 0x20 DUP3 ADD SWAP1 POP SWAP3 SWAP2 POP POP JUMP JUMPDEST PUSH1 0x0 DUP3 DUP3 MSTORE PUSH1 0x20 DUP3 ADD SWAP1 POP SWAP3 SWAP2 POP POP JUMP JUMPDEST PUSH1 0x0 DUP3 DUP3 MSTORE PUSH1 0x20 DUP3 ADD SWAP1 POP SWAP3 SWAP2 POP POP JUMP JUMPDEST PUSH1 0x0 DUP2 SWAP1 POP SWAP3 SWAP2 POP POP JUMP JUMPDEST PUSH1 0x0 DUP3 DUP3 MSTORE PUSH1 0x20 DUP3 ADD SWAP1 POP SWAP3 SWAP2 POP POP JUMP JUMPDEST PUSH1 0x0 PUSH2 0x1AE9 DUP3 PUSH2 0x1C8E JUMP JUMPDEST SWAP2 POP PUSH2 0x1AF4 DUP4 PUSH2 0x1C8E JUMP JUMPDEST SWAP3 POP DUP3 PUSH32 0xFFFFFFFFFFFFFFFFFFFFFFFFFFFFFFFFFFFFFFFFFFFFFFFFFFFFFFFFFFFFFFFF SUB DUP3 GT ISZERO PUSH2 0x1B29 JUMPI PUSH2 0x1B28 PUSH2 0x1D93 JUMP JUMPDEST JUMPDEST DUP3 DUP3 ADD SWAP1 POP SWAP3 SWAP2 POP POP JUMP JUMPDEST PUSH1 0x0 PUSH2 0x1B3F DUP3 PUSH2 0x1CBC JUMP JUMPDEST SWAP2 POP PUSH2 0x1B4A DUP4 PUSH2 0x1CBC JUMP JUMPDEST SWAP3 POP DUP3 PUSH12 0xFFFFFFFFFFFFFFFFFFFFFFFF SUB DUP3 GT ISZERO PUSH2 0x1B6B JUMPI PUSH2 0x1B6A PUSH2 0x1D93 JUMP JUMPDEST JUMPDEST DUP3 DUP3 ADD SWAP1 POP SWAP3 SWAP2 POP POP JUMP JUMPDEST PUSH1 0x0 PUSH2 0x1B81 DUP3 PUSH2 0x1C8E JUMP JUMPDEST SWAP2 POP PUSH2 0x1B8C DUP4 PUSH2 0x1C8E JUMP JUMPDEST SWAP3 POP DUP2 PUSH32 0xFFFFFFFFFFFFFFFFFFFFFFFFFFFFFFFFFFFFFFFFFFFFFFFFFFFFFFFFFFFFFFFF DIV DUP4 GT DUP3 ISZERO ISZERO AND ISZERO PUSH2 0x1BC5 JUMPI PUSH2 0x1BC4 PUSH2 0x1D93 JUMP JUMPDEST JUMPDEST DUP3 DUP3 MUL SWAP1 POP SWAP3 SWAP2 POP POP JUMP JUMPDEST PUSH1 0x0 PUSH2 0x1BDB DUP3 PUSH2 0x1C8E JUMP JUMPDEST SWAP2 POP PUSH2 0x1BE6 DUP4 PUSH2 0x1C8E JUMP JUMPDEST SWAP3 POP DUP3 DUP3 LT ISZERO PUSH2 0x1BF9 JUMPI PUSH2 0x1BF8 PUSH2 0x1D93 JUMP JUMPDEST JUMPDEST DUP3 DUP3 SUB SWAP1 POP SWAP3 SWAP2 POP POP JUMP JUMPDEST PUSH1 0x0 PUSH2 0x1C0F DUP3 PUSH2 0x1CBC JUMP JUMPDEST SWAP2 POP PUSH2 0x1C1A DUP4 PUSH2 0x1CBC JUMP JUMPDEST SWAP3 POP DUP3 DUP3 LT ISZERO PUSH2 0x1C2D JUMPI PUSH2 0x1C2C PUSH2 0x1D93 JUMP JUMPDEST JUMPDEST DUP3 DUP3 SUB SWAP1 POP SWAP3 SWAP2 POP POP JUMP JUMPDEST PUSH1 0x0 PUSH2 0x1C43 DUP3 PUSH2 0x1C6E JUMP JUMPDEST SWAP1 POP SWAP2 SWAP1 POP JUMP JUMPDEST PUSH1 0x0 DUP2 ISZERO ISZERO SWAP1 POP SWAP2 SWAP1 POP JUMP JUMPDEST PUSH1 0x0 DUP2 SWAP1 POP SWAP2 SWAP1 POP JUMP JUMPDEST PUSH1 0x0 PUSH2 0xFFFF DUP3 AND SWAP1 POP SWAP2 SWAP1 POP JUMP JUMPDEST PUSH1 0x0 PUSH20 0xFFFFFFFFFFFFFFFFFFFFFFFFFFFFFFFFFFFFFFFF DUP3 AND SWAP1 POP SWAP2 SWAP1 POP JUMP JUMPDEST PUSH1 0x0 DUP2 SWAP1 POP SWAP2 SWAP1 POP JUMP JUMPDEST PUSH1 0x0 PUSH4 0xFFFFFFFF DUP3 AND SWAP1 POP SWAP2 SWAP1 POP JUMP JUMPDEST PUSH1 0x0 PUSH8 0xFFFFFFFFFFFFFFFF DUP3 AND SWAP1 POP SWAP2 SWAP1 POP JUMP JUMPDEST PUSH1 0x0 PUSH12 0xFFFFFFFFFFFFFFFFFFFFFFFF DUP3 AND SWAP1 POP SWAP2 SWAP1 POP JUMP JUMPDEST PUSH1 0x0 PUSH2 0x1CDF DUP3 PUSH2 0x1CBC JUMP JUMPDEST SWAP1 POP SWAP2 SWAP1 POP JUMP JUMPDEST PUSH1 0x0 JUMPDEST DUP4 DUP2 LT ISZERO PUSH2 0x1D04 JUMPI DUP1 DUP3 ADD MLOAD DUP2 DUP5 ADD MSTORE PUSH1 0x20 DUP2 ADD SWAP1 POP PUSH2 0x1CE9 JUMP JUMPDEST DUP4 DUP2 GT ISZERO PUSH2 0x1D13 JUMPI PUSH1 0x0 DUP5 DUP5 ADD MSTORE JUMPDEST POP POP POP POP JUMP JUMPDEST PUSH1 0x0 PUSH2 0x1D24 DUP3 PUSH2 0x1C8E JUMP JUMPDEST SWAP2 POP PUSH32 0xFFFFFFFFFFFFFFFFFFFFFFFFFFFFFFFFFFFFFFFFFFFFFFFFFFFFFFFFFFFFFFFF DUP3 EQ ISZERO PUSH2 0x1D57 JUMPI PUSH2 0x1D56 PUSH2 0x1D93 JUMP JUMPDEST JUMPDEST PUSH1 0x1 DUP3 ADD SWAP1 POP SWAP2 SWAP1 POP JUMP JUMPDEST PUSH1 0x0 PUSH2 0x1D6D DUP3 PUSH2 0x1CA8 JUMP JUMPDEST SWAP2 POP PUSH8 0xFFFFFFFFFFFFFFFF DUP3 EQ ISZERO PUSH2 0x1D88 JUMPI PUSH2 0x1D87 PUSH2 0x1D93 JUMP JUMPDEST JUMPDEST PUSH1 0x1 DUP3 ADD SWAP1 POP SWAP2 SWAP1 POP JUMP JUMPDEST PUSH32 0x4E487B7100000000000000000000000000000000000000000000000000000000 PUSH1 0x0 MSTORE PUSH1 0x11 PUSH1 0x4 MSTORE PUSH1 0x24 PUSH1 0x0 REVERT JUMPDEST PUSH32 0x6E6F7420696D706C656D656E7465640000000000000000000000000000000000 PUSH1 0x0 DUP3 ADD MSTORE POP JUMP JUMPDEST PUSH32 0x6E6F6E6578697374656E74207265717565737400000000000000000000000000 PUSH1 0x0 DUP3 ADD MSTORE POP JUMP JUMPDEST PUSH2 0x1E1D DUP2 PUSH2 0x1C38 JUMP JUMPDEST DUP2 EQ PUSH2 0x1E28 JUMPI PUSH1 0x0 DUP1 REVERT JUMPDEST POP JUMP JUMPDEST PUSH2 0x1E34 DUP2 PUSH2 0x1C56 JUMP JUMPDEST DUP2 EQ PUSH2 0x1E3F JUMPI PUSH1 0x0 DUP1 REVERT JUMPDEST POP JUMP JUMPDEST PUSH2 0x1E4B DUP2 PUSH2 0x1C60 JUMP JUMPDEST DUP2 EQ PUSH2 0x1E56 JUMPI PUSH1 0x0 DUP1 REVERT JUMPDEST POP JUMP JUMPDEST PUSH2 0x1E62 DUP2 PUSH2 0x1C8E JUMP JUMPDEST DUP2 EQ PUSH2 0x1E6D JUMPI PUSH1 0x0 DUP1 REVERT JUMPDEST POP JUMP JUMPDEST PUSH2 0x1E79 DUP2 PUSH2 0x1C98 JUMP JUMPDEST DUP2 EQ PUSH2 0x1E84 JUMPI PUSH1 0x0 DUP1 REVERT JUMPDEST POP JUMP JUMPDEST PUSH2 0x1E90 DUP2 PUSH2 0x1CA8 JUMP JUMPDEST DUP2 EQ PUSH2 0x1E9B JUMPI PUSH1 0x0 DUP1 REVERT JUMPDEST POP JUMP JUMPDEST PUSH2 0x1EA7 DUP2 PUSH2 0x1CBC JUMP JUMPDEST DUP2 EQ PUSH2 0x1EB2 JUMPI PUSH1 0x0 DUP1 REVERT JUMPDEST POP JUMP INVALID LOG2 PUSH5 0x6970667358 0x22 SLT KECCAK256 PUSH6 0x23A9602E57F7 DUP5 0xAF 0xD6 SWAP6 0x4E GAS ADD PUSH26 0xA0EDF0C2D2AD3B1BB16FE575CDE79721A64736F6C6343000804 STOP CALLER "
				},
				"gasEstimates": {
					"creation": {
						"codeDepositCost": "1583000",
						"executionCost": "infinite",
						"totalCost": "infinite"
					},
					"external": {
						"BASE_FEE()": "infinite",
						"GAS_PRICE_LINK()": "infinite",
						"acceptSubscriptionOwnerTransfer(uint64)": "723",
						"addConsumer(uint64,address)": "1009",
						"cancelSubscription(uint64,address)": "infinite",
						"createSubscription()": "infinite",
						"fulfillRandomWords(uint256,address)": "infinite",
						"fundSubscription(uint64,uint96)": "infinite",
						"getRequestConfig()": "885",
						"getSubscription(uint64)": "infinite",
						"removeConsumer(uint64,address)": "965",
						"requestRandomWords(bytes32,uint64,uint16,uint32,uint32)": "infinite",
						"requestSubscriptionOwnerTransfer(uint64,address)": "943"
					}
				},
				"methodIdentifiers": {
					"BASE_FEE()": "3d18651e",
					"GAS_PRICE_LINK()": "a410347f",
					"acceptSubscriptionOwnerTransfer(uint64)": "82359740",
					"addConsumer(uint64,address)": "7341c10c",
					"cancelSubscription(uint64,address)": "d7ae1d30",
					"createSubscription()": "a21a23e4",
					"fulfillRandomWords(uint256,address)": "808974ff",
					"fundSubscription(uint64,uint96)": "afc69b53",
					"getRequestConfig()": "00012291",
					"getSubscription(uint64)": "a47c7696",
					"removeConsumer(uint64,address)": "9f87fad7",
					"requestRandomWords(bytes32,uint64,uint16,uint32,uint32)": "5d3b1d30",
					"requestSubscriptionOwnerTransfer(uint64,address)": "04c357cb"
				}
			},
			"storageLayout": {
				"storage": [
					{
						"astId": 312,
						"contract": "@chainlink/contracts/src/v0.8/mocks/VRFCoordinatorV2Mock.sol:VRFCoordinatorV2Mock",
						"label": "s_currentSubId",
						"offset": 0,
						"slot": "0",
						"type": "t_uint64"
					},
					{
						"astId": 315,
						"contract": "@chainlink/contracts/src/v0.8/mocks/VRFCoordinatorV2Mock.sol:VRFCoordinatorV2Mock",
						"label": "s_nextRequestId",
						"offset": 0,
						"slot": "1",
						"type": "t_uint256"
					},
					{
						"astId": 318,
						"contract": "@chainlink/contracts/src/v0.8/mocks/VRFCoordinatorV2Mock.sol:VRFCoordinatorV2Mock",
						"label": "s_nextPreSeed",
						"offset": 0,
						"slot": "2",
						"type": "t_uint256"
					},
					{
						"astId": 328,
						"contract": "@chainlink/contracts/src/v0.8/mocks/VRFCoordinatorV2Mock.sol:VRFCoordinatorV2Mock",
						"label": "s_subscriptions",
						"offset": 0,
						"slot": "3",
						"type": "t_mapping(t_uint64,t_struct(Subscription)323_storage)"
					},
					{
						"astId": 340,
						"contract": "@chainlink/contracts/src/v0.8/mocks/VRFCoordinatorV2Mock.sol:VRFCoordinatorV2Mock",
						"label": "s_requests",
						"offset": 0,
						"slot": "4",
						"type": "t_mapping(t_uint256,t_struct(Request)335_storage)"
					}
				],
				"types": {
					"t_address": {
						"encoding": "inplace",
						"label": "address",
						"numberOfBytes": "20"
					},
					"t_mapping(t_uint256,t_struct(Request)335_storage)": {
						"encoding": "mapping",
						"key": "t_uint256",
						"label": "mapping(uint256 => struct VRFCoordinatorV2Mock.Request)",
						"numberOfBytes": "32",
						"value": "t_struct(Request)335_storage"
					},
					"t_mapping(t_uint64,t_struct(Subscription)323_storage)": {
						"encoding": "mapping",
						"key": "t_uint64",
						"label": "mapping(uint64 => struct VRFCoordinatorV2Mock.Subscription)",
						"numberOfBytes": "32",
						"value": "t_struct(Subscription)323_storage"
					},
					"t_struct(Request)335_storage": {
						"encoding": "inplace",
						"label": "struct VRFCoordinatorV2Mock.Request",
						"members": [
							{
								"astId": 330,
								"contract": "@chainlink/contracts/src/v0.8/mocks/VRFCoordinatorV2Mock.sol:VRFCoordinatorV2Mock",
								"label": "subId",
								"offset": 0,
								"slot": "0",
								"type": "t_uint64"
							},
							{
								"astId": 332,
								"contract": "@chainlink/contracts/src/v0.8/mocks/VRFCoordinatorV2Mock.sol:VRFCoordinatorV2Mock",
								"label": "callbackGasLimit",
								"offset": 8,
								"slot": "0",
								"type": "t_uint32"
							},
							{
								"astId": 334,
								"contract": "@chainlink/contracts/src/v0.8/mocks/VRFCoordinatorV2Mock.sol:VRFCoordinatorV2Mock",
								"label": "numWords",
								"offset": 12,
								"slot": "0",
								"type": "t_uint32"
							}
						],
						"numberOfBytes": "32"
					},
					"t_struct(Subscription)323_storage": {
						"encoding": "inplace",
						"label": "struct VRFCoordinatorV2Mock.Subscription",
						"members": [
							{
								"astId": 320,
								"contract": "@chainlink/contracts/src/v0.8/mocks/VRFCoordinatorV2Mock.sol:VRFCoordinatorV2Mock",
								"label": "owner",
								"offset": 0,
								"slot": "0",
								"type": "t_address"
							},
							{
								"astId": 322,
								"contract": "@chainlink/contracts/src/v0.8/mocks/VRFCoordinatorV2Mock.sol:VRFCoordinatorV2Mock",
								"label": "balance",
								"offset": 20,
								"slot": "0",
								"type": "t_uint96"
							}
						],
						"numberOfBytes": "32"
					},
					"t_uint256": {
						"encoding": "inplace",
						"label": "uint256",
						"numberOfBytes": "32"
					},
					"t_uint32": {
						"encoding": "inplace",
						"label": "uint32",
						"numberOfBytes": "4"
					},
					"t_uint64": {
						"encoding": "inplace",
						"label": "uint64",
						"numberOfBytes": "8"
					},
					"t_uint96": {
						"encoding": "inplace",
						"label": "uint96",
						"numberOfBytes": "12"
					}
				}
			},
			"userdoc": {
				"kind": "user",
				"methods": {
					"createSubscription()": {
						"notice": "Create a VRF subscription."
					},
					"fulfillRandomWords(uint256,address)": {
						"notice": "fulfillRandomWords fulfills the given request, sending the random words to the suppliedconsumer."
					},
					"fundSubscription(uint64,uint96)": {
						"notice": "fundSubscription allows funding a subscription with an arbitrary amount for testing."
					},
					"getRequestConfig()": {
						"notice": "Get configuration relevant for making requests"
					}
				},
				"version": 1
			}
		}
	}
}